:070000000201001213773228
:04000B001208EE32B7
:040013001213AC32E6
:04001B001209DB32B9
:06002300120A19C2983216
:06002B00C2CF120EF832F4
:1001000075817F7D0C7F90D287D285D286757B01E9
:1001100075783B757F05757D01757C01D2B7756C6F
:1001200006756A05D219C290D222C21AD21BC29297
:10013000D293C220C2217577017576027575037559
:10014000710875700E756F20756D00756E013094B5
:1001500007757E01D2968005757E02C29612130B3A
:100160007533FF75340075350175360A75370375BB
:10017000380175390A753A02753B09121170753EDE
:1001800000753F00754000754100120F7075430007
:10019000854344755F01C201C202C203C204C208A2
:1001A000C209C20AC20BC20CC210C211C212D2B220
:1001B000D2B3D2B6754500754600754700754C013F
:1001C000754D1F754E14850057850F587559FF756D
:1001D0005AFFC218755B00755C05755E01E55E250A
:1001E0005EF562856261C3D2AFD2A9C2A8D288C2CD
:1001F000AAD28AD2AD75C80475CBFF75CA007589BD
:1002000016758AC4758CC4758B00758D00D28CC22E
:10021000ABC28E75B822759800120D128000E57F72
:10022000B401051202708026B40205120311801E6B
:10023000B4030512034F8016B40405120392800E16
:10024000B406051203C98006B405031203B0E57EA7
:10025000B401051208A28016B402051208D7800E58
:10026000B403051208DE8006B404031208E580AE6C
:10027000E54C75F00A84F54F85F050E54D75F00AB0
:1002800084F55185F052E54E75F00A84F55385F0FA
:100290005479451213E8E54675F00A84F54A85F06D
:1002A0004B7533FF854F348550358551378552382E
:1002B00085533A85543B854A40854B41E57EB403DE
:1002C00002802B30201CB404028017E56DB5451266
:1002D000E56EB5460D7402B54708302205120D12C1
:1002E000802E120B8D301006120CA7020310120B79
:1002F000AF301006120BF1020310757B01120B4494
:10030000E57BB40305120BF18006B40203120C184E
:1003100022E57DB4010512044C801EB402051204CE
:10032000678016B40305120482800EB4040512041B
:100330009D8006B405031204A779451213E8E57AF7
:10034000B4000B12142112149AC20B120BDE227984
:100350005B1213E8E55C75F00A84F54A85F04B857D
:100360004A40854B41120BAF301006120C7F02033E
:1003700091757B03120B44E57BB40105120C7F8061
:1003800010B40405120C448008E57AB40003120C82
:100390007F22E57CB401051204C28006B402031278
:1003A00004CCE57AB40003120C6E795B1213E822D8
:1003B000E577B401051207CD800EB40205120805D9
:1003C0008006B4030312084A22E56CB40505120442
:1003D000E78056B4060512052E804EB402051205BC
:1003E000758046B401051205B7803EB408051205B4
:1003F000FC8036B4070512063D802EB404051206B3
:10040000938026B403051206DB801EB40B05120789
:10041000208016B40C05120778800EB40D05120763
:100420008D8006B40E031207ADE57AB4001D757910
:1004300001E56CB40B0612151D020448B40C09E565
:100440005E255EF562856261120C8E22E54C75F0C8
:100450000A84F54F85F050854F34855035120B22B4
:10046000301003120D9E22E54D75F00A84F551857A
:10047000F052855137855238120B22301003120D7D
:10048000AD22E54E75F00A84F55385F05485533A54
:1004900085543B120B22301003120DBC22120B228A
:1004A000301003120DD022E54675F00A84F54A8516
:1004B000F04B854A40854B41120B22301003120B42
:1004C000DE22120B22301003120DE222E55C75F0E1
:1004D0000A84F54A85F04B854A40854B41120B2230
:1004E000301003120C6E227533FF7534FF75350F13
:1004F00075361875370A75381575391A753A1175C4
:100500003B1479451213E8E54675F00A84F54A85EF
:10051000F04B854A40854B41120B22301006120DDC
:100520001202052D120B8D301003120C8E22753322
:100530000B7534127535137536147537FF7538160B
:10054000753917753A11753B1879451213E8E54668
:1005500075F00A84F54A85F04B854A40854B411277
:100560000B22301006120E5F020574120B8D301034
:1005700003120C8E2275330B7534FF7535FF7536FB
:1005800015753711753817753917753A16753B1883
:10059000E55E75F00A84F54085F041753E0A753FC9
:1005A0000A120B22301006120E8D0205B6120B8DA8
:1005B000301003120C8E227533FF7534FF75351918
:1005C00075360E7537137538187539FF753A177506
:1005D0003B112019067541000205DE754101753E8B
:1005E0000A753F0A75400A120B22301005B2190233
:1005F00005FB120B8D301003120C8E2275330B7518
:1006000034FF75351575361A753711753814753907
:10061000FF753A0E753B13E56E75F00A84F540855B
:10062000F041796D1213E8120B22301006120EBE43
:1006300002063C120B8D301003120C8E227533FF14
:1006400075340C75351B7536137537177538157578
:10065000391A753A11753B142022067541000206BD
:1006600064754101753E0A753F0A75400A120B22F6
:10067000301016B222202208756A07856A5580124A
:10068000756A08856A55020692120B8D30100312A6
:100690000C8E227533FF7534017535027536FF7582
:1006A000371775380F7539FF753A02753B04201AF4
:1006B000097540027541040206C07540017541028A
:1006C000753E0A753F0A120B22301005B21A020657
:1006D000DA120B8D301003120C8E227533FF753435
:1006E000FF75351E75361875371875381F7539FF43
:1006F000753A17753B11201B0675410002070275FC
:100700004101753E0A753F0A75400A120B223010EE
:1007100005B21B02071F120B8D301003120C8E2224
:10072000E54675F00A84F54A85F04BE570C3940EF2
:10073000500A75390AC3740E957080037539FF75B8
:10074000F00A84F53A85F03B854A40854B41E570D7
:100750002545C3940E500424188007C394185002F2
:100760002418F56B796B1213E8120B22301008D2A3
:100770002112151D120E7A22E55E75F00A84F540ED
:1007800085F041120B22301003120EA222E56E7585
:10079000F00A84F54085F041E56D75F00A84F53E78
:1007A00085F03F120B22301003120ED322E56E7536
:1007B000F00A84F54085F041E56D75F00A84F53E58
:1007C00085F03F120B22301003120EE522E546752C
:1007D000F00A84F54A85F04B854A40854B4130202C
:1007E00013120B2230100D302105120CED80151262
:1007F0000E188010E57AB4000B302105120CED8044
:1008000003120E1822E54675F00A84F54A85F04B6E
:10081000854A40854B41120B2230100D30210512C4
:100820000CED8025120E18802030970D2021051226
:100830000E188015120CED8010E57AB4000B3021F3
:1008400005120CED8003120E1822E54675F00A849D
:10085000F54A85F04BE570C3940E500A75390AC30A
:10086000740E957080037539FF75F00A84F53A852A
:10087000F03B854A40854B41E5702545C3940E50B9
:100880000424188007C3941850022418F56B796B60
:100890001213E8120B22301008D22112151D120C6F
:1008A000ED2230942EE55BB5452CE55CB54627740A
:1008B00000B54722E57FB40505120CEDC202B40372
:1008C00005120C7FC202B40605120C8EC202120D74
:1008D000668003120D6022309403120D5A22209478
:1008E00003120D6F22209405120D86800022C0E0B5
:1008F000C0D0C006E579B40717E547B54308121321
:100900000BC2020209060543E543B43C03754300EC
:10091000E579B4025430024720031020041CE54757
:10092000B5433C12130BC202020969741EB5432F72
:10093000121345C202C203020969E56AB4080590B0
:100940001689800BB40705901681800390167BE50D
:100950006C1493B5430912132EC202C204800A0517
:1009600043E543B43C03754300E579B4050CD56118
:1009700009856261D54303120D8FE579B4040CE556
:1009800042B4020575420080020542D55F4685608B
:100990005FE57FB40102800CB40507E577B403027C
:1009A0008002157AE57EB40302B2910547AE47BED8
:1009B0003C22754700E57FB402030209D40546AE28
:1009C00046BE3C107546000545AE45BE1806754549
:1009D00000121554D006D0D0D0E022C0E0C0D075AF
:1009E0008B00758D00D291E57FB40524E577B401C5
:1009F0001F30930E757214D56F1AC220120CED02BF
:100A00000A14D220756F20D5720A120DF4020A144E
:100A1000C28EC2ABD0D0D0E022C0E0C0D0C001C0F6
:100A200003E599AB76BB010D7E006273D574038537
:100A30007576020B19BB0209B42403757603020B09
:100A400019BB030EB44708F573757604020B19023F
:100A50000B13BB040EB450086273757605020B19B4
:100A6000020B13BB050EB452086273757606020BB7
:100A700019020B13BB060EB44D086273757607029C
:100A80000B19020B13BB0714B4430E627375740188
:100A9000757508757601020B19020B13BB081962F4
:100AA000730E540FA971F70571BE060975740575AB
:100AB0007509757601020B19BB0914B4410E6273F6
:100AC00075742675750C757601020B19020B13BB34
:100AD0000C1962730E540FA971F70571BE063A75B1
:100AE000740475750D757601020B19BB0D09B42AD6
:100AF0002275760E020B19BB0E190E1214BFBE0121
:100B000006C4F514020B194514F514B57305D297F4
:100B10001214D5757602757108D003D001D0D0D0EB
:100B2000E022C21030B602C20A200A1720B6147A98
:100B30000A7BFF20B60DDBFB7BFFDAF7D20AD2106F
:100B400012163C2230B602C20A200A4020B63D7A74
:100B5000B07BFF20B636DBFB7BFFBAA61FE57EB479
:100B60000306120D79020B8AE57FB4010912163CC7
:100B7000757B03020B7C12163C757B01DAD5B40140
:100B800006757B02020B8A757B04D20A22C21030E2
:100B9000B702C21120111720B7147A0A7BFF20B7C1
:100BA0000DDBFB7BFFDAF7D211D21012163C22C20A
:100BB00010308502C2122012242085217A0A7BFF80
:100BC00020851ADBFB7BFFDAF7E57EB40308120D04
:100BD00079D212020BDDD212D21012163C22C2A818
:100BE000C2AA754700201902D29012130B757F011B
:100BF0002275780A85787A7533FF7534FF7535FF6D
:100C000075360C75370D75380E75390F753A1175C7
:100C10003B11C290757F032275783C85787AC20CAF
:100C2000C297C28BC289D2A8D2AA757D017557FC22
:100C30007558FF75550C755601784CC290121358B3
:100C4000757F022275780A85787AC28BC289D2A80C
:100C5000D2AA757C01C20CC20B7557FF7558CF75AF
:100C60005517755600785B121358757F04227578F6
:100C70000A85787AC2A8C2AA121362757F03227508
:100C8000360A75390A201902D290757F0122753310
:100C9000FF75360A75390AC2A8C2AA121362201952
:100CA00002D290757F012275783C85787AC28BC21A
:100CB00089D2A8D2AA202005756A05800B202205BA
:100CC000756A078003756A08756C01C20C856A55E0
:100CD000755601786CC290E57EB40403120D98122B
:100CE000132ED20412131BD202757F0622C292C2A7
:100CF000A8C2AA758916201B02C28ED2AB759800B5
:100D000075360A75390AC21875B822121362757FD2
:100D100001227578FF85787AC2A8C2AAD21875997F
:100D2000003099FDC2997599FF3099FDC299759966
:100D3000023099FDC299D2B5C2B5121332D2AB7549
:100D40008916D28E757214756F20C297D2922019AF
:100D500002D290757701757F0522D296757E0122A9
:100D6000C296757E0222C29112131B757E0322D297
:100D700091C296D202757E0222D291856261D20220
:100D8000D203757E0422C296121362757E0222C2BD
:100D90009112131B757E0322D296757E0122755720
:100DA000E77558FF121421784D757D022275573F63
:100DB0007558FF12149A784E757D03227557FF758A
:100DC00058CFC20B7555177556007845757D0422AE
:100DD0007557FF75583F75553B7556007846757DBC
:100DE00005227557FF75583F75553B755600785C61
:100DF000757C022275787885787A75B810C28EC2B3
:100E0000AB758926758DFDD28E759850D2AC7571F3
:100E10000875760275770222C292C2AC7598007589
:100E20008916201B02C28ED2AB75571F7558FF75ED
:100E300033FF7534127535137536147537FF7538F1
:100E4000FF75551C7556037870C21875B822C28B91
:100E5000C289D2A8D2AAC20C121358757703227580
:100E6000571F7558FF7538FF75551C7556037870F8
:100E7000121544121358756C0B22756C06D20412AD
:100E8000131BD202856A55755601786C227557FF7F
:100E900075583F75555A755601785E121358756C22
:100EA0000C22E55E255EF562856261756C02D204F6
:100EB00012131BD202856A55755601786C2275573C
:100EC000FF7558CF755517755600786D1213587504
:100ED0006C0D227557FF75583F75553B7556007858
:100EE0006E756C0E22756C08D20412131BD202852B
:100EF0006A55755601786C22C0D012120E20180364
:100F0000120F77DD08120F49120F107D0CD0D0227E
:100F1000C0E0E579B40606120F28020F257559FFC7
:100F2000755AFFC20CD0E022DF1E7F90B284754359
:100F30001E20840C200C0985575985585A020F48E9
:100F40007559FF755AFFC20C22C001C0E0C0D0C362
:100F5000A93D053DE53C47555A75A000F5A0E53C87
:100F600033F53C5004C3120F70D0D0D0E0D0012232
:100F7000753C10753D3E22C001C0E0C0D0A93205CD
:100F8000328530993099FDC299E5315559F599303E
:100F900099FDC299B7000B7599FC3099FDC2990271
:100FA0001154B7010B7599603099FDC29902115423
:100FB000B7020B7599DA3099FDC299021154B70343
:100FC0000B7599F23099FDC299021154B7040B7553
:100FD00099663099FDC299021154B7050B7599B6FF
:100FE0003099FDC299021154B7060B7599BE30991C
:100FF000FDC299021154B7070B7599E03099FDC2F3
:1010000099021154B7080B7599FE3099FDC29902E7
:101010001154B7090B7599E63099FDC29902115424
:10102000B70A0B7599023099FDC299021154B70B9A
:101030000B7599013099FDC299021154B7FF0B75D8
:1010400099003099FDC299021154B70C0B7599EEB5
:101050003099FDC299021154B70D0B75991C309946
:10106000FDC299021154B70E0B7599FA3099FDC261
:1010700099021154B70F0B75990A3099FDC2990264
:101080001154B7110B75992A3099FDC29902115468
:10109000B7120B75997C3099FDC299021154B713A0
:1010A0000B75991E3099FDC299021154B7140B7536
:1010B000991A3099FDC299021154B7150B7599B65A
:1010C0003099FDC299021154B7160B7599DA30990F
:1010D000FDC299021154B7170B75993A3099FDC2A8
:1010E00099021154B7180B7599DE3099FDC2990217
:1010F0001154B7190B75997A3099FDC299021154A0
:10110000B71A0B7599763099FDC299021154B71B25
:101110000B7599383099FDC299021154B71C0B75A3
:10112000996E3099FDC299021154B71D0B7599EC57
:101130003099FDC299021154B71E0B75993E309932
:10114000FDC299021154B71F0B7599CE3099FDC29B
:1011500099021154D2B5C2B5C3E53033F530E5314B
:1011600033F531B93C03121170D0D0D0E0D0012258
:1011700075308075310075323322C003C0E0C0D0B5
:10118000AB42E543B40016E579B402028012E543B0
:10119000C284C280C281C282C283021207B4010625
:1011A00012128C021207DC05121255805ABB00166F
:1011B000200009D281C282754202804BD281C28353
:1011C000C28005428041BB011520000AD282C28341
:1011D000C28015428031D282C28105428029BB0281
:1011E0002620001ABC010FC3741E95434008D2800C
:1011F000C28115428011D283C28115428009D283F7
:10120000C2827542008000D0D0D0E0D00322C0E07E
:10121000C0D0E579B401061212A4021250B402063D
:101220001212AB021250B403061212AF021250B4E3
:1012300004061212CE021250B405061212FF021258
:1012400050B40606121303021250B4070312130718
:10125000D0D0D0E022B200C3741E954320001750B6
:1012600007C3743C9543F544AC44AB420BBB03024B
:101270007B008B4280155004AC448005AC43854311
:1012800044AB421BBBFF027B028B422275420075BE
:101290004301AC43854344D280C281C282C283D21F
:1012A00084D2002285474312117A2212117A22E554
:1012B0006AB40805901689800BB4070590168180E2
:1012C0000390167BE56C1493F54312117A22C0E06B
:1012D000E542B4000BD280D283C281C2820212FCEA
:1012E000B4010BD281C280C283C2820212FCB4025A
:1012F0000BD282C281C280C2830212FCD0E02212D1
:10130000117A2212117A2212117A22758AC4758CEE
:10131000C4755F0175600175790122758AFF758C4E
:10132000FF755F3C75603C757902754300227579E5
:101330000322758AFF758CFF755F3C75603C75797B
:101340000412128C22758AC4758CC4755F01756095
:101350000175790575431E22309403120D98757935
:101360000622D202758AFE758CFE755F1E75601EA0
:1013700075790775430022C0E0C0D0C330B307D2EF
:1013800008C2090213A020081712163C06D20C85C9
:10139000787A7559FF755AFFD208300B0306060696
:1013A000E555965002A656D0D0D0E022C0E0C0D07D
:1013B000C330B207D209C2080213D520091712168A
:1013C0003C16D20C85787A7559FF755AFFD20930D0
:1013D0000B03161616E695565002A655E55596507F
:1013E00002A655D0D0D0E022C0E0C0D0C0F0E73097
:1013F0001A17B40004740C8010B40C04D295800B3E
:10140000940C4004D2958003E7C29575F00A84F5E8
:101410004885F04985483E85493FD0F0D0D0D0E09E
:1014200022AA4C755601BA010675551F021499BAC5
:10143000020675551D02148FBA030675551F021456
:1014400099BA040675551E02148FBA050675551F04
:10145000021499BA060675551E02148FBA0706754E
:10146000551F021499BA080675551F021499BA0936
:101470000675551E02148FBA0A0675551F02149977
:10148000BA0B0675551E02148F75551F021499E587
:1014900055C3954D500385554D22755600755563BE
:1014A000AA4CBA0219AA4DBA1D14D20B755560E5A3
:1014B0004E75F00484E5F06005154E1480F922C0E5
:1014C00000C0D0F8C394395006E8540F0214D0E895
:1014D000D0D0D00022C0F0C0D075F00AE50CA42511
:1014E0000DF54775F00AE50AA4250BF54675F00AD7
:1014F000E508A42509F54575F00AE50EA4250FF5C4
:101500004D75F00AE510A42511F54C75F00AE512A9
:10151000A42513F54E12151DD0D0D0F022C0E0C086
:10152000D0E5702545C3940E500724181215D480B9
:101530000CC39418500424188003121554F545D098
:10154000D0D0E022741C9570F57012151D741C9596
:1015500070F57022C0E0C0F0C0D0054DE54DB41D5F
:1015600016E54CB40267E54E75F00484E5F0605D65
:10157000054C754D018056B41E0CE54CB4024E0569
:101580004C754D018047B41F2AE54CB40407054C47
:10159000754D018038B40607054C754D01802EB499
:1015A0000907054C754D018024B40B21054C754D80
:1015B00001801AB42017054C754D01E54CB40D0D92
:1015C000054E754C01E54EB46403754E00D0D0D085
:1015D000F0D0E022C0E0C0F0C0D0D54D58D54C19B5
:1015E000E54E600A154E754C0C754D1F8047754EC3
:1015F00063754C0C754D1F803CE54CB40214E54EF0
:1016000075F00484E5F06005754D1C8028754D1D4E
:101610008023B40405754D1E801BB40605754D1E50
:101620008013B40905754D1E800BB40B05754D1E56
:101630008003754D1FD0D0D0F0D0E022301B0C7548
:101640008B00758DE0D2ABD28EC29122C00078FFA4
:10165000D8FED00022C000C001780879FFD9FE79F9
:10166000FFD8FAD001D00022C000C00178FF79FF76
:10167000D9FE79FFD8FAD001D00022060C12181E2C
:101680002205090D12161A1E2204080B0F13171A31
:021690001E2218
:00000001FF
