:070000000201001206343278
:04000B001203F232B8
:040013001206593246
:06002B00C2CF12041932DD
:100100007D0C7F90757E01757D02857E7F75330A3B
:1001100075340075350175360A7537037538017504
:10012000390A753A01753B0912054A753E00753F5B
:100130000075400075410012047B754300854344FF
:10014000C201C208C209C20AC20BC20CD2B2D2B3E7
:10015000D2B6754500754600754700754C01754D62
:100160001F754E13850057850F587559FF755AFF37
:10017000C3D2AFD2A9C2A8D288C2AAD28AD2AD7540
:10018000C80475CBFF75CA00758906758AC4758C5D
:10019000C4D28C75B8227598008000E57FB57E03C7
:1001A0000201ABB57D0302021880F0E54C75F00A40
:1001B00084F54F85F050E54D75F00A84F55185F0D2
:1001C00052E54E75F00A84F55385F05412068BE51E
:1001D0004675F00A84F54A85F04B7533FF854F3438
:1001E00085503585513785523885533A85543B853E
:1001F0004A40854B4185474320B61A7AFF7BFF2052
:10020000B613DBFB7BFFDAF7D20AC28BC289D2A816
:10021000D2AA857D7F02019BC20C7557FC7558FFE1
:1002200075550C755601784C30B602C20A200A1575
:1002300020B6127A287BFF20B60BDBFB7BFFDAF7B8
:10024000D20A02025BE54C75F00A84F54F85F05046
:10025000854F3485503512068B80CD7557E775581C
:10026000FFAA4C755601BA010675551F0202D9BA8C
:10027000020675551D0202CFBA030675551F02020C
:10028000D9BA040675551E0202CFBA050675551F68
:100290000202D9BA060675551E0202CFBA070675C4
:1002A000551F0202D9BA080675551F0202D9BA09AC
:1002B0000675551E0202CFBA0A0675551F0202D9ED
:1002C000BA0B0675551E0202CF75551F0202D9E5FD
:1002D00055C3954D500385554D784D30B602C20A31
:1002E000200A1520B6127A287BFF20B60BDBFB7B99
:1002F000FFDAF7D20A02030FE54D75F00A84F551D3
:1003000085F05285513785523812068B0202DB7513
:10031000573F7558FF755600755563AA4CBA0219B8
:10032000AA4DBA1D14D20B755560E54E75F00484C4
:10033000E5F06005154E1480F9784E30B602C20A19
:10034000200A1520B6127A287BFF20B60BDBFB7B38
:10035000FFDAF7D20A02036FE54E75F00A84F5530F
:1003600085F05485533A85543B12068B02033B7546
:1003700057FF7558CFC20B75551775560078453025
:10038000B602C20A200A1520B6127A287BFF20B6D0
:100390000BDBFB7BFFDAF7D20A0203A112068B808C
:1003A000DE7557FF75583F75553B755600784630DA
:1003B000B602C20A200A1520B6127A287BFF20B6A0
:1003C0000BDBFB7BFFDAF7D20A0203E2E54675F0AE
:1003D0000A84F54A85F04B854A40854B4112068BCD
:1003E00080CD754730C2A8C2AA857E7F12061D0245
:1003F000019BC0E0C0D00547AE47BE3C1775470023
:100400000546AE46BE3C0D7546000545AE45BE18D8
:1004100003754500D0D0D0E022120554120482DDCD
:100420000812045412042A7D0C22C0E0E57FB57D39
:1004300018DF1E7F90B28475431E20840C200C09A7
:1004400085575985585A0204517559FF755AFFC28C
:100450000CD0E022C001C0E0C0D0C3A93D053DE5FD
:100460003C47555A75A000F5A0E53C33F53C5004D7
:10047000C312047BD0D0D0E0D00122753C10753D72
:100480003E22C001C0E0C0D0A9320532853099308B
:1004900099FDC299E5315559F5993099FDC299B741
:1004A00000087599FC3099FDC299B70108759960EB
:1004B0003099FDC299B702087599DA3099FDC29951
:1004C000B703087599F23099FDC299B70408759978
:1004D000663099FDC299B705087599B63099FDC285
:1004E00099B706087599BE3099FDC299B707087586
:1004F00099E03099FDC299B708087599FE3099FDC9
:10050000C299B709087599E63099FDC299B70A08EA
:100510007599023099FDC299B70B08759901309908
:10052000FDC299B7FF087599003099FDC299D2B5FF
:10053000C2B5E53033F530E53133F531C3B93C03AD
:1005400012054AD0D0D0E0D001227530807531003C
:1005500075323322C003C0E0C0D0AB42E543B400E3
:100560000DC284C280C281C282C2830205CAB401A4
:10057000061206080205CADC051205D1804CBB0034
:1005800016200009D281C282754202803DD281C20A
:1005900083C28005428033BB011520000AD282C28B
:1005A00083C28015428023D282C2810542801BBB58
:1005B000021820000AD283D280C2811542800BD259
:1005C00083D280C2827542008000D0D0D0E0D003B8
:1005D00022B200C3741E95432000175007C3743C19
:1005E0009543F544AC44AB420BBB03027B008B420A
:1005F00080155004AC448005AC43854344AB421B9A
:10060000BBFF027B028B4222754200AC4385434410
:10061000D280C281C282C283D284D20022754300BA
:100620001206CFE547B543030206331206CF054352
:1006300002062322C0E0C330B307D208C209020673
:100640004F20080B06D20C7559FF755AFFD208E5EA
:1006500055965002A656D0E022C0E0C330B207D271
:1006600009C20802067420090B16D20C7559FF75D1
:100670005AFFD209300B03161616E695565002A6FD
:1006800055E555965002A655D0E022C0E0C0D0C036
:10069000F0E545308618B40004740C8011B40C04E5
:1006A000D295800C940C4004D2958004E545C29507
:1006B00075F00A84F54885F04985483E85493FD064
:1006C000F0D0D0D0E022C00078FFD8FED00022C009
:1006D00000C001780879FFD9FE79FFD8FAD001D09F
:1006E0000022C000C00178FF79FFD9FE79FFD8FA57
:0506F000D001D0002242
:00000001FF
