:070000000201001205C932E4
:04000B001203C132E9
:06002B00C2CF1203F23205
:100100007D0C757E01757D02857E7F75330A7534A1
:100110000075350175360A75370375380175390A6A
:10012000753A01753B091204F1753E00753F007583
:100130004000754100120425754300854344C20107
:10014000C208C209C20AC20BD2B2D2B3D2B6754536
:1001500000754600754737754C01754D1F754E1378
:10016000C3D2AFD2A9C2A8D288D2AD75C80475CB0C
:10017000FF75CA00758906758AC4758CC4D28C75E2
:10018000B8227598008000E57FB57E03020197B51F
:100190007D0302020280F0E54C75F00A84F54F857C
:1001A000F050E54D75F00A84F55185F052E54E7535
:1001B000F00A84F55385F0541205FCE54675F00A03
:1001C00084F54A85F04B7533FF854F34855035856E
:1001D000513785523885533A85543B854A40854B83
:1001E0004185474320B6187AFF7BFF20B611DBFB21
:1001F0007BFFDAF7D20AC28BC289D2A8857D7F0243
:100200000187C28475431E75550C755601784C30B4
:10021000B602C20A200A1520B6127A287BFF20B641
:100220000BDBFB7BFFDAF7D20A020242E54C75F0EA
:100230000A84F54F85F050854F348550351205FC02
:1002400080CDAA4C755601BA010675551F0202BA37
:10025000BA020675551D0202B0BA030675551F0293
:1002600002BABA040675551E0202B0BA05067555E3
:100270001F0202BABA060675551E0202B0BA070678
:1002800075551F0202BABA080675551F0202BABA9E
:10029000090675551E0202B0BA0A0675551F0202FC
:1002A000BABA0B0675551E0202B075551F0202BA86
:1002B000E555C3954D500385554D784D30B602C276
:1002C0000A200A1520B6127A287BFF20B60BDBFB2A
:1002D0007BFFDAF7D20A0202F0E54D75F00A84F5E9
:1002E0005185F0528551378552381205FC0202BC07
:1002F000755600755563AA4CBA0219AA4DBA1D1459
:10030000D20B755560E54E75F00484E5F060051577
:100310004E1480F9784E30B602C20A200A1520B673
:10032000127A287BFF20B60BDBFB7BFFDAF7D20AC1
:1003300002034AE54E75F00A84F55385F05485535F
:100340003A85543B1205FC020316C20B755517750E
:100350005600784530B602C20A200A1520B6127A35
:10036000287BFF20B60BDBFB7BFFDAF7D20A020308
:10037000761205FC80DE75553B755600784630B622
:1003800002C20A200A1520B6127A287BFF20B60B7B
:10039000DBFB7BFFDAF7D20A0203B1E54675F00A10
:1003A00084F54A85F04B854A40854B411205FC8017
:1003B000CD754700854743D284C2A8857E7F020160
:1003C00087C0E0C0D0E57FB57D05B2840203ED05AE
:1003D00047AE47BE3C177547000546AE46BE3C0DCE
:1003E0007546000545AE45BE1803754500D0D0D012
:1003F000E0221204FB12042CDD051204007D0C2205
:10040000C001C0E0C0D0C3A93D053DE53C4775A093
:1004100000F5A0E53C33F53C5004C3120425D0D0D0
:10042000D0E0D00122753C10753D3E22C001C0E0F5
:10043000C0D0A93205328530993099FDC2998531F5
:10044000993099FDC299B700087599FC3099FDC2A1
:1004500099B701087599603099FDC299B70208757E
:1004600099DA3099FDC299B703087599F23099FD70
:10047000C299B704087599663099FDC299B7050805
:100480007599B63099FDC299B706087599BE30992D
:10049000FDC299B707087599E03099FDC299B70870
:1004A000087599FE3099FDC299B709087599E6302B
:1004B00099FDC299B70A087599023099FDC299B79A
:1004C0000B087599013099FDC299B7FF087599001D
:1004D0003099FDC299D2B5C2B5E53033F530E5317A
:1004E00033F531C3B93C031204F1D0D0D0E0D001D0
:1004F0002275308075310075323322C003C0E0C0F0
:10050000D02001051205B7D201AB42DC051205650A
:10051000804CBB0016200009D281C2827542028045
:100520003DD281C283C28005428033BB01152000C9
:100530000AD282C283C28015428023D282C2810540
:1005400042801BBB021820000AD283D280C28115D0
:1005500042800BD283D280C2827542008000D0D00C
:10056000D0E0D00322B200E543B4000CC284C280C4
:10057000C281C282C283803EE543B401051205B741
:100580008034C3741E95432000175007C3743C95F4
:1005900043F544AC44AB420BBB03027B008B42806F
:1005A000155004AC448005AC43854344AB421BBBAF
:1005B000FF027B028B4222754200AC43D280C28193
:1005C000C282C283D284D20022C0E0C0D0C320B392
:1005D0001106300B03060606E55596501AA656027C
:1005E00005F716300B03161616E695565002A6555B
:1005F000E555965002A655D0D0D0E022C0E0C0D03C
:10060000C0F0E545308618B40004740C8011B40CB9
:1006100004D295800C940C4004D2958004E545C228
:100620009575F00A84F54885F04985483E85493F2F
:07063000D0F0D0D0D0E02291
:00000001FF
