:03000000020031CA
:10002B00C2CF1200663275200B7521007522067542
:10003B00230A75240075250775260A75270175286F
:10004B0008120136C3D2AFD2AD75C80475CBFA75A1
:10005B00CA00759800C291800080FEC001C0E0A963
:10006B002B052B8529993099FDC299852A993099B1
:10007B00FDC299B7000B7599FC3099FDC29902012D
:10008B001CB7010B7599603099FDC29902011CB721
:10009B00020A7599DA3099FDC2998075B7030A7512
:1000AB0099F23099FDC2998068B7040A7599663048
:1000BB0099FDC299805BB7050A7599B63099FDC257
:1000CB0099804EB7060A7599BE3099FDC299804149
:1000DB00B7070A7599E03099FDC2998034B7080AC1
:1000EB007599FE3099FDC2998027B7090A7599E673
:1000FB003099FDC299801AB70A0A7599023099FD99
:10010B00C299800DB70B0A7599013099FDC2998080
:10011B0000D2B5C2B5E52933F529E52A33F52AC353
:10012B00B92903120136D0E0D00122752980752A36
:05013B0000752B2022DD
:00000001FF
