:03000000020031CA
:04000B001200C732E6
:04001B001200DD32C0
:060023001200EAC298324F
:10002B00C2CF12024B327530017531027532037536
:10003B00330475340575350675360775370875380D
:10004B000975390A75400B75410C75420D75430ED8
:10005B00752000752100752200752300120278129D
:10006B0000B7120076020073020073D2AFD2A9D28E
:10007B00AB758911758A00758C00758B00758D00B9
:10008B00D28CD28E781479F17A07D293C297C2961A
:10009B0022C28CC28E759850D2ACC2A9C2AB7589E4
:1000AB0026758DFDD28E757D02785922D2AFD2ADD9
:1000BB0075C80475CBF475CA48D29422758A00753D
:1000CB008C0030930578140200DCD805D296120010
:1000DB009C22758B00758D00D90479F1DA0022E52D
:1000EB0099AB7DBB010D7C006257D55803857C7D98
:1000FB00020238BB0208B42402057D020238BB039E
:10010B000DB44707F557057D020238020233BB04D5
:10011B000DB450076257057D020238020233BB054E
:10012B000DB452076257057D020238020233BB063B
:10013B000DB44D076257057D020238020233BB072F
:10014B0014B4430E6257755801757C08757D010216
:10015B000238020233BB081662570C540FF608BC68
:10016B000609755805757C09757D01020238BB09B6
:10017B0014B4410E6257755801757C0A757D0102E6
:10018B000238020233BB0A2662570CB42E0302025A
:10019B0038B42C03020238540FF608BC0B0D18A60A
:1001AB009908755801757C0B757D01020238BB0BE4
:1001BB002662570CB42E03020238B42C0302023809
:1001CB00540FF608BC0C6618A6990875580D854196
:1001DB007C85307D020238BB0C1662570C540FF62F
:1001EB0008BC0649755804757C0D757D01020238F3
:1001FB00BB0D09B42A37757D0E020238BB0E290CD4
:10020B00120239BC0106C4F5780202384578F5783C
:10021B00B55715D297855920855A21855B22855C68
:10022B0023C2ACC28E020238757D02785922C000FF
:10023B00F8C394395006E8540F020248E8D0002264
:10024B00C001C0E0C3A9250525E5244775A0001210
:10025B00026FF5A0E52433F5245004C3120278D0C5
:10026B00E0D00122C00078FFD8FED0002275241008
:04027B0075252022A3
:00000001FF
