:07000000020100120132327F
:06002B00C2CF12013232C7
:1001000075220185222312017275A881D288D2AF8F
:10011000D2AD75C80475CBFF75CA0080001201E02E
:100120001201E01201E00522AF22BF3C037522015B
:1001300080EBAB20DC0512019C8036BB0010200850
:1001400009D281C2827520028027D2810520BB019D
:100150000F200806D28215208017D282C281052086
:10016000BB020E200806C28115208005C2827520C0
:100170000022752000AC22D2801201E0C280120160
:10018000E0D2801201E0C2801201E0D2801201E0D0
:10019000C2801201E0C281C282D20822B208E522E6
:1001A000B40104AC228033C3741E9522200816507B
:1001B00007C3743C9522F523AC23AB200BBB030291
:1001C0007B008B20225004AC238005AC22852223A7
:1001D000AB201BBBFF027B028B202278FFD8FE22C4
:0B01E00078FF79FFD9FE79FFD8FA22E2
:00000001FF
