:07000000020100120124328D
:06002B00C2CF12012432D5
:1001000075220112016B75A881D288D2AFD2AD756C
:10011000C80475CBFF75CA0080001201BC1201BC77
:10012000052280F6AB20DC051201958036BB00105D
:10013000200809D281C2827520028004D281052064
:10014000BB010F200806D28215208006D282C28110
:100150000520BB020E200806C28115208005C28240
:100160007520007D80E5204DF5A022752000AC2291
:10017000D2801201BCC2801201BCD2801201BCC26A
:10018000801201BCD2801201BCC2801201BCC281AB
:10019000C282D20822B208AC22BC01028018200818
:1001A0000BAB200BBB03027B008B2022AB201BBBC5
:1001B000FF027B028B202278FFD8FE2278FF79FF96
:0701C000D9FE79FFD8FA22F5
:00000001FF
