:07000000020100121234326C
:04000B001208BC32E9
:04001300121269322A
:04001B0012097A321A
:060023001209B8C2983278
:06002B00C2CF120E4432A8
:1001000075817F7D0C7F90757B0175783B757F01D4
:10011000757D01757C01D2B7756C06756A04D219BC
:10012000C290D222C21AD21BC292D293C220C22142
:1001300075770175760275750375710875700E75A2
:100140006F20756D00756E01308507757E01D29642
:100150008005757E02C2961211C87533FF75340092
:1001600075350175360A75370375380175390A75A5
:100170003A02753B0912105C753E00753F007540F0
:1001800000754100120EBC754300854344755F0144
:10019000C201C202C203C208C209C20AC20BC20C17
:1001A000C210C211D2B2D2B3D2B6754500754600A4
:1001B000754700754C01754D1F754E1485005785A8
:1001C0000F587559FF755AFFC218755B00755C05AD
:1001D000755E01E55E255EF562856261C3D2AFD2D0
:1001E000A9C2A8D288C2AAD28AD2AD75C80475CBDA
:1001F000FF75CA00758916758AC4758CC4758B0025
:10020000758D00D28CC2ABC28E75B8227598001263
:100210000C6A8000E57FB401051202668026B402F4
:10022000051202FB801EB403051203398016B404C4
:1002300005120370800EB406051203A78006B405EC
:100240000312038EE57EB401051208808016B40205
:10025000051208A5800EB403051208AC8006B4048C
:10026000031208B380AEE54C75F00A84F54F85F0B3
:1002700050E54D75F00A84F55185F052E54E75F064
:100280000A84F55385F05479451212A5E54675F0B8
:100290000A84F54A85F04B7533FF854F3485503518
:1002A00085513785523885533A85543B854A408578
:1002B0004B41302023E57EB40302801CB40402804D
:1002C00017E56DB54512E56EB5460D7402B54708E4
:1002D000302205120C6A8022120B2C301006120CF0
:1002E000110202FA757B01120AE3E57BB4030512E1
:1002F0000B618006B40203120B8822E57DB4010570
:1003000012042A801EB402051204458016B40305A7
:10031000120460800EB4040512047B8006B4050349
:1003200012048579451212A5E57AB4000B1212DE8B
:10033000121357C20B120B4E22795B1212A5E55C09
:1003400075F00A84F54A85F04B854A40854B417526
:100350007B03120AE3E57BB40105120BEF8010B4B6
:100360000405120BB48008E57AB40003120BEF22E7
:10037000E57CB401051204A08006B402031204AAAD
:10038000E57AB40003120BDE795B1212A522E57741
:10039000B401051207AB800EB402051207E3800614
:1003A000B4030312082822E56CB405051204C580C5
:1003B00056B4060512050C804EB402051205538092
:1003C00046B40105120595803EB408051205DA8091
:1003D00036B4070512061B802EB404051206718080
:1003E00026B403051206B9801EB40B051206FE8062
:1003F00016B40C05120756800EB40D0512076B805B
:1004000006B40E0312078BE57AB4001D757901E579
:100410006CB40B061213DA020426B40C09E55E254F
:100420005EF562856261120BFE22E54C75F00A846E
:10043000F54F85F050854F34855035120AC1301084
:1004400003120CF622E54D75F00A84F55185F05241
:10045000855137855238120AC1301003120D05221A
:10046000E54E75F00A84F55385F05485533A85546A
:100470003B120AC1301003120D1422120AC13010AF
:1004800003120D2822E54675F00A84F54A85F04BE3
:10049000854A40854B41120AC1301003120B4E228F
:1004A000120AC1301003120D3A22E55C75F00A847D
:1004B000F54A85F04B854A40854B41120AC1301000
:1004C00003120BDE227533FF7534FF75350F753659
:1004D0001875370A75381575391A753A11753B1440
:1004E00079451212A5E54675F00A84F54A85F04B68
:1004F000854A40854B41120AC1301006120C6A022F
:10050000050B120B2C301003120BFE227533FF75F6
:1005100034127535137536147537FF7538167539FD
:1005200017753A11753B1879451212A5E54675F015
:100530000A84F54A85F04B854A40854B41120AC131
:10054000301006120DB7020552120B2C3010031298
:100550000BFE227533FF7534FF7535FF7536157543
:100560003711753817753917753A16753B18E55EEA
:1005700075F00A84F54085F041753E0A753F0A1210
:100580000AC1301006120DE1020594120B2C301036
:1005900003120BFE227533FF7534FF75351975365E
:1005A0000E7537137538187539FF753A17753B1185
:1005B0002019067541000205BC754101753E0A759A
:1005C0003F0A75400A120AC1301005B2190205D956
:1005D000120B2C301003120BFE227533FF7534FF03
:1005E00075351575361A7537117538147539FF75E7
:1005F0003A0E753B13E56E75F00A84F54085F041BF
:10060000796D1212A5120AC1301006120E0E0206E2
:100610001A120B2C301003120BFE227533FF7534A7
:100620000C75351B75361375371775381575391AEE
:10063000753A11753B142022067541000206427579
:100640004101753E0A753F0A75400A120AC1301011
:1006500016B222202208756A07856A558012756ACB
:1006600008856A55020670120B2C301003120BFE1F
:10067000227533FF7534017535027536FF753717EE
:1006800075380F7539FF753A02753B04201A0975E4
:10069000400275410402069E754001754102753E97
:1006A0000A753F0A120AC1301005B21A0206B812C2
:1006B0000B2C301003120BFE227533FF7534FF75BF
:1006C000351E75361875371875381F7539FF753A28
:1006D00017753B11201B067541000206E0754101AC
:1006E000753E0A753F0A75400A120AC1301005B2FC
:1006F0001B0206FD120B2C301003120BFE22E546E6
:1007000075F00A84F54A85F04BE570C3940E500AE3
:1007100075390AC3740E957080037539FF75F00A38
:1007200084F53A85F03B854A40854B41E570254587
:10073000C3940E500424188007C394185002241840
:10074000F56B796B1212A5120AC1301008D2211272
:1007500013DA120DD222E55E75F00A84F54085F0B9
:1007600041120AC1301003120DF622E56E75F00A2F
:1007700084F54085F041E56D75F00A84F53E85F01D
:100780003F120AC1301003120E2322E56E75F00AE3
:1007900084F54085F041E56D75F00A84F53E85F0FD
:1007A0003F120AC1301003120E3522E54675F00AD9
:1007B00084F54A85F04B854A40854B413020131221
:1007C0000AC130100D302105120C458015120D7034
:1007D0008010E57AB4000B302105120C458003121D
:1007E0000D7022E54675F00A84F54A85F04B854A7E
:1007F00040854B41120AC130100D302105120C45C5
:100800008025120D70802030970D202105120D706B
:100810008015120C458010E57AB4000B30210512CA
:100820000C458003120D7022E54675F00A84F54AE6
:1008300085F04BE570C3940E500A75390AC3740EE7
:10084000957080037539FF75F00A84F53A85F03BA1
:10085000854A40854B41E5702545C3940E500424DC
:10086000188007C3941850022418F56B796B121284
:10087000A5120AC1301008D2211213DA120C452237
:1008800030851EE55BB5451CE55CB546177400B5C3
:100890004712E57FB40505120C45C202120CBE805A
:1008A00003120CB822308503120CB22220850312E9
:1008B0000CC722208505120CDE800022C0E0C0D0CB
:1008C000C006E579B407140543E543B43C0375431A
:1008D00000E547B543051211C8C202E579B4022804
:1008E0000543E543B43C0375430030021B20030C71
:1008F000E547B543131211C8C202800C741EB543FC
:1009000007121202C202C203E579B4050CD56109CF
:10091000856261D54303120CE7E579B4040CE54226
:10092000B4020575420080020542D55F4685605FCE
:10093000E57FB40102800CB40507E577B4030280BB
:1009400002157AE57EB40302B2910547AE47BE3C7C
:1009500022754700E57FB402030209730546AE46DF
:10096000BE3C107546000545AE45BE1806754500EF
:10097000121411D006D0D0D0E022C0E0C0D0758BC8
:1009800000758D00D291E57FB40524E577B4011F91
:1009900030930E757214D56F1AC220120C450209DD
:1009A000B3D220756F20D5720A120D4C0209B3C262
:1009B0008EC2ABD0D0D0E022C0E0C0D0C001C00316
:1009C000E599AB76BB010D7E006273D57403857526
:1009D00076020AB8BB0209B42403757603020AB88A
:1009E000BB030EB44708F573757604020AB8020A11
:1009F000B2BB040EB450086273757605020AB802E1
:100A00000AB2BB050EB452086273757606020AB8C4
:100A1000020AB2BB060EB44D086273757607020A6D
:100A2000B8020AB2BB0714B4430E62737574017541
:100A30007508757601020AB8020AB2BB081962731A
:100A40000E540FA971F70571BE0609757405757509
:100A500009757601020AB8BB0914B4410E627375B8
:100A6000742675750C757601020AB8020AB2BB0CC1
:100A70001962730E540FA971F70571BE063A7574A9
:100A80000475750D757601020AB8BB0D09B42A22EA
:100A900075760E020AB8BB0E190E12137CBE010643
:100AA000C4F514020AB84514F514B57305D29712AB
:100AB0001392757602757108D003D001D0D0D0E0C2
:100AC00022C21030B602C20A200A1720B6147A0ACF
:100AD0007BFF20B60DDBFB7BFFDAF7D20AD21012C8
:100AE00014F92230B602C20A200A4020B63D7AB07C
:100AF0007BFF20B636DBFB7BFFBAA61FE57EB40387
:100B000006120CD1020B29E57FB401091214F97504
:100B10007B03020B1B1214F9757B01DAD5B40106B5
:100B2000757B02020B29757B04D20A22C21030B7F2
:100B300002C21120111720B7147A0A7BFF20B70DCB
:100B4000DBFB7BFFDAF7D211D2101214F922C2A814
:100B5000C2AA754700201902D2901211C8757F01F0
:100B60002275780A85787A7533FF7534FF7535FFFD
:100B700075360C75370D75380E75390F753A117558
:100B80003B11C290757F032275783C85787AC20C40
:100B9000C297C28BC289D2A8D2AA757D017557FCB3
:100BA0007558FF75550C755601784CC29012121588
:100BB000757F022275780A85787AC28BC289D2A89D
:100BC000D2AA757C01C20CC20B7557FF7558CF7540
:100BD0005517755600785B121215757F04227578CB
:100BE0000A85787AC2A8C2AA12121F757F032275DD
:100BF000360A75390A201902D290757F012275369E
:100C00000A75390AC2A8C2AA201902D290757F01BA
:100C10002275783C85787AC28BC289D2A8D2AA2064
:100C20002005756A05800B202205756A078003750B
:100C30006A08756C01C20C856A55755601786CC2DC
:100C400090757F0622C292C2A8C2AA758916201B7F
:100C500002C28ED2AB75980075360A75390AC21871
:100C600075B82212121F757F01227578FF85787A78
:100C7000C2A8C2AAD2187599003099FDC299759977
:100C8000FF3099FDC2997599023099FDC299D2B58C
:100C9000C2B51211EFD2AB758916D28E757214756A
:100CA0006F20C297D292201902D290757701757F7A
:100CB0000522D296757E0122C296757E0222C291CD
:100CC0001211D8757E0322D291C296D202757E028D
:100CD00022D291856261D202D203757E0422C2962D
:100CE00012121F757E0222C2911211D8757E032244
:100CF000D296757E01227557E77558FF1212DE787D
:100D00004D757D022275573F7558FF121357784E67
:100D1000757D03227557FF7558CFC20B7555177532
:100D200056007845757D04227557FF75583F7555F7
:100D30003B7556007846757D05227557FF75583FFF
:100D400075553B755600785C757C02227578788500
:100D5000787A75B810C28EC2AB758926758DFDD2B2
:100D60008E759850D2AC757108757602757702222F
:100D7000C292C2AC759800758916201B02C28ED231
:100D8000AB75571F7558FF7533FF753412753513E2
:100D90007536147537FF7538FF75551C7556037811
:100DA00070C21875B822C28BC289D2A8D2AAC20C4E
:100DB0001212157577032275571F7558FF7538FF86
:100DC00075551C7556037870121401121215756C46
:100DD0000B22756C061211C8755508755601786C92
:100DE000227557FF75583F75555A755601785E1232
:100DF0001215756C0C22E55E255EF56285626175E3
:100E00006C021211C8755508755601786C22755719
:100E1000FF7558CF755517755600786D12121575F8
:100E20006C0D227557FF75583F75553B7556007808
:100E30006E756C0E22756C081211C87555087556C2
:100E400001786C22C0D01210EC201803120EC3DD02
:100E500008120E95120E5C7D0CD0D022C0E0E57910
:100E6000B40606120E74020E717559FF755AFFC250
:100E70000CD0E022DF1E7F90B28475431E20840CCC
:100E8000200C0985575985585A020E947559FF75DB
:100E90005AFFC20C22C001C0E0C0D0C3A93D053D2D
:100EA000E53C47555A75A000F5A0E53C33F53C50AC
:100EB00004C3120EBCD0D0D0E0D00122753C107516
:100EC0003D3E22C001C0E0C0D0A932053285309934
:100ED0003099FDC299E5315559F5993099FDC2997E
:100EE000B700087599FC3099FDC299B7010875994A
:100EF000603099FDC299B702087599DA3099FDC240
:100F000099B703087599F23099FDC299B70408752D
:100F100099663099FDC299B705087599B63099FD63
:100F2000C299B706087599BE3099FDC299B70708EE
:100F30007599E03099FDC299B708087599FE309906
:100F4000FDC299B709087599E63099FDC299B70AAB
:100F5000087599023099FDC299B70B08759901304F
:100F600099FDC299B7FF087599003099FDC299B7EC
:100F70000C087599EE3099FDC299B70D0875991C4A
:100F80003099FDC299B70E087599FA3099FDC2994A
:100F9000B70F0875990A3099FDC299B7110875996C
:100FA0002A3099FDC299B7120875997C3099FDC213
:100FB00099B7130875991E3099FDC299B714087531
:100FC000991A3099FDC299B715087599B63099FDEF
:100FD000C299B716087599DA3099FDC299B7170802
:100FE00075993A3099FDC299B718087599DE30990C
:100FF000FDC299B7190875997A3099FDC299B71A47
:10100000087599763099FDC299B71B0875993830E3
:1010100099FDC299B71C0875996E3099FDC299B7B0
:101020001D087599EC3099FDC299B71E0875993E57
:101030003099FDC299B71F087599CE3099FDC299B4
:10104000D2B5C2B5E53033F530E53133F531C3B94A
:101050003C0312105CD0D0D0E0D0012275308075F6
:10106000310075323322C003C0E0C0D0AB42E5434B
:10107000B40016E579B402028012E543C284C2804E
:10108000C281C282C2830210E5B4010612116A0253
:1010900010E5DC05121133804CBB0016200009D28C
:1010A00081C282754202803DD281C283C2800542E4
:1010B0008033BB011520000AD282C283C280154250
:1010C0008023D282C2810542801BBB021820000A05
:1010D000D283D280C2811542800BD283D280C28259
:1010E0007542008000D0D0D0E0D00322C0E0C0D054
:1010F000E579B4010612117F02112EB40206121115
:101100008602112EB4030612118A02112EB40406AF
:1011100012118B02112EB405061211BC02112EB44D
:1011200006061211C002112EB407031211C4D0D04A
:10113000D0E022B200C3741E95432000175007C3AD
:10114000743C9543F544AC44AB420BBB03027B00BB
:101150008B4280155004AC448005AC43854344ABBE
:10116000421BBBFF027B028B4222754200AC4385CF
:101170004344D280C281C282C283D284D2002285FB
:101180004743121066221210662222C0E0E542B4E4
:10119000000BD280D283C281C2820211B9B4010B8A
:1011A000D281C280C283C2820211B9B4020BD28240
:1011B000C281C280C2830211B9D0E022121066221D
:1011C0001210662212106622758AC4758CC4755F6F
:1011D0000175600175790122754300758AFF758C70
:1011E000FF755F3C75603C75790222757903227545
:1011F0008AFF758CFF755F3C75603C12116A7579CA
:101200000422758AC4758CC4755F017560017543CD
:101210001E75790522308503120CF075790622754A
:101220004300D202758AFE758CFE755F1E75601EC6
:1012300075790722C0E0C0D0C330B307D208C20915
:1012400002125D2008171214F906D20C85787A75FF
:1012500059FF755AFFD208300B03060606E555966E
:101260005002A656D0D0D0E022C0E0C0D0C330B2E9
:1012700007D209C2080212922009171214F916D2D5
:101280000C85787A7559FF755AFFD209300B031611
:101290001616E695565002A655E555965002A655E7
:1012A000D0D0D0E022C0E0C0D0C0F0E7301A17B4F0
:1012B0000004740C8010B40C04D295800B940C4084
:1012C00004D2958003E7C29575F00A84F54885F04D
:1012D0004985483E85493FD0F0D0D0D0E022AA4C85
:1012E000755601BA010675551F021356BA020675E6
:1012F000551D02134CBA030675551F021356BA0446
:101300000675551E02134CBA050675551F02135675
:10131000BA060675551E02134CBA070675551F020C
:101320001356BA080675551F021356BA09067555A5
:101330001E02134CBA0A0675551F021356BA0B0645
:1013400075551E02134C75551F021356E555C3956E
:101350004D500385554D22755600755563AA4CBAFC
:101360000219AA4DBA1D14D20B755560E54E75F0E1
:101370000484E5F06005154E1480F922C000C0D049
:10138000F8C394395006E8540F02138DE8D0D0D03A
:101390000022C0F0C0D075F00AE50CA4250DF54779
:1013A00075F00AE50AA4250BF54675F00AE508A4D0
:1013B0002509F54575F00AE50EA4250FF54D75F0E4
:1013C0000AE510A42511F54C75F00AE512A42513C1
:1013D000F54E1213DAD0D0D0F022C0E0C0D0E570C4
:1013E0002545C3940E50072418121491800CC39401
:1013F00018500424188003121411F545D0D0D0E001
:1014000022741C9570F5701213DA741C9570F570C7
:1014100022C0E0C0F0C0D0054DE54DB41D16E54C2E
:10142000B40267E54E75F00484E5F0605D054C7527
:101430004D018056B41E0CE54CB4024E054C754D62
:10144000018047B41F2AE54CB40407054C754D01D3
:101450008038B40607054C754D01802EB409070588
:101460004C754D018024B40B21054C754D01801A3B
:10147000B42017054C754D01E54CB40D0D054E75A6
:101480004C01E54EB46403754E00D0D0D0F0D0E0EE
:1014900022C0E0C0F0C0D0D54D58D54C19E54E6003
:1014A0000A154E754C0C754D1F8047754E63754C73
:1014B0000C754D1F803CE54CB40214E54E75F004EC
:1014C00084E5F06005754D1C8028754D1D8023B4A2
:1014D0000405754D1E801BB40605754D1E8013B4A2
:1014E0000905754D1E800BB40B05754D1E800375E7
:1014F0004D1FD0D0D0F0D0E022301B0C758B007582
:101500008DE0D2ABD28EC29122C00078FFD8FED03F
:101510000022C000C001780879FFD9FE79FFD8FA0F
:10152000D001D00022C000C00178FF79FFD9FE7938
:08153000FFD8FAD001D000221F
:00000001FF
