:07000000020100120B7F3228
:04000B0012040C329D
:04001300120BB132E9
:04001B001204BD32DC
:060023001204D3C2983262
:06002B00C2CF12082D32C5
:1001000075817F7D0C7F90757B0175783B757F01D4
:10011000757D01757C01C292D29375770175760267
:10012000757503757108308507757E01D296800557
:10013000757E02C296120B137533FF753400753548
:100140000175360A75370375380175390A753A0134
:10015000753B091209A7753E00753F007540007593
:1001600041001208A1754300854344755F01C20137
:10017000C202C203C208C209C20AC20BC20CC21028
:10018000D2B2D2B3D2B67545007546007547007538
:100190004C01754D1F754E14850057850F587559C4
:1001A000FF755AFFC218755B00755C05755E01E549
:1001B0005E255EF562856261C3D2AFD2A9C2A8D2C4
:1001C00088C2AAD28AD2AD75C80475CBFF75CA00A1
:1001D000758906758AC4758CC4D28C75B8227598D9
:1001E000008000E57FB4010512022B8016B40205E1
:1001F00012028C800EB403051202CA8006B40403F6
:100200001202FDB4050312031BE57EB401051203BF
:10021000DA8016B402051203F5800EB4030512034A
:10022000FC8006B4040312040380B8E54C75F00AA0
:1002300084F54F85F050E54D75F00A84F55185F051
:1002400052E54E75F00A84F55385F0547945120B4A
:10025000EAE54675F00A84F54A85F04B7533FF856B
:100260004F3485503585513785523885533A8554FA
:100270003B854A40854B41757B011205FEE57BB409
:100280000303120651B4020312067622E57DB4017F
:100290000512033C801EB402051203578016B403F6
:1002A00005120372800EB4040512038D8006B40596
:1002B000031203977945120BEAE57AB4000B120C8E
:1002C00023120C9CC20B12064122795B120BEAE549
:1002D0005C75F00A84F54A85F04B854A40854B41B0
:1002E000757B031205FEE57BB401031206DFB4043F
:1002F000031206A0E57AB400031206DF22E57CB4FF
:1003000001051203B28006B402031203BCE57AB4FD
:1003100000031206CC795B120BEA22E577B40105E3
:100320001203D7800EB402051203D88006B403036B
:100330001203D9E57AB400031206E922E54C75F000
:100340000A84F54F85F050854F348550351205E10C
:1003500030100312078422E54D75F00A84F55185AB
:10036000F0528551378552381205E13010031207DB
:100370009522E54E75F00A84F55385F05485533A7D
:1003800085543B1205E13010031207A6221205E145
:100390003010031207BC22E54675F00A84F54A8541
:1003A000F04B854A40854B411205E130100312069F
:1003B00041221205E13010031207D022E55C75F0EE
:1003C0000A84F54A85F04B854A40854B411205E188
:1003D0003010031206CC22222222308514E55BB5B0
:1003E0004512E55CB5460D7400B5470812074C8010
:1003F000031207462230850312074022208503128C
:1004000007552220850512076C800022C0E0C0D06D
:10041000C006E579B407140543E543B43C037543CE
:1004200000E547B54305120B13C202E579B4022873
:100430000543E543B43C0375430030021B20030C25
:10044000E547B54313120B13C202800C741EB5436B
:1004500007120B4DC202C203E579B4050CD5610940
:10046000856261D54303120775E579B4040CE54252
:10047000B4020575420080020542D55F3985605F90
:10048000E57FB401028002157AE57EB40302B291E1
:100490000547AE47BE3C1F754700E57FB402030227
:1004A00004B60546AE46BE3C0D7546000545AE4554
:1004B000BE1803754500D006D0D0D0E022758B0061
:1004C000758D003093067572140204D2D572031232
:1004D00007E422C0E0C000C003C004E599AB76BBCE
:1004E000010D7C006273D574038575760205D8BB57
:1004F0000209B424037576030205D8BB030EB44782
:1005000008F5737576040205D80205D2BB040EB453
:10051000500862737576050205D80205D2BB050E38
:10052000B4520862737576060205D80205D2BB067E
:100530000EB44D0862737576070205D80205D2BB6A
:100540000714B4430E6273757401757508757601EE
:100550000205D80205D2BB081962730C540FA871AA
:10056000F60571BC06097574057575097576010285
:1005700005D8BB0914B4410E627375742675750CE9
:100580007576010205D80205D2BB0C1962730C54B2
:100590000FA871F60571BC063F75740475750D756D
:1005A00076010205D8BB0D09B42A2D75760E020519
:1005B000D8BB0E1E0C120CC1BC0106C4F5140205FA
:1005C000D84514F514B5730AD297120CD31206E964
:1005D0008006757602757108D004D003D000D0E093
:1005E0002230B602C20A200A1420B6117A147BFF08
:1005F00020B60ADBFB7BFFDAF7D20AD2102230B634
:1006000002C20A200A3A20B6377AFF7BFF20B630B2
:10061000DBFB7BFFBAE119E57EB4030612075F023C
:10062000063EE57FB40106757B03020630757B014B
:10063000DADBB40106757B0202063E757B04D20A42
:1006400022C2A8C2AAC210754700120B13757F01FF
:100650002275780A85787A7533FF7534FF7535FF12
:1006600075360C75370D75380E75390F753A11756D
:100670003B11757F032275783C85787AC20CC28B5A
:10068000C289D2A8D2AA757D01C2107557FC7558CF
:10069000FF75550C755601784C120B60757F022260
:1006A00075780A85787AC28BC289D2A8D2AA757C5D
:1006B00001C20CC20BC2107557FF7558CF75551784
:1006C000755600785B120B60757F042275780A8579
:1006D000787AC210C2A8C2AA120B6A757F0322756B
:1006E000360A75390A757F0122C292C28EC2AB7575
:1006F0009800C21875B822120B13757F0122757805
:100700007885787AD2187599003099FDC2997599D3
:10071000FF3099FDC2997599023099FDC299D2B501
:10072000C2B5120B3AD2AB758916758B00758D0068
:10073000D28E757214C297D292757701757F052299
:10074000D296757E0122C296757E0222C291120B4C
:1007500023757E0322D291C296D202757E0222D2E6
:1007600091856261D202D203757E0422C296120B79
:100770006A757E0222C291120B23757E0322D296E5
:10078000757E0122C2107557E77558FF120C237849
:100790004D757D0222C21075573F7558FF120C9C93
:1007A000784E757D0322C2107557FF7558CFC20B66
:1007B0007555177556007845757D0422C21075571A
:1007C000FF75583F75553B7556007846757D052277
:1007D000C2107557FF75583F75553B755600785CCC
:1007E000757C022275787885787A75B810C28EC2C9
:1007F000AB758926758DFDD28E759850D2AC75710A
:10080000087576027577022275783C85787AC292EF
:10081000C28EC2AB759800C21875B822C28BC2894D
:10082000D2A8D2AAC20C120B6075770322120A3723
:100830002018031208A8DD0812087A1208417D0C5E
:1008400022C0E0E579B40606120859020856755927
:10085000FF755AFFC20CD0E022DF1E7F90B2847574
:10086000431E20840C200C0985575985585A0208CC
:10087000797559FF755AFFC20C22C001C0E0C0D083
:10088000C3A93D053DE53C47555A75A000F5A0E5D7
:100890003C33F53C5004C31208A1D0D0D0E0D001C5
:1008A00022753C10753D3E22C001C0E0C0D0A93287
:1008B00005328530993099FDC299E5315559F59940
:1008C0003099FDC299B700087599FC3099FDC2991D
:1008D000B701087599603099FDC299B702087599FA
:1008E000DA3099FDC299B703087599F23099FDC2C3
:1008F00099B704087599663099FDC299B7050875CE
:1009000099B63099FDC299B706087599BE3099FD20
:10091000C299B707087599E03099FDC299B70808E0
:100920007599FE3099FDC299B709087599E6309915
:10093000FDC299B70A087599023099FDC299B70BA3
:10094000087599013099FDC299B7FF087599003073
:1009500099FDC299B70C087599EE3099FDC299B707
:100960000D0875991C3099FDC299B70E087599FA52
:100970003099FDC299B70F0875990A3099FDC2994F
:10098000B7110875992A3099FDC299D2B5C2B5E55B
:100990003033F530E53133F531C3B93C031209A7E3
:1009A000D0D0D0E0D001227530807531007532335F
:1009B00022C003C0E0C0D0AB42E543B40016E579E5
:1009C000B402028012E543C284C280C281C282C2E4
:1009D00083020A30B40106120AB5020A30DC05129D
:1009E0000A7E804CBB0016200009D281C28275426B
:1009F00002803DD281C283C28005428033BB011593
:100A000020000AD282C283C28015428023D282C2D1
:100A1000810542801BBB021820000AD283D280C20B
:100A2000811542800BD283D280C282754200800041
:100A3000D0D0D0E0D00322C0E0C0D0E579B4010628
:100A4000120ACA020A79B40206120AD1020A79B459
:100A50000306120AD5020A79B40406120AD6020A5B
:100A600079B40506120B07020A79B40606120B0BBD
:100A7000020A79B40703120B0FD0D0D0E022B200E3
:100A8000C3741E95432000175007C3743C9543F56B
:100A900044AC44AB420BBB03027B008B428015503D
:100AA00004AC448005AC43854344AB421BBBFF020E
:100AB0007B028B4222754200AC43854344D280C204
:100AC00081C282C283D284D200228547431209B1F7
:100AD000221209B12222C0E0E542B4000BD280D23A
:100AE00083C281C282020B04B4010BD281C280C2D4
:100AF00083C282020B04B4020BD282C281C280C2C2
:100B000083020B04D0E0221209B1221209B1221291
:100B100009B122758AC4758CC4755F017560017551
:100B2000790122754300758AFF758CFF755F3C75EE
:100B3000603C7579022275790322758AFF758CFFF6
:100B4000755F3C75603C120AB575790422758AC4DC
:100B5000758CC4755F0175600175431E757905223A
:100B600030850312077E75790622754300D202751F
:100B70008AFE758CFE755F1E75601E75790722C032
:100B8000E0C0D0C330B307D208C209020BA52008C9
:100B90001406D20C85787A7559FF755AFFD2083041
:100BA0000B03060606E555965002A656D0D0D0E0B7
:100BB00022C0E0C0D0C330B207D209C208020BD7AE
:100BC00020091416D20C85787A7559FF755AFFD210
:100BD00009300B03161616E695565002A655E55534
:100BE000965002A655D0D0D0E022C0E0C0D0C0F0D0
:100BF000E7308617B40004740C8010B40C04D2954E
:100C0000800B940C4004D2958003E7C29575F00ADE
:100C100084F54885F04985483E85493FD0F0D0D0DD
:100C2000D0E022AA4C755601BA010675551F020C78
:100C30009BBA020675551D020C91BA030675551F25
:100C4000020C9BBA040675551E020C91BA05067576
:100C5000551F020C9BBA060675551E020C91BA0769
:100C60000675551F020C9BBA080675551F020C9B92
:100C7000BA090675551E020C91BA0A0675551F026F
:100C80000C9BBA0B0675551E020C9175551F020C74
:100C90009BE555C3954D500385554D2275560075FE
:100CA0005563AA4CBA0219AA4DBA1D14D20B755538
:100CB00060E54E75F00484E5F06005154E1480F98A
:100CC00022C000F8C394395006E8540F020CD0E853
:100CD000D00022C0F0C0D075F00AE50CA4250DF5B7
:100CE0004775F00AE50AA4250BF54675F00AE508F4
:100CF000A42509F54575F00AE50EA4250FF54D75F7
:100D0000F00AE510A42511F54C75F00AE512A425AA
:100D100013F54ED0D0D0F022C00078FFD8FED0001E
:100D200022C000C001780879FFD9FE79FFD8FAD037
:100D300001D00022C000C00178FF79FFD9FE79FF01
:070D4000D8FAD001D0002217
:00000001FF
