:0700000002010012096B323E
:04000B001203D032DA
:0400130012099D32FF
:06002B00C2CF12061F32D5
:1001000075817F7D0C7F90757B0175783B757F01D4
:10011000757D01757C01308507757E01D29680055D
:10012000757E02C29612090B7533FF753400753562
:100130000175360A75370375380175390A753A0144
:10014000753B09120796753E00753F0075400075B6
:100150004100120690754300854344755F01C2015A
:10016000C202C203C208C209C20AC20BC20CC21038
:10017000D2B2D2B3D2B67545007546007547007548
:100180004C01754D1F754E14850057850F587559D4
:10019000FF755AFF755B00755C05755E01E55E25B0
:1001A0005EF562856261C3D2AFD2A9C2A8D288C20D
:1001B000AAD28AD2AD75C80475CBFF75CA007589FD
:1001C00006758AC4758CC4D28C75B8227598008067
:1001D00000E57FB401051202138016B40205120275
:1001E00074800EB403051202B28006B40403120236
:1001F000E5E57EB401051203798016B40205120309
:1002000094800EB4030512039B8006B4040312030A
:10021000A280BEE54C75F00A84F54F85F050E54D9F
:1002200075F00A84F55185F052E54E75F00A84F5B3
:100230005385F05479451209D6E54675F00A84F5E0
:100240004A85F04B7533FF854F34855035855137DE
:1002500085523885533A85543B854A40854B4175D4
:100260007B0112048DE57BB403031204E0B40203A6
:1002700012050522E57DB40105120303801EB402B8
:100280000512031E8016B40305120339800EB40450
:10029000051203548006B4050312035E7945120962
:1002A000D6E57AB4000B120A0F120A88C20B1204A8
:1002B000D022795B1209D6E55C75F00A84F54A858F
:1002C000F04B854A40854B41757B0312048DE57BDD
:1002D000B4010312056EB4040312052FE57AB400CD
:1002E0000312056E22E57CB401051203AB8006B44F
:1002F00002031203B5E57AB4000312055B795B12C1
:1003000009D622E54C75F00A84F54F85F050854FEB
:10031000348550351204703010031205BD22E54DAE
:1003200075F00A84F55185F052855137855238129F
:1003300004703010031205CE22E54E75F00A84F5E4
:100340005385F05485533A85543B120470301003A2
:100350001205DF221204703010031205F522E54663
:1003600075F00A84F54A85F04B854A40854B411269
:1003700004703010031204D022308514E55BB545BB
:1003800012E55CB5460D7400B5470812058580037B
:1003900012057F223085031205792220850312057C
:1003A0008E222085051205A58000221204703010CF
:1003B0000312060922E55C75F00A84F54A85F04BC4
:1003C000854A40854B4112047030100312055B22B0
:1003D000C0E0C0D0C006E579B407140543E543B4D6
:1003E0003C03754300E547B5430512090BC202E51E
:1003F00079B402280543E543B43C03754300300259
:100400001B20030CE547B5431312090BC202800CF5
:10041000741EB54307120939C202C203E579B40557
:100420000CD56109856261D543031205AED55F39EC
:1004300085605FE57FB401028002157AE57EB40332
:1004400002B2910547AE47BE3C1F754700E57FB439
:1004500002030204690546AE46BE3C0D7546000522
:1004600045AE45BE1803754500D006D0D0D0E02279
:1004700030B602C20A200A1420B6117A147BFF207B
:10048000B60ADBFB7BFFDAF7D20AD2102230B602C3
:10049000C20A200A3A20B6377AFF7BFF20B630DB4B
:1004A000FB7BFFBAE119E57EB4030612059802044E
:1004B000CDE57FB40106757B030204BF757B01DACD
:1004C000DBB40106757B020204CD757B04D20A22DF
:1004D000C2A8C2AAC21075470012090B757F01227B
:1004E00075780A85787A7533FF7534FF7535FF7531
:1004F000360C75370D75380E75390F753A11753B19
:1005000011757F032275783B85787AC20CC28BC245
:1005100089D2A8D2AA757D01C2107557FC7558FF03
:1005200075550C755601784C12094C757F02227571
:10053000780A85787AC28BC289D2A8D2AA757C0142
:10054000C20CC20BC2107557FF7558CF7555177581
:100550005600785B12094C757F042275780A8578FD
:100560007AC210C2A8C2AA120956757F0322753634
:100570000A75390A757F012222D296757E0122C240
:1005800096757E0222C29112091B757E0322D291BA
:10059000C296D202757E0222D291856261D202D2C7
:1005A00003757E0422C296120956757E0222C291FC
:1005B00012091B757E0322D296757E0122C2107528
:1005C00057E77558FF120A0F784D757D0222C21049
:1005D00075573F7558FF120A88784E757D0322C201
:1005E000107557FF7558CFC20B75551775560078A3
:1005F00045757D0422C2107557FF75583F75553BF0
:100600007556007846757D0522C2107557FF7558DE
:100610003F75553B755600785C757C02222222128C
:100620000826120697DD081206691206307D0C2294
:10063000C0E0E579B406061206480206457559FF82
:10064000755AFFC20CD0E022DF1E7F90B284754342
:100650001E20840C200C0985575985585A020668BB
:100660007559FF755AFFC20C22C001C0E0C0D0C34B
:10067000A93D053DE53C47555A75A000F5A0E53C70
:1006800033F53C5004C3120690D0D0D0E0D0012204
:10069000753C10753D3E22C001C0E0C0D0A93205B6
:1006A000328530993099FDC299E5315559F5993027
:1006B00099FDC299B700087599FC3099FDC299B7A8
:1006C00001087599603099FDC299B702087599DAE9
:1006D0003099FDC299B703087599F23099FDC29916
:1006E000B704087599663099FDC299B705087599E0
:1006F000B63099FDC299B706087599BE3099FDC20A
:1007000099B707087599E03099FDC299B70808753F
:1007100099FE3099FDC299B709087599E63099FD9F
:10072000C299B70A087599023099FDC299B70B08AA
:100730007599013099FDC299B7FF087599003099F4
:10074000FDC299B70C087599EE3099FDC299B70DA5
:100750000875991C3099FDC299B70E087599FA3041
:1007600099FDC299B70F0875990A3099FDC299B7DA
:10077000110875992A3099FDC299D2B5C2B5E530F4
:1007800033F530E53133F531C3B93C03120796D068
:10079000D0D0E0D00122753080753100753233221F
:1007A000C003C0E0C0D0AB42E543B40016E579B465
:1007B00002028012E543C284C280C281C282C28327
:1007C00002081FB401061208A402081FDC05120863
:1007D0006D804CBB0016200009D281C28275420296
:1007E000803DD281C283C28005428033BB01152087
:1007F000000AD282C283C28015428023D282C28183
:100800000542801BBB021820000AD283D280C2811D
:100810001542800BD283D280C2827542008000D004
:10082000D0D0E0D00322C0E0C0D0E579B4010612F8
:1008300008B9020868B402061208C0020868B403C6
:10084000061208C4020868B404061208C502086843
:10085000B405061208FF020868B40606120903026E
:100860000868B40703120907D0D0D0E022B200C351
:10087000741E95432000175007C3743C9543F544FC
:10088000AC44AB420BBB03027B008B42801550048F
:10089000AC448005AC43854344AB421BBBFF027BA9
:1008A000028B4222754200AC43854344D280C28110
:1008B000C282C283D284D200228547431207A0227B
:1008C0001207A02222C0E0D297E542B4000DD280E8
:1008D000D283C281C28205420208FCB4010DD281DA
:1008E000C280C283C28205420208FCB4020ED282D8
:1008F000C281C280C2837542000208FCD0E022128D
:1009000007A0221207A0221207A022758AC4758CA4
:10091000C4755F0175600175790122754300758AA0
:10092000FF758CFF755F3C75603C757902227579A7
:1009300003221208A475790422758AC4758CC475C3
:100940005F0175600175431E7579052230850312BC
:1009500005B775790622754300D202758AFE758C3B
:10096000FE755F1E75601E75790722C0E0C0D0C39A
:1009700030B307D208C20902099120081406D20C2C
:1009800085787A7559FF755AFFD208300B03060631
:1009900006E555965002A656D0D0D0E022C0E0C061
:1009A000D0C330B207D209C2080209C32009141605
:1009B000D20C85787A7559FF755AFFD209300B032E
:1009C000161616E695565002A655E555965002A6FF
:1009D00055D0D0D0E022C0E0C0D0C0F0E7308617BC
:1009E000B40004740C8010B40C04D295800B940CE9
:1009F0004004D2958003E7C29575F00A84F54885D6
:100A0000F04985483E85493FD0F0D0D0D0E022AAB9
:100A10004C755601BA010675551F020A87BA0206BF
:100A200075551D020A7DBA030675551F020A87BA5D
:100A3000040675551E020A7DBA050675551F020A81
:100A400087BA060675551E020A7DBA070675551F38
:100A5000020A87BA080675551F020A87BA09067581
:100A6000551E020A7DBA0A0675551F020A87BA0B7F
:100A70000675551E020A7D75551F020A87E555C386
:100A8000954D500385554D22755600755563AA4CFA
:100A9000BA0219AA4DBA1D14D20B755560E54E75F0
:100AA000F00484E5F06005154E1480F922C000784A
:100AB000FFD8FED00022C000C001780879FFD9FE1F
:100AC00079FFD8FAD001D00022C000C00178FF79A8
:0C0AD000FFD9FE79FFD8FAD001D0002237
:00000001FF
