:07000000020100120F703233
:04000B001206C132E6
:04001300120FA232F4
:04001B0012077F3217
:06002300C2981207A03292
:06002B00C2CF120BC2322D
:1001000075817F7D0C7F90757B0175783B757F01D4
:10011000757D01757C01756C01D2B7D219C290C290
:1001200092D293C220C2217577017576027575034C
:1001300075710875700E756F20756D00756E0130E4
:100140008507757E01D2968005757E02C296120FD4
:10015000047533FF75340075350175360A7537033C
:1001600075380175390A753A02753B09120D987593
:100170003E00753F00754000754100120C3A754312
:1001800000854344755F01C201C202C203C208C2B6
:1001900009C20AC20BC20CC210C211D2B2D2B3D26F
:1001A000B6754500754600754700754C01754D1FC5
:1001B000754E14850057850F587559FF755AFFC243
:1001C00018755B00755C05755E01E55E255EF56280
:1001D000856261C3D2AFD2A9C2A8D288C2AAD28A8C
:1001E000D2AD75C80475CBFF75CA00758906758ACE
:1001F000C4758CC4D28C75B822759800120A2580FB
:1002000000E57FB401051202538026B402051202F4
:10021000E3801EB403051203218016B40405120303
:1002200054800EB4060512038B8006B40503120336
:1002300072E57EB401051206858016B40205120629
:10024000AA800EB403051206B18006B40403120698
:10025000B880AEE54C75F00A84F54F85F050E54D59
:1002600075F00A84F55185F052E54E75F00A84F573
:100270005385F0547945120FDBE54675F00A84F595
:100280004A85F04B7533FF854F348550358551379E
:1002900085523885533A85543B854A40854B4130D9
:1002A0002020E57EB403028019B404028014E56DB9
:1002B000B5450FE56EB5460A7402B54705120A2525
:1002C00080201209073010061209E90202E2757B4C
:1002D000011208C4E57BB40303120939B402031206
:1002E000096022E57DB401051203D6801EB4020523
:1002F0001203F18016B4030512040C800EB4040539
:100300001204278006B405031204317945120FDB6D
:10031000E57AB4000B12101412108DC20B120926CC
:1003200022795B120FDBE55C75F00A84F54A85F0F3
:100330004B854A40854B41757B031208C4E57BB46D
:1003400001031209C7B4040312098CE57AB400034F
:100350001209C722E57CB4010512044C8006B402E0
:1003600003120456E57AB400031209B6795B120F42
:10037000DB22E577B401051205AE800EB40205124A
:1003800005E68006B4030312062B22E56CB40105D2
:10039000120471801EB402051204B88016B403055D
:1003A0001204FA800EB40B0512053F8006B40C034C
:1003B000120599E57AB4001D757901E56CB40B0658
:1003C0001211100203D2B40C09E55E255EF56285B8
:1003D00062611209D622E54C75F00A84F54F85F06A
:1003E00050854F348550351208A5301003120AB0DD
:1003F00022E54D75F00A84F55185F0528551378517
:1004000052381208A5301003120ABF22E54E75F0CB
:100410000A84F55385F05485533A85543B1208A558
:10042000301003120ACE221208A5301003120AE27D
:1004300022E54675F00A84F54A85F04B854A4085E9
:100440004B411208A5301003120926221208A530CC
:100450001003120AF422E55C75F00A84F54A85F06F
:100460004B854A40854B411208A53010031209B64E
:10047000227533FF7534127535137536147537FFD1
:10048000753816753917753A11753B187945120F7D
:10049000DBE54675F00A84F54A85F04B854A4085D0
:1004A0004B411208A5301006120B6B0204B712095B
:1004B000073010031209D6227533FF7534FF7535E6
:1004C000FF753615753711753817753917753A1662
:1004D000753B18E55E75F00A84F54085F041753E80
:1004E0000A753F0A1208A5301006120B950204F98E
:1004F0001209073010031209D6227533FF7534FF35
:1005000075351975360E7537137538187539FF75C9
:100510003A17753B112019067541000205217541F6
:1005200001753E0A753F0A75400A1208A53010058C
:10053000B21902053E1209073010031209D622E54E
:100540004675F00A84F54A85F04BE570C3940E5069
:100550000A75390AC3740E957080037539FF75F0FA
:100560000A84F53A85F03B854A40854B41E5702584
:1005700045C3940E500424188007C39418500224D5
:100580001875F00A84F53E85F03F1208A530100872
:10059000D221121110120B8622E55E75F00A84F545
:1005A0004085F0411208A5301003120BAA22E5463F
:1005B00075F00A84F54A85F04B854A40854B411217
:1005C00008A530101030200D302105120A0A8015C0
:1005D000120B2A8010E57AB4000B302105120A0AAA
:1005E0008003120B2A22E54675F00A84F54A85F04D
:1005F0004B854A40854B411208A530100D3021052E
:10060000120A0A8025120B2A802030970D2021051E
:10061000120B2A8015120A0A8010E57AB4000B30FA
:100620002105120A0A8003120B2A22E54675F00AF8
:1006300084F54A85F04BE570C3940E500A75390A6B
:10064000C3740E957080037539FF75F00A84F53A0E
:1006500085F03B854A40854B41E5702545C3940EA6
:10066000500424188007C394185002241875F00A07
:1006700084F53E85F03F1208A5301008D2211211F2
:1006800010120A0A2230851EE55BB5451CE55CB5F3
:1006900046177400B54712E57FB40505120A0AC271
:1006A00002120A788003120A7222308503120A6C41
:1006B00022208503120A8122208505120A988000D3
:1006C00022C0E0C0D0C006E579B407140543E54375
:1006D000B43C03754300E547B54305120F04C2025D
:1006E000E579B402280543E543B43C037543003083
:1006F000021B20030CE547B54313120F04C202800E
:100700000C741EB54307120F3EC202C203E579B452
:10071000050CD56109856261D54303120AA1E5790B
:10072000B4040CE542B4020575420080020542D5CE
:100730005F4685605FE57FB40102800CB40507E584
:1007400077B403028002157AE57EB40302B2910504
:1007500047AE47BE3C22754700E57FB4020302075F
:10076000780546AE46BE3C107546000545AE45BE12
:100770001806754500121147D006D0D0D0E022757A
:100780008B00758D0030930C757214D56F11120AA1
:100790000A02079FD220756F20D57203120B062222
:1007A000C0E0C001C003E599AB76BB010D7E0062DD
:1007B00073D5740385757602089EBB0209B42403C1
:1007C00075760302089EBB030EB44708F573757671
:1007D0000402089E020898BB040EB45008627375A8
:1007E000760502089E020898BB050EB45208627393
:1007F00075760602089E020898BB060EB44D086284
:100800007375760702089E020898BB0714B4430E5E
:10081000627375740175750875760102089E020889
:1008200098BB081962730E540FA971F70571BE06C3
:100830000975740575750975760102089EBB091462
:10084000B4410E627375742675750C7576010208D5
:100850009E020898BB0C1962730E540FA971F7051C
:1008600071BE063A75740475750D75760102089EA1
:10087000BB0D09B42A2275760E02089EBB0E190E16
:100880001210B2BE0106C4F51402089E4514F514F8
:10089000B57305D2971210C8757602757108D0032A
:1008A000D001D0E022C21030B602C20A200A1420C1
:1008B000B6117A147BFF20B60ADBFB7BFFDAF7D296
:1008C0000AD2102230B602C20A200A3A20B6377A7B
:1008D000FF7BFF20B630DBFB7BFFBAE119E57EB47E
:1008E0000306120A8B020904E57FB40106757B0337
:1008F0000208F6757B01DADBB40106757B0202099A
:1009000004757B04D20A22C21030B702C211201132
:100910001420B7117A147BFF20B70ADBFB7BFFDAC8
:10092000F7D211D21022C2A8C2AA7547002019021C
:10093000D290120F04757F012275780A85787A7536
:1009400033FF7534FF7535FF75360C75370D753807
:100950000E75390F753A11753B11C290757F0322E0
:1009600075783C85787AC20CC297C28BC289D2A8AE
:10097000D2AA757D017557FC7558FF75550C7556D3
:1009800001784CC290120F51757F022275780A854A
:10099000787AC28BC289D2A8D2AA757C01C20CC255
:1009A0000B7557FF7558CF755517755600785B1244
:1009B0000F51757F042275780A85787AC2A8C2AA79
:1009C000120F5B757F032275360A75390A201902EA
:1009D000D290757F012275360A75390AC2A8C2AA5B
:1009E000201902D290757F012275783C85787AC2F1
:1009F0008BC289D2A8D2AA756C01C20C7555037539
:100A00005601786CC290757F0622C292C28EC2AB2C
:100A100075980075360A75390AC21875B822120F12
:100A20005B757F01227578FF85787AD218759900F9
:100A30003099FDC2997599FF3099FDC29975990257
:100A40003099FDC299D2B5C2B5120F2BD2AB7589C0
:100A500016758B00758D00D28E757214C297D29266
:100A6000201902D290757701757F0522D296757E86
:100A70000122C296757E0222C291120F14757E0366
:100A800022D291C296D202757E0222D291856261F3
:100A9000D202D203757E0422C296120F5B757E02CB
:100AA00022C291120F14757E0322D296757E012206
:100AB0007557E77558FF121014784D757D02227531
:100AC000573F7558FF12108D784E757D032275576C
:100AD000FF7558CFC20B7555177556007845757D53
:100AE00004227557FF75583F75553B75560078467B
:100AF000757D05227557FF75583F75553B75560036
:100B0000785C757C022275787885787A75B810C221
:100B10008EC2AB758926758DFDD28E759850D2AC7C
:100B200075710875760275770222C292C28EC2ABC9
:100B3000C2AC75980075571F7558FF7533FF753433
:100B4000127535137536147537FF7538FF75551CDA
:100B50007556037870C21875B822C28BC289D2A8A4
:100B6000D2AAC20C120F517577032275571F755800
:100B7000FF7538FF75551C755603787012113712C2
:100B80000F51756C0B22756C01120F0475550375AE
:100B90005601786C227557FF75583F75555A755632
:100BA00001785E120F51756C0C22E55E255EF562D0
:100BB000856261756C02120F0475550375560178D4
:100BC0006C22C0D0120E28201803120C41DD08122E
:100BD0000C13120BDA7D0CD0D022C0E0E579B406FC
:100BE00006120BF2020BEF7559FF755AFFC20CD0BB
:100BF000E022DF1E7F90B28475431E20840C200CFF
:100C00000985575985585A020C127559FF755AFFB4
:100C1000C20C22C001C0E0C0D0C3A93D053DE53CE7
:100C200047555A75A000F5A0E53C33F53C5004C388
:100C3000120C3AD0D0D0E0D00122753C10753D3E68
:100C400022C001C0E0C0D0A9320532853099309968
:100C5000FDC299E5315559F5993099FDC299B70012
:100C6000087599FC3099FDC299B7010875996030F3
:100C700099FDC299B702087599DA3099FDC299B702
:100C800003087599F23099FDC299B7040875996601
:100C90003099FDC299B705087599B63099FDC2998A
:100CA000B706087599BE3099FDC299B707087599BE
:100CB000E03099FDC299B708087599FE3099FDC2D8
:100CC00099B709087599E63099FDC299B70A087570
:100CD00099023099FDC299B70B087599013099FDB9
:100CE000C299B7FF087599003099FDC299B70C08F1
:100CF0007599EE3099FDC299B70D0875991C309918
:100D0000FDC299B70E087599FA3099FDC299B70FCF
:100D10000875990A3099FDC299B7110875992A305A
:100D200099FDC299B7120875997C3099FDC299B79F
:100D3000130875991E3099FDC299B7140875991A50
:100D40003099FDC299B715087599B63099FDC299C9
:100D5000B716087599DA3099FDC299B717087599D1
:100D60003A3099FDC299B718087599DE3099FDC2DD
:100D700099B7190875997A3099FDC299D2B5C2B55B
:100D8000E53033F530E53133F531C3B93C03120DAD
:100D900098D0D0D0E0D00122753080753100753206
:100DA0003322C003C0E0C0D0AB42E543B40016E537
:100DB00079B402028012E543C284C280C281C28239
:100DC000C283020E21B40106120EA6020E21DC051A
:100DD000120E6F804CBB0016200009D281C28275B2
:100DE0004202803DD281C283C28005428033BB0172
:100DF0001520000AD282C283C28015428023D2828B
:100E0000C2810542801BBB021820000AD283D28017
:100E1000C2811542800BD283D280C282754200808B
:100E200000D0D0D0E0D00322C0E0C0D0E579B4013A
:100E300006120EBB020E6AB40206120EC2020E6A3F
:100E4000B40306120EC6020E6AB40406120EC702DE
:100E50000E6AB40506120EF8020E6AB40606120EE9
:100E6000FC020E6AB40703120F00D0D0D0E022B209
:100E700000C3741E95432000175007C3743C95436C
:100E8000F544AC44AB420BBB03027B008B428015A4
:100E90005004AC448005AC43854344AB421BBBFFCC
:100EA000027B028B4222754200AC43854344D280D0
:100EB000C281C282C283D284D20022854743120DEE
:100EC000A222120DA22222C0E0E542B4000BD28081
:100ED000D283C281C282020EF5B4010BD281C280DC
:100EE000C283C282020EF5B4020BD282C281C280DA
:100EF000C283020EF5D0E022120DA222120DA22210
:100F0000120DA222758AC4758CC4755F01756001CB
:100F100075790122754300758AFF758CFF755F3CFA
:100F200075603C7579022275790322758AFF758C8C
:100F3000FF755F3C75603C120EA675790422758AB8
:100F4000C4758CC4755F0175600175431E757905A4
:100F500022308503120AAA75790622754300D2024F
:100F6000758AFE758CFE755F1E75601E7579072289
:100F7000C0E0C0D0C330B307D208C209020F962028
:100F8000081406D20C85787A7559FF755AFFD20875
:100F9000300B03060606E555965002A656D0D0D073
:100FA000E022C0E0C0D0C330B207D209C208020FAD
:100FB000C820091416D20C85787A7559FF755AFF26
:100FC000D209300B03161616E695565002A655E5C3
:100FD00055965002A655D0D0D0E022C0E0C0D0C077
:100FE000F0E7308617B40004740C8010B40C04D2FF
:100FF00095800B940C4004D2958003E7C29575F060
:101000000A84F54885F04985483E85493FD0F0D0AF
:10101000D0D0E022AA4C755601BA010675551F02C0
:10102000108CBA020675551D021082BA030675555A
:101030001F02108CBA040675551E021082BA0506EE
:1010400075551F02108CBA060675551E021082BA1D
:10105000070675551F02108CBA080675551F021039
:101060008CBA090675551E021082BA0A0675551FFC
:1010700002108CBA0B0675551E02108275551F02A0
:10108000108CE555C3954D500385554D227556007E
:10109000755563AA4CBA0219AA4DBA1D14D20B7524
:1010A0005560E54E75F00484E5F06005154E14803A
:1010B000F922C000C0D0F8C394395006E8540F029A
:1010C00010C3E8D0D0D00022C0F0C0D075F00AE53F
:1010D0000CA4250DF54775F00AE50AA4250BF54685
:1010E00075F00AE508A42509F54575F00AE50EA492
:1010F000250FF54D75F00AE510A42511F54C75F096
:101100000AE512A42513F54E121110D0D0D0F0220A
:10111000C0E0C0D0E5702545C3940E5007241812D6
:1011200011C7800CC394185004241880031211476F
:10113000F545D0D0D0E022741C9570F570121110D6
:10114000741C9570F57022C0E0C0F0C0D0054DE56C
:101150004DB41D16E54CB40267E54E75F00484E508
:10116000F0605D054C754D018056B41E0CE54CB425
:10117000024E054C754D018047B41F2AE54CB4045E
:1011800007054C754D018038B40607054C754D01B7
:10119000802EB40907054C754D018024B40B210540
:1011A0004C754D01801AB42017054C754D01E54C66
:1011B000B40D0D054E754C01E54EB46403754E003B
:1011C000D0D0D0F0D0E022C0E0C0F0C0D0D54D5893
:1011D000D54C19E54E600A154E754C0C754D1F80A7
:1011E00047754E63754C0C754D1F803CE54CB40241
:1011F00014E54E75F00484E5F06005754D1C8028FB
:10120000754D1D8023B40405754D1E801BB4060565
:10121000754D1E8013B40905754D1E800BB40B056A
:10122000754D1E8003754D1FD0D0D0F0D0E022C088
:101230000078FFD8FED00022C000C001780879FFF6
:10124000D9FE79FFD8FAD001D00022C000C00178C1
:0E125000FF79FFD9FE79FFD8FAD001D0002235
:00000001FF
