:070000000201001208FC32AE
:04000B001203D432D6
:0400130012092A3272
:06002B00C2CF1205DC3219
:100100007D0C7F90757B0175783B757F01757D0156
:10011000757C01308507757E01D2968005757E025B
:10012000C2961208B37533FF753400753501753604
:100130000A75370375380175390A753A01753B0937
:10014000120753753E00753F00754000754100125F
:10015000064D754300854344755F01C201C202C26A
:1001600008C209C20AC20BC20CC210D2B2D2B3D2A8
:10017000B6754500754600754700754C01754D1FF5
:10018000754E14850057850F587559FF755AFF75C0
:100190005B00755C05755D05755E01C3D2AFD2A9C4
:1001A000C2A8D288C2AAD28AD2AD75C80475CBFFC4
:1001B00075CA00758906758AC4758CC4D28C75B8E9
:1001C000227598008000E57FB401051202088016B0
:1001D000B40205120269800EB403051202A780065C
:1001E000B404031202DAE57EB4010512036E801630
:1001F000B40205120389800EB40305120390800631
:10020000B4040312039780BEE54C75F00A84F54FE1
:1002100085F050E54D75F00A84F55185F052E54EB4
:1002200075F00A84F55385F054794512095FE54667
:1002300075F00A84F54A85F04B7533FF854F348598
:10024000503585513785523885533A85543B854A18
:1002500040854B41757B0112044DE57BB4030312CD
:1002600004A0B402031204CA22E57DB401051202FF
:10027000F8801EB402051203138016B4030512039E
:100280002E800EB404051203498006B40503120340
:1002900053794512095FE547B57A0B120998120A9E
:1002A00011C20B12049022795B12095FE55C75F0B4
:1002B0000A84F54A85F04B854A40854B41757B039E
:1002C00012044DE57BB4010312053DB4040312048E
:1002D000F4E547B57A0312053D22E57CB401051229
:1002E00003AF8006B402031203B9E547B57A0312DF
:1002F0000520795B12095F22E54C75F00A84F54F01
:1003000085F050854F34855035120430301003127B
:10031000057C22E54D75F00A84F55185F052855132
:100320003785523812043030100312058D22E54E05
:1003300075F00A84F55385F05485533A85543B1281
:10034000043030100312059E2212043030100312C4
:1003500005B422E54675F00A84F54A85F04B854AD6
:1003600040854B4112043030100312049022308536
:1003700014E55BB54512E55CB5460D7400B547085C
:10038000120553800312054D2230850312054722C2
:100390002085031205592230850FE55DB5460F749F
:1003A00000B5470A120570800512056A8000221206
:1003B00004303010031205C822E55C75F00A84F59C
:1003C0004A85F04B854A40854B411204303010037A
:1003D00012052022C0E0C0D0C006E579B40217059E
:1003E0004330020AE547B543051208B3C202E543AC
:1003F000B43C03754300D55F3085605FE57EB40390
:1004000002B2910547AE47BE3C1F754700E57FB479
:1004100002030204290546AE46BE3C0D75460005A2
:1004200045AE45BE1803754500D006D0D0D0E022B9
:1004300030B602C20A200A1420B6117A287BFF20A7
:10044000B60ADBFB7BFFDAF7D20AD2102230B60203
:10045000C20A200A3A20B6377AFF7BFF20B630DB8B
:10046000FB7BFFBAE119E57EB403061205610204C5
:100470008DE57FB40106757B0302047F757B01DA8D
:10048000DBB40106757B0202048D757B04D20A225F
:10049000C2A8C2AAC2107547001208B3757F012214
:1004A000E54775F03C240A8485F07A7533FF75348E
:1004B000FF7535FF75360C75370D75380E75390FAC
:1004C000753A11753B11757F032275783B120A65E9
:1004D000C20CC28BC289D2A8D2AA757D01C2107586
:1004E00057FC7558FF75550C755601784C1208E588
:1004F000757F022275780A120A65C28BC289D2A85A
:10050000D2AA757C01C20CC20BC2107557FF755878
:10051000CF755517755600785B1208E5757F042274
:10052000E54775F03C240A8485F07AC210C2A8C25F
:10053000AAD2027543001208E9757F032275360AB4
:1005400075390A757F0122D296757E0122C2967591
:100550007E0222C291757E0322D291C296757E02DE
:1005600022D291120A79757E0422C296757E0222E9
:10057000C291757E0322D296757E0122C2107557F4
:10058000E77558FF120998784D757D0222C21075E3
:10059000573F7558FF120A11784E757D0322C2101D
:1005A0007557FF7558CFC20B7555177556007845AE
:1005B000757D0422C2107557FF75583F75553B7500
:1005C00056007846757D0522C2107557FF75583F55
:1005D00075553B755600785C757C02221207DA125D
:1005E0000654DD081206261205ED7D0C22C0E0E55A
:1005F00079B406061206050206027559FF755AFF00
:10060000C20CD0E022DF1E7F90B28475431E20848E
:100610000C200C0985575985585A0206257559FF33
:10062000755AFFC20C22C001C0E0C0D0C3A93D056D
:100630003DE53C47555A75A000F5A0E53C33F53C37
:100640005004C312064DD0D0D0E0D00122753C102A
:10065000753D3E22C001C0E0C0D0A93205328530D0
:10066000993099FDC299E5315559F5993099FDC2F6
:1006700099B700087599FC3099FDC299B7010875C2
:1006800099603099FDC299B702087599DA3099FDE1
:10069000C299B703087599F23099FDC299B7040859
:1006A0007599663099FDC299B705087599B6309964
:1006B000FDC299B706087599BE3099FDC299B70772
:1006C000087599E03099FDC299B708087599FE3010
:1006D00099FDC299B709087599E63099FDC299B795
:1006E0000A087599023099FDC299B70B08759901EE
:1006F0003099FDC299B7FF087599003099FDC299EC
:10070000B70C087599EE3099FDC299B70D08759927
:100710001C3099FDC299B70E087599FA3099FDC23F
:1007200099B70F0875990A3099FDC299B7110875E4
:10073000992A3099FDC299D2B5C2B5E53033F5306A
:10074000E53133F531C3B93C03120753D0D0D0E0C3
:10075000D0012275308075310075323322C003C05C
:10076000E0C0D0AB42E543B4000DC284C280C28178
:10077000C282C2830207D3B4010612084F0207D314
:10078000DC05120818804CBB0016200009D281C27B
:1007900082754202803DD281C283C280054280338D
:1007A000BB011520000AD282C283C2801542802379
:1007B000D282C2810542801BBB021820000AD2836C
:1007C000D280C2811542800BD283D280C282754210
:1007D000008000D0D0D0E0D00322C0E0C0D0E579C6
:1007E000B40106120864020813B4020612086B0270
:1007F0000813B4030612086F020813B404061208A3
:1008000070020813B405061208AA020813B40603FE
:100810001208ABD0D0D0E022B200C3741E954320A2
:1008200000175007C3743C9543F544AC44AB420BEE
:10083000BB03027B008B4280155004AC448005ACA6
:1008400043854344AB421BBBFF027B028B422275B4
:100850004200AC43854344D280C281C282C283D26B
:1008600084D2002285474312075D2212075D2222AF
:10087000C0E0D297E542B4000DD280D283C281C2DB
:100880008205420208A7B4010DD281C280C283C290
:100890008205420208A7B4020ED282C281C280C27F
:1008A000837542000208A7D0E0222212075D2212BF
:1008B000075D22758AC4758CC4755F01756001750A
:1008C000790122754300758AFF758CFF755F3C7551
:1008D000603C757902227579032212084F757904FC
:1008E000227579052275790622754300758AFE7591
:1008F0008CFE755F1E75601E75790222C0E0C330E4
:10090000B307D208C20902092020081406D20C122B
:100910000A657559FF755AFFD208300B03060606A3
:10092000E555965002A656D0E022C0E0C330B2078B
:10093000D209C20802094E20091416D20C120A6507
:100940007559FF755AFFD209300B03161616E69536
:10095000565002A655E555965002A655D0E022C045
:10096000E0C0D0C0F0E7308617B40004740C8010EB
:10097000B40C04D295800B940C4004D2958003E70C
:10098000C29575F00A84F54885F04985483E854949
:100990003FD0F0D0D0D0E022AA4C755601BA010663
:1009A00075551F020A10BA020675551D020A06BACD
:1009B000030675551F020A10BA040675551E020A71
:1009C00006BA050675551F020A10BA060675551EA9
:1009D000020A06BA070675551F020A10BA080675FC
:1009E000551F020A10BA090675551E020A06BA0AF0
:1009F0000675551F020A10BA0B0675551E020A0627
:100A000075551F020A10E555C3954D500385554D88
:100A100022755600755563AA4CBA0219AA4DBA1D23
:100A200014D20B755560E54E75F00484E5F0600551
:100A3000154E1480F922C00078FFD8FED00022C0E5
:100A400000C001780879FFD9FE79FFD8FAD001D02B
:100A50000022C000C00178FF79FFD9FE79FFD8FAE3
:100A6000D001D00022C0E0C0F0E54775F03C257809
:100A70008485F07AD0F0D0E022C0E0C0F0E5467581
:0D0A8000F03C255E8485F05DD0F0D0E022D2
:00000001FF
