:070000000201001209693240
:04000B001203D032DA
:0400130012099B3201
:06002B00C2CF12061D32D7
:1001000075817F7D0C7F90757B0175783B757F01D4
:10011000757D01757C01308507757E01D29680055D
:10012000757E02C2961209097533FF753400753564
:100130000175360A75370375380175390A753A0144
:10014000753B09120794753E00753F0075400075B8
:10015000410012068E754300854344755F01C2015C
:10016000C202C203C208C209C20AC20BC20CC21038
:10017000D2B2D2B3D2B67545007546007547007548
:100180004C01754D1F754E14850057850F587559D4
:10019000FF755AFF755B00755C05755E01E55E25B0
:1001A0005EF562856261C3D2AFD2A9C2A8D288C20D
:1001B000AAD28AD2AD75C80475CBFF75CA007589FD
:1001C00006758AC4758CC4D28C75B8227598008067
:1001D00000E57FB401051202138016B40205120275
:1001E00074800EB403051202B28006B40403120236
:1001F000E5E57EB401051203798016B40205120309
:1002000094800EB4030512039B8006B4040312030A
:10021000A280BEE54C75F00A84F54F85F050E54D9F
:1002200075F00A84F55185F052E54E75F00A84F5B3
:100230005385F05479451209D4E54675F00A84F5E2
:100240004A85F04B7533FF854F34855035855137DE
:1002500085523885533A85543B854A40854B4175D4
:100260007B01120484E57BB403031204D7B40203B8
:1002700012050122E57DB40105120303801EB402BC
:100280000512031E8016B40305120339800EB40450
:10029000051203548006B4050312035E7945120962
:1002A000D4E547B57A0B120A0D120A86C20B120466
:1002B000C722795B1209D4E55C75F00A84F54A859A
:1002C000F04B854A40854B41757B03120484E57BE6
:1002D000B4010312056FB4040312052BE547B57A88
:1002E0000312056F22E57CB401051203AB8006B44E
:1002F00002031203B5E547B57A03120557795B127D
:1003000009D422E54C75F00A84F54F85F050854FED
:10031000348550351204673010031205BD22E54DB7
:1003200075F00A84F55185F052855137855238129F
:1003300004673010031205CE22E54E75F00A84F5ED
:100340005385F05485533A85543B120467301003AB
:100350001205DF221204673010031205F522E5466C
:1003600075F00A84F54A85F04B854A40854B411269
:1003700004673010031204C722308514E55BB545CD
:1003800012E55CB5460D7400B5470812058580037B
:1003900012057F223085031205792220850312057C
:1003A0008E222085051205A58000221204673010D8
:1003B0000312060922E55C75F00A84F54A85F04BC4
:1003C000854A40854B4112046730100312055722BD
:1003D000C0E0C0D0C006E579B407140543E543B4D6
:1003E0003C03754300E547B54305120909C202E520
:1003F00079B402280543E543B43C03754300300259
:100400001B20030CE547B54313120909C202800CF7
:10041000741EB54307120937C202C203E579B40559
:100420000CD56109856261D543031205AED55F30F5
:1004300085605FE57EB40302B2910547AE47BE3CDE
:100440001F754700E57FB402030204600546AE460F
:10045000BE3C0D7546000545AE45BE18037545000A
:10046000D006D0D0D0E02230B602C20A200A142032
:10047000B6117A147BFF20B60ADBFB7BFFDAF7D2DA
:100480000AD2102230B602C20A200A3A20B6377ABF
:10049000FF7BFF20B630DBFB7BFFBAE119E57EB4C2
:1004A00003061205980204C4E57FB40106757B03B8
:1004B0000204B6757B01DADBB40106757B02020427
:1004C000C4757B04D20A22C2A8C2AAC21075470012
:1004D000120909757F0122E54775F03C240A8485DD
:1004E000F07A7533FF7534FF7535FF75360C753747
:1004F0000D75380E75390F753A11753B11757F03FF
:100500002275783B120ADAC20CC28BC289D2A8D2F9
:10051000AA757D01C2107557FC7558FF75550C758D
:100520005601784C12094A757F022275780A120A20
:10053000DAC28BC289D2A8D2AA757C01C20CC20BC6
:10054000C2107557FF7558CF755517755600785BF3
:1005500012094A757F0422E54775F03C240A848518
:10056000F07AC210C2A8C2AA120954757F0322757C
:10057000360A75390A757F0122D296757E0122C22C
:1005800096757E0222C291120919757E0322D291BC
:10059000C296D202757E0222D291856261D202D2C7
:1005A00003757E0422C296120954757E0222C291FE
:1005B000120919757E0322D296757E0122C210752A
:1005C00057E77558FF120A0D784D757D0222C2104B
:1005D00075573F7558FF120A86784E757D0322C203
:1005E000107557FF7558CFC20B75551775560078A3
:1005F00045757D0422C2107557FF75583F75553BF0
:100600007556007846757D0522C2107557FF7558DE
:100610003F75553B755600785C757C0222120824A4
:10062000120695DD0812066712062E7D0C22C0E028
:10063000E579B406061206460206437559FF755A57
:10064000FFC20CD0E022DF1E7F90B28475431E20D3
:10065000840C200C0985575985585A02066675592D
:10066000FF755AFFC20C22C001C0E0C0D0C3A93D33
:10067000053DE53C47555A75A000F5A0E53C33F52E
:100680003C5004C312068ED0D0D0E0D00122753C7D
:1006900010753D3E22C001C0E0C0D0A932053285B0
:1006A00030993099FDC299E5315559F5993099FD48
:1006B000C299B700087599FC3099FDC299B7010835
:1006C0007599603099FDC299B702087599DA309929
:1006D000FDC299B703087599F23099FDC299B70424
:1006E000087599663099FDC299B705087599B630B5
:1006F00099FDC299B706087599BE3099FDC299B7A0
:1007000007087599E03099FDC299B708087599FEF8
:100710003099FDC299B709087599E63099FDC299DB
:10072000B70A087599023099FDC299B70B087599F7
:10073000013099FDC299B7FF087599003099FDC243
:1007400099B70C087599EE3099FDC299B70D0875E7
:10075000991C3099FDC299B70E087599FA3099FD28
:10076000C299B70F0875990A3099FDC299B7110857
:1007700075992A3099FDC299D2B5C2B5E53033F5E5
:1007800030E53133F531C3B93C03120794D0D0D0F2
:10079000E0D0012275308075310075323322C003FC
:1007A000C0E0C0D0AB42E543B40016E579B4020224
:1007B0008012E543C284C280C281C282C283020821
:1007C0001DB401061208A202081DDC0512086B8088
:1007D0004CBB0016200009D281C282754202803DC6
:1007E000D281C283C28005428033BB011520000A3A
:1007F000D282C283C28015428023D282C281054246
:10080000801BBB021820000AD283D280C28115420D
:10081000800BD283D280C2827542008000D0D0D0BB
:10082000E0D00322C0E0C0D0E579B401061208B7D9
:10083000020866B402061208BE020866B403061275
:1008400008C2020866B404061208C3020866B405AA
:10085000061208FD020866B40606120901020866BF
:10086000B40703120905D0D0D0E022B200C3741E31
:1008700095432000175007C3743C9543F544AC449E
:10088000AB420BBB03027B008B4280155004AC448F
:100890008005AC43854344AB421BBBFF027B028B0C
:1008A0004222754200AC43854344D280C281C28259
:1008B000C283D284D2002285474312079E221207A8
:1008C0009E2222C0E0D297E542B4000DD280D283AE
:1008D000C281C28205420208FAB4010DD281C280EF
:1008E000C283C28205420208FAB4020ED282C281D9
:1008F000C280C2837542000208FAD0E02212079E2D
:100900002212079E2212079E22758AC4758CC47516
:100910005F0175600175790122754300758AFF7565
:100920008CFF755F3C75603C7579022275790322F6
:100930001208A275790422758AC4758CC4755F018A
:1009400075600175431E757905223085031205B760
:1009500075790622754300D202758AFE758CFE7584
:100960005F1E75601E75790722C0E0C0D0C330B32A
:1009700007D208C20902098F20081406D20C120AF5
:10098000DA7559FF755AFFD208300B03060606E5E3
:1009900055965002A656D0D0D0E022C0E0C0D0C3B9
:1009A00030B207D209C2080209C120091416D20CBC
:1009B000120ADA7559FF755AFFD209300B03161661
:1009C00016E695565002A655E555965002A655D006
:1009D000D0D0E022C0E0C0D0C0F0E7308617B4002D
:1009E00004740C8010B40C04D295800B940C400459
:1009F000D2958003E7C29575F00A84F54885F049E1
:100A000085483E85493FD0F0D0D0D0E022AA4C7531
:100A10005601BA010675551F020A85BA02067555B8
:100A20001D020A7BBA030675551F020A85BA040621
:100A300075551E020A7BBA050675551F020A85BA4E
:100A4000060675551E020A7BBA070675551F020A6F
:100A500085BA080675551F020A85BA090675551E1E
:100A6000020A7BBA0A0675551F020A85BA0B06757B
:100A7000551E020A7B75551F020A85E555C3954D23
:100A8000500385554D22755600755563AA4CBA0220
:100A900019AA4DBA1D14D20B755560E54E75F004B8
:100AA00084E5F06005154E1480F922C00078FFD867
:100AB000FED00022C000C001780879FFD9FE79FF7E
:100AC000D8FAD001D00022C000C00178FF79FFD948
:100AD000FE79FFD8FAD001D00022C0E0C0F0C0D02B
:100AE000E54775F03C25788485F07AD0D0D0F0D0F9
:020AF000E02202
:00000001FF
