:070000000201001208FF32AB
:04000B001203D732D3
:04001300120931326B
:06002B00C2CF1205DF3216
:1001000075817F7D0C7F90757B0175783B757F01D4
:10011000757D01757C01308507757E01D29680055D
:10012000757E02C2961208B67533FF7534007535B8
:100130000175360A75370375380175390A753A0144
:10014000753B09120756753E00753F0075400075F6
:100150004100120650754300854344755F01C2019A
:10016000C202C208C209C20AC20BC20CC210D2B279
:10017000D2B3D2B6754500754600754700754C017F
:10018000754D1F754E14850057850F587559FF75AD
:100190005AFF755B00755C05755D05755E01C3D220
:1001A000AFD2A9C2A8D288C2AAD28AD2AD75C804D9
:1001B00075CBFF75CA00758906758AC4758CC4D263
:1001C0008C75B8227598008000E57FB40105120295
:1001D0000B8016B4020512026C800EB403051202E5
:1001E000AA8006B404031202DDE57EB40105120301
:1001F000718016B4020512038C800EB4030512033D
:10020000938006B4040312039A80BEE54C75F00A8D
:1002100084F54F85F050E54D75F00A84F55185F071
:1002200052E54E75F00A84F55385F054794512096C
:100230006AE54675F00A84F54A85F04B7533FF850B
:100240004F3485503585513785523885533A85541A
:100250003B854A40854B41757B01120450E57BB4D8
:1002600003031204A3B402031204CD22E57DB401FA
:10027000051202FB801EB402051203168016B40399
:1002800005120331800EB4040512034C8006B40538
:1002900003120356794512096AE547B57A0B12092C
:1002A000A3120A1CC20B12049322795B12096AE59D
:1002B0005C75F00A84F54A85F04B854A40854B41D0
:1002C000757B03120450E57BB40103120540B404AE
:1002D000031204F7E547B57A0312054022E57CB422
:1002E00001051203B28006B402031203BCE547B550
:1002F0007A03120523795B12096A22E54C75F00A2C
:1003000084F54F85F050854F3485503512043330D5
:10031000100312057F22E54D75F00A84F55185F032
:10032000528551378552381204333010031205902C
:1003300022E54E75F00A84F55385F05485533A85CD
:10034000543B1204333010031205A122120433303F
:1003500010031205B722E54675F00A84F54A85F0C8
:100360004B854A40854B41120433301003120493ED
:1003700022308514E55BB54512E55CB5460D740089
:10038000B547081205568003120550223085031226
:10039000054A2220850312055C2230850FE55DB5F4
:1003A000460F7400B5470A120573800512056D806B
:1003B00000221204333010031205CB22E55C75F0E5
:1003C0000A84F54A85F04B854A40854B4112043337
:1003D00030100312052322C0E0C0D0C006E579B476
:1003E0000217054330020AE547B543051208B6C2B5
:1003F00002E543B43C03754300D55F3085605FE59B
:100400007EB40302B2910547AE47BE3C1F7547005C
:10041000E57FB4020302042C0546AE46BE3C0D75D2
:1004200046000545AE45BE1803754500D006D0D040
:10043000D0E02230B602C20A200A1420B6117A1483
:100440007BFF20B60ADBFB7BFFDAF7D20AD2102251
:1004500030B602C20A200A3A20B6377AFF7BFF2064
:10046000B630DBFB7BFFBAE119E57EB4030612056B
:1004700064020490E57FB40106757B030204827573
:100480007B01DADBB40106757B02020490757B0404
:10049000D20A22C2A8C2AAC2107547001208B675B5
:1004A0007F0122E54775F03C240A8485F07A753394
:1004B000FF7534FF7535FF75360C75370D75380EC1
:1004C00075390F753A11753B11757F032275783BAD
:1004D000120A70C20CC28BC289D2A8D2AA757D0141
:1004E000C2107557FC7558FF75550C755601784C40
:1004F0001208E8757F022275780A120A70C28BC250
:1005000089D2A8D2AA757C01C20CC20BC210755741
:10051000FF7558CF755517755600785B1208E8754A
:100520007F0422E54775F03C240A8485F07AC210E6
:10053000C2A8C2AAD2027543001208EC757F03223A
:1005400075360A75390A757F0122D296757E0122A9
:10055000C296757E0222C291757E0322D291C29606
:10056000757E0222D291120A88757E0422C2967587
:100570007E0222C291757E0322D296757E0122C22E
:10058000107557E77558FF1209A3784D757D022243
:10059000C21075573F7558FF120A1C784E757D03BF
:1005A00022C2107557FF7558CFC20B755517755677
:1005B000007845757D0422C2107557FF75583F7548
:1005C000553B7556007846757D0522C2107557FF5C
:1005D00075583F75553B755600785C757C02221244
:1005E00007DD120657DD081206291205F07D0C22E0
:1005F000C0E0E579B406061206080206057559FF43
:10060000755AFFC20CD0E022DF1E7F90B284754382
:100610001E20840C200C0985575985585A0206283B
:100620007559FF755AFFC20C22C001C0E0C0D0C38B
:10063000A93D053DE53C47555A75A000F5A0E53CB0
:1006400033F53C5004C3120650D0D0D0E0D0012284
:10065000753C10753D3E22C001C0E0C0D0A93205F6
:10066000328530993099FDC299E5315559F5993067
:1006700099FDC299B700087599FC3099FDC299B7E8
:1006800001087599603099FDC299B702087599DA29
:100690003099FDC299B703087599F23099FDC29956
:1006A000B704087599663099FDC299B70508759920
:1006B000B63099FDC299B706087599BE3099FDC24A
:1006C00099B707087599E03099FDC299B708087580
:1006D00099FE3099FDC299B709087599E63099FDE0
:1006E000C299B70A087599023099FDC299B70B08EB
:1006F0007599013099FDC299B7FF08759900309935
:10070000FDC299B70C087599EE3099FDC299B70DE5
:100710000875991C3099FDC299B70E087599FA3081
:1007200099FDC299B70F0875990A3099FDC299B71A
:10073000110875992A3099FDC299D2B5C2B5E53034
:1007400033F530E53133F531C3B93C03120756D0E8
:10075000D0D0E0D00122753080753100753233225F
:10076000C003C0E0C0D0AB42E543B4000DC284C2B8
:1007700080C281C282C2830207D6B4010612085227
:100780000207D6DC0512081B804CBB0016200009AE
:10079000D281C282754202803DD281C283C280056D
:1007A000428033BB011520000AD282C283C2801569
:1007B000428023D282C2810542801BBB02182000E6
:1007C0000AD283D280C2811542800BD283D280C2EA
:1007D000827542008000D0D0D0E0D00322C0E0C0BB
:1007E000D0E579B40106120867020816B4020612B1
:1007F000086E020816B40306120872020816B40442
:1008000006120873020816B405061208AD0208168F
:10081000B406031208AED0D0D0E022B200C3741EDA
:1008200095432000175007C3743C9543F544AC44EE
:10083000AB420BBB03027B008B4280155004AC44DF
:100840008005AC43854344AB421BBBFF027B028B5C
:100850004222754200AC43854344D280C281C282A9
:10086000C283D284D2002285474312076022120736
:10087000602222C0E0D297E542B4000DD280D2833C
:10088000C281C28205420208AAB4010DD281C2808F
:10089000C283C28205420208AAB4020ED282C28179
:1008A000C280C2837542000208AAD0E02222120749
:1008B000602212076022758AC4758CC4755F017549
:1008C000600175790122754300758AFF758CFF758B
:1008D0005F3C75603C7579022275790322120852DB
:1008E000757904227579052275790622754300759C
:1008F0008AFE758CFE755F1E75601E75790222C0BA
:10090000E0C0D0C330B307D208C2090209252008CD
:100910001406D20C120A707559FF755AFFD20830AE
:100920000B03060606E555965002A656D0D0D0E039
:1009300022C0E0C0D0C330B207D209C208020957B2
:1009400020091416D20C120A707559FF755AFFD27D
:1009500009300B03161616E695565002A655E555B6
:10096000965002A655D0D0D0E022C0E0C0D0C0F052
:10097000E7308617B40004740C8010B40C04D295D0
:10098000800B940C4004D2958003E7C29575F00A61
:1009900084F54885F04985483E85493FD0F0D0D060
:1009A000D0E022AA4C755601BA010675551F020AFD
:1009B0001BBA020675551D020A11BA030675551FAA
:1009C000020A1BBA040675551E020A11BA050675FD
:1009D000551F020A1BBA060675551E020A11BA07F0
:1009E0000675551F020A1BBA080675551F020A1B19
:1009F000BA090675551E020A11BA0A0675551F0274
:100A00000A1BBA0B0675551E020A1175551F020AFC
:100A10001BE555C3954D500385554D227556007500
:100A20005563AA4CBA0219AA4DBA1D14D20B7555BA
:100A300060E54E75F00484E5F06005154E1480F90C
:100A400022C00078FFD8FED00022C000C001780884
:100A500079FFD9FE79FFD8FAD001D00022C000C0BA
:100A60000178FF79FFD9FE79FFD8FAD001D00022B2
:100A7000C0E0C0F0C0D0E54775F03C25788485F033
:100A80007AD0D0D0F0D0E022C0E0C0F0C0D0E546AF
:100A900075F03C255E8485F05DD0D0D0F0D0E022AA
:00000001FF
