:07000000020100120CF232B4
:04000B001205143294
:04001300120D243274
:04001B001205D232C6
:060023001205F3C2983241
:06002B00C2CF12097B3276
:1001000075817F7D0C7F90757B0175783B757F01D4
:10011000757D01757C01C292D293C220C221757790
:100120000175760275750375710875700B756F2012
:10013000756D00756E01308507757E01D29680055C
:10014000757E02C296120C867533FF7534007535C4
:100150000175360A75370375380175390A753A0124
:10016000753B09120B1A753E00753F00754000750E
:1001700041001209F3754300854344755F01C201D4
:10018000C202C203C208C209C20AC20BC20CC21018
:10019000D2B2D2B3D2B67545007546007547007528
:1001A0004C01754D1F754E14850057850F587559B4
:1001B000FF755AFFC218755B00755C05755E01E539
:1001C0005E255EF562856261C3D2AFD2A9C2A8D2B4
:1001D00088C2AAD28AD2AD75C80475CBFF75CA0091
:1001E000758906758AC4758CC4D28C75B8227598C9
:1001F0000012082A8000E57FB40105120240801E2B
:10020000B402051202C48016B40305120302800E64
:10021000B404051203358006B40503120353E57ECA
:10022000B401051204D88016B402051204FD800E34
:10023000B403051205048006B4040312050B80B64E
:10024000E54C75F00A84F54F85F050E54D75F00AE0
:1002500084F55185F052E54E75F00A84F55385F02A
:10026000547945120D5DE54675F00A84F54A85F02E
:100270004B7533FF854F348550358551378552385E
:1002800085533A85543B854A40854B41302020E5D3
:100290007EB403028019B404028014E56DB5450FE5
:1002A000E56EB5460A7402B5470512082A80147532
:1002B0007B01120722E57BB40303120775B4020326
:1002C00012079A22E57DB4010512036C801EB40268
:1002D000051203878016B403051203A2800EB4042E
:1002E000051203BD8006B405031203C77945120D3C
:1002F0005DE57AB4000B120D96120E0FC20B1207B9
:100300006522795B120D5DE55C75F00A84F54A851E
:10031000F04B854A40854B41757B03120722E57BF4
:10032000B40103120805B404031207C6E57AB40049
:100330000312080522E57CB401051203E28006B42D
:1003400002031203ECE57AB400031207F2795B12A0
:100350000D5D22E577B40105120407800EB4020595
:100360001204448006B4030312047E22E54C75F0A7
:100370000A84F54F85F050854F34855035120705B6
:100380003010031208B222E54D75F00A84F551854C
:10039000F052855137855238120705301003120884
:1003A000C322E54E75F00A84F55385F05485533A1F
:1003B00085543B1207053010031208D4221207059A
:1003C0003010031208EA22E54675F00A84F54A85E2
:1003D000F04B854A40854B41120705301003120748
:1003E00065221207053010031208FE22E55C75F045
:1003F0000A84F54A85F04B854A40854B4112070532
:100400003010031207F2227945120D5DE54675F0B2
:100410000A84F54A85F04B854A40854B4112070511
:1004200030101030200D30210512080F80151209F0
:10043000388010E57AB4000B30210512080F8003D4
:10044000120938227945120D5DE54675F00A84F5EA
:100450004A85F04B854A40854B4112070530100D07
:1004600030210512080F80151209388010E57AB482
:10047000000B30210512080F800312093822E546CF
:1004800075F00A84F54A85F04BE570C3940B500A69
:1004900075390AC3740B957080037539FF75F00ABE
:1004A00084F53A85F03B854A40854B41E57025450A
:1004B000C3940B500424188007C3941850022418C6
:1004C00075F00A84F53E85F03F120705301008D21A
:1004D00021120E9212080F2230851EE55BB5451CD5
:1004E000E55CB546177400B54712E57FB405051203
:1004F000080FC20212087A800312087422308503A2
:1005000012086E2220850312088322208505120816
:100510009A800022C0E0C0D0C006E579B407140577
:1005200043E543B43C03754300E547B54305120C6E
:1005300086C202E579B402280543E543B43C03755D
:10054000430030021B20030CE547B54313120C8611
:10055000C202800C741EB54307120CC0C202C20353
:10056000E579B4050CD56109856261D543031208AC
:10057000A3E579B4040CE542B4020575420080029B
:100580000542D55F4685605FE57FB40102800CB40B
:100590000507E577B403028002157AE57EB403020D
:1005A000B2910547AE47BE3C22754700E57FB402D5
:1005B000030205CB0546AE46BE3C10754600054518
:1005C000AE45BE1806754500120EB9D006D0D0D083
:1005D000E022758B00758D0030930C757214D56F09
:1005E0001112080F0205F2D220756F20D572031286
:1005F000091222C0E0C001C003E599AB76BB010D32
:100600007E006273D574038575760206FEBB02090F
:10061000B424037576030206FEBB030EB44708F547
:10062000737576040206FE0206F8BB040EB4500889
:1006300062737576050206FE0206F8BB050EB4521B
:100640000862737576060206FE0206F8BB060EB453
:100650004D0862737576070206FE0206F8BB0714A2
:10066000B4430E62737574017575087576010206E0
:10067000FE0206F8BB081962730E540FA971F70544
:1006800071BE06097574057575097576010206FE59
:10069000BB0914B4410E627375742675750C7576BA
:1006A000010206FE0206F8BB0C1962730E540FA974
:1006B00071F70571BE064775740475750D75760181
:1006C0000206FEBB0D09B42A2F75760E0206FEBB8C
:1006D0000E260E120E34BE0106C4F5140206FE45A7
:1006E00014F514B57312D297120E4A20210512097F
:1006F00038800B12080F8006757602757108D003DA
:10070000D001D0E02230B602C20A200A1420B6116D
:100710007A147BFF20B60ADBFB7BFFDAF7D20AD222
:10072000102230B602C20A200A3A20B6377AFF7B7E
:10073000FF20B630DBFB7BFFBAE119E57EB4030690
:1007400012088D020762E57FB40106757B0302077C
:1007500054757B01DADBB40106757B020207627512
:100760007B04D20A22C2A8C2AAC210754700120C8A
:1007700086757F012275780A85787A7533FF75341E
:10078000FF7535FF75360C75370D75380E75390FD9
:10079000753A11753B11757F032275783C85787A1F
:1007A000C20CC297C28BC289D2A8D2AA757D01C2DF
:1007B000107557FC7558FF75550C755601784C121D
:1007C0000CD3757F022275780A85787AC28BC2892C
:1007D000D2A8D2AA757C01C20CC20BC2107557FFF9
:1007E0007558CF755517755600785B120CD3757F09
:1007F000042275780A85787AC210C2A8C2AA120C9F
:10080000DD757F032275360A75390A757F0122C2AC
:1008100092C28EC2AB75980075360A75390AC21835
:1008200075B822120CDD757F01227578FF85787A04
:10083000C210D2187599003099FDC2997599FF3090
:1008400099FDC2997599023099FDC299D2B5C2B588
:10085000120CADD2AB758916758B00758D00D28EDA
:10086000757214C297D292757701757F0522D29660
:10087000757E0122C296757E0222C291120C967577
:100880007E0322D291C296D202757E0222D2918537
:100890006261D202D203757E0422C296120CDD750B
:1008A0007E0222C291120C96757E0322D296757E2C
:1008B0000122C2107557E77558FF120D96784D75D5
:1008C0007D0222C21075573F7558FF120E0F784EE9
:1008D000757D0322C2107557FF7558CFC20B755531
:1008E000177556007845757D0422C2107557FF753F
:1008F000583F75553B7556007846757D0522C210E8
:100900007557FF75583F75553B755600785C757C7B
:10091000022275787885787AC21075B810C28EC2B6
:10092000AB758926758DFDD28E759850D2AC7571D8
:100930000875760275770222C210C292C28EC2ABCF
:10094000C2AC75980075571F7558FF7533FF753425
:10095000127535137536147537FF7538FF755519CF
:100960007556007870C21875B822C28BC289D2A899
:10097000D2AAC20C120CD375770322C0D0120BAAD4
:100980002018031209FADD081209CC1209937D0C14
:10099000D0D022C0E0E579B406061209AB0209A85E
:1009A0007559FF755AFFC20CD0E022DF1E7F90B24E
:1009B0008475431E20840C200C0985575985585A8C
:1009C0000209CB7559FF755AFFC20C22C001C0E065
:1009D000C0D0C3A93D053DE53C47555A75A000F57B
:1009E000A0E53C33F53C5004C31209F3D0D0D0E06D
:1009F000D00122753C10753D3E22C001C0E0C0D040
:100A0000A93205328530993099FDC299E5315559A1
:100A1000F5993099FDC299B700087599FC3099FD98
:100A2000C299B701087599603099FDC299B702085B
:100A30007599DA3099FDC299B703087599F2309922
:100A4000FDC299B704087599663099FDC299B7053A
:100A5000087599B63099FDC299B706087599BE30E8
:100A600099FDC299B707087599E03099FDC299B709
:100A700008087599FE3099FDC299B709087599E67D
:100A80003099FDC299B70A087599023099FDC2994B
:100A9000B70B087599013099FDC299B7FF08759990
:100AA000003099FDC299B70C087599EE3099FDC2D6
:100AB00099B70D0875991C3099FDC299B70E087544
:100AC00099FA3099FDC299B70F0875990A3099FDC6
:100AD000C299B7110875992A3099FDC299B71208C1
:100AE00075997C3099FDC299B7130875991E309994
:100AF000FDC299B7140875991A3099FDC299D2B5FB
:100B0000C2B5E53033F530E53133F531C3B93C03D7
:100B1000120B1AD0D0D0E0D0012275308075310090
:100B200075323322C003C0E0C0D0AB42E543B4000D
:100B300016E579B402028012E543C284C280C28104
:100B4000C282C283020BA3B40106120C28020BA3BB
:100B5000DC05120BF1804CBB0016200009D281C2CB
:100B600082754202803DD281C283C28005428033B9
:100B7000BB011520000AD282C283C28015428023A5
:100B8000D282C2810542801BBB021820000AD28398
:100B9000D280C2811542800BD283D280C28275423C
:100BA000008000D0D0D0E0D00322C0E0C0D0E579F2
:100BB000B40106120C3D020BECB40206120C440206
:100BC0000BECB40306120C48020BECB40406120C36
:100BD00049020BECB40506120C7A020BECB40606C3
:100BE000120C7E020BECB40703120C82D0D0D0E0C2
:100BF00022B200C3741E95432000175007C3743CF3
:100C00009543F544AC44AB420BBB03027B008B42E3
:100C100080155004AC448005AC43854344AB421B73
:100C2000BBFF027B028B4222754200AC43854344EA
:100C3000D280C281C282C283D284D200228547433D
:100C4000120B2422120B242222C0E0E542B4000B36
:100C5000D280D283C281C282020C77B4010BD281CE
:100C6000C280C283C282020C77B4020BD282C281DC
:100C7000C280C283020C77D0E022120B2422120B16
:100C80002422120B2422758AC4758CC4755F0175E9
:100C9000600175790122754300758AFF758CFF75B7
:100CA0005F3C75603C7579022275790322758AFF75
:100CB000758CFF755F3C75603C120C2875790422B9
:100CC000758AC4758CC4755F0175600175431E75A6
:100CD0007905223085031208AC7579062275430028
:100CE000D202758AFE758CFE755F1E75601E757961
:100CF0000722C0E0C0D0C330B307D208C209020D3A
:100D00001820081406D20C85787A7559FF755AFF99
:100D1000D208300B03060606E555965002A656D0BB
:100D2000D0D0E022C0E0C0D0C330B207D209C208A0
:100D3000020D4A20091416D20C85787A7559FF7570
:100D40005AFFD209300B03161616E695565002A626
:100D500055E555965002A655D0D0D0E022C0E0C04F
:100D6000D0C0F0E7308617B40004740C8010B40CC7
:100D700004D295800B940C4004D2958003E7C29571
:100D800075F00A84F54885F04985483E85493FD08D
:100D9000F0D0D0D0E022AA4C755601BA01067555A4
:100DA0001F020E0EBA020675551D020E04BA030686
:100DB00075551F020E0EBA040675551E020E04BAB2
:100DC000050675551F020E0EBA060675551E020E53
:100DD00004BA070675551F020E0EBA080675551F90
:100DE000020E0EBA090675551E020E04BA0A0675E1
:100DF000551F020E0EBA0B0675551E020E047555D0
:100E00001F020E0EE555C3954D500385554D2275B5
:100E10005600755563AA4CBA0219AA4DBA1D14D2D0
:100E20000B755560E54E75F00484E5F06005154ED0
:100E30001480F922C000C0D0F8C394395006E85499
:100E40000F020E45E8D0D0D00022C0F0C0D075F01F
:100E50000AE50CA4250DF54775F00AE50AA4250B53
:100E6000F54675F00AE508A42509F54575F00AE58B
:100E70000EA4250FF54D75F00AE510A42511F54CCB
:100E800075F00AE512A42513F54E120E92D0D0D0BB
:100E9000F022C0E0C0D0E5702545C3940B50072474
:100EA00018120F39800CC3941850042418800312B0
:100EB0000EB9F545D0D0D0E022C0E0C0F0C0D005DA
:100EC0004DE54DB41D16E54CB40267E54E75F004D2
:100ED00084E5F0605D054C754D018056B41E0CE54F
:100EE0004CB4024E054C754D018047B41F2AE54CA9
:100EF000B40407054C754D018038B40607054C75E0
:100F00004D01802EB40907054C754D018024B40BAA
:100F100021054C754D01801AB42017054C754D0103
:100F2000E54CB40D0D054E754C01E54EB4640375EA
:100F30004E00D0D0D0F0D0E022C0E0C0F0C0D0D57C
:100F40004D58D54C19E54E600A154E754C0C754D33
:100F50001F8047754E63754C0C754D1F803CE54CEA
:100F6000B40214E54E75F00484E5F06005754D1C7F
:100F70008028754D1D8023B40405754D1E801BB45B
:100F80000605754D1E8013B40905754D1E800BB402
:100F90000B05754D1E8003754D1FD0D0D0F0D0E0ED
:100FA00022C00078FFD8FED00022C000C00178081F
:100FB00079FFD9FE79FFD8FAD001D00022C000C055
:100FC0000178FF79FFD9FE79FFD8FAD001D000224D
:00000001FF
