:070000000201001207773234
:04000B001203FD32AD
:040013001207A532F9
:06002B00C2CF1204F63200
:100100007D0C7F90757E01757D02757C0375790489
:10011000857E7B857E7F7533FF753400753501756F
:10012000360A75370375380175390A753A01753B1A
:1001300009120676753E00753F0075400075410056
:10014000120570754300854344C201C208C209C24A
:100150000AC20BC20CC210D2B2D2B3D2B6754500DD
:10016000754600754700754C01754D1F754E13851A
:100170000057850F587559FF755AFF755B00755C00
:1001800005C3D2AFD2A9C2A8D288C2AAD28AD2ADA0
:1001900075C80475CBFF75CA00758906758AC47564
:1001A0008CC4D28C75B8227598008000E57FB57E2E
:1001B000030201C8B57D0302022EB57C030203547D
:1001C000B5790302038C80E4E54C75F00A84F54FA1
:1001D00085F050E54D75F00A84F55185F052E54EF5
:1001E00075F00A84F55385F05479451207DAE5462F
:1001F00075F00A84F54A85F04B7533FF854F3485D9
:10020000503585513785523885533A85543B854A58
:1002100040854B41854743857E7B120449E57BB58C
:100220007C0312048CB57D031204B60201ACC20C2F
:10023000C2107557FC7558FF75550C755601784CF2
:10024000E547B57A0B12081312088CC20B0203495A
:1002500012042C301003020271E54C75F00A84F58B
:100260004F85F050854F3485503579451207DA8037
:10027000CFC2107557E77558FF120813784DE54740
:10028000B57A0812088CC20B02034912042C3010F4
:10029000030202ADE54D75F00A84F55185F05285F3
:1002A000513785523879451207DA02027EC210753D
:1002B000573F7558FF12088C784EE547B57A05C24E
:1002C0000B02034912042C3010030202E6E54E75BE
:1002D000F00A84F55385F05485533A85543B7945AB
:1002E0001207DA0202BAC2107557FF7558CFC20B57
:1002F0007555177556007845E547B57A03020349E9
:1003000012042C30100302031079451207DA80E83A
:10031000C2107557FF75583F75553B7556007846A6
:10032000E547B57A0302034912042C301003020397
:1003300049E54675F00A84F54A85F04B854A4085C3
:100340004B4179451207DA80D7C210754700120475
:10035000810201AC795B1207DAE55C75F00A84F57D
:100360004A85F04B854A40854B41854743857C7BD8
:10037000120449E57BB57E031204ECB5790312043F
:10038000C5E547B57A031204EC0201ACC20CC20BFE
:10039000C2107557FF7558CF755517755600785BA5
:1003A000E547B57A061204D40201AC12042C3010D1
:1003B000030203BB795B1207DA80E5C2107557FFB1
:1003C00075583F75553B755600785CE547B57A061C
:1003D0001204D40201AC12042C3010061204D40210
:1003E00001ACE55C75F00A84F54A85F04B854A401E
:1003F000854B41795B1207DA80D10201ACC0E0C0C5
:10040000D00547AE47BE3C1F754700E57FB57D036D
:100410000204270546AE46BE3C0D7546000545AEB6
:1004200045BE1803754500D0D0D0E02230B602C2D8
:100430000A200A1420B6117A287BFF20B60ADBFBBB
:100440007BFFDAF7D20AD2102230B602C20AE57F69
:10045000200A2D20B62A7AFF7BFF20B623DBFB7B08
:10046000FFBAE10CB57E06857C7B020470857E7B3D
:10047000DAE8B57E06857D7B02047E85797BD20A2B
:1004800022C2A8C2AA857E7F12074922E54775F0DD
:100490003C240A8485F07A7533FF7534FF7535FF87
:1004A00075360C75370D75380E75390F753A11752F
:1004B0003B11857C7F221208E0C28BC289D2A8D270
:1004C000AA857D7F221208E0C28BC289D2A8D2AA57
:1004D00085797F22E54775F03C240A8485F07AC24D
:1004E00010C2A8C2AA857C7F1207492275360A75F8
:1004F000390A857E7F22120680120577DD081205F3
:10050000491205077D0C22C0E0E57FB57D06120586
:1005100028020525B579061205280205257559FF1B
:10052000755AFFC20CD0E022DF1E7F90B284754363
:100530001E20840C200C0985575985585A020548FD
:100540007559FF755AFFC20C22C001C0E0C0D0C36C
:10055000A93D053DE53C47555A75A000F5A0E53C91
:1005600033F53C5004C3120570D0D0D0E0D0012246
:10057000753C10753D3E22C001C0E0C0D0A93205D7
:10058000328530993099FDC299E5315559F5993048
:1005900099FDC299B700087599FC3099FDC299B7C9
:1005A00001087599603099FDC299B702087599DA0A
:1005B0003099FDC299B703087599F23099FDC29937
:1005C000B704087599663099FDC299B70508759901
:1005D000B63099FDC299B706087599BE3099FDC22B
:1005E00099B707087599E03099FDC299B708087561
:1005F00099FE3099FDC299B709087599E63099FDC1
:10060000C299B70A087599023099FDC299B70B08CB
:100610007599013099FDC299B7FF08759900309915
:10062000FDC299B70C087599EE3099FDC299B70DC6
:100630000875991C3099FDC299B70E087599FA3062
:1006400099FDC299B70F0875990A3099FDC299B7FB
:10065000110875992A3099FDC299D2B5C2B5E53015
:1006600033F530E53133F531C3B93C03120676D0AA
:10067000D0D0E0D001227530807531007532332240
:10068000C003C0E0C0D0AB42E543B4000DC284C299
:1006900080C281C282C2830206F6B4010612073408
:1006A0000206F6DC051206FD804CBB001620000990
:1006B000D281C282754202803DD281C283C280054E
:1006C000428033BB011520000AD282C283C280154A
:1006D000428023D282C2810542801BBB02182000C7
:1006E0000AD283D280C2811542800BD283D280C2CB
:1006F000827542008000D0D0D0E0D00322B200C387
:10070000741E95432000175007C3743C9543F5446D
:10071000AC44AB420BBB03027B008B428015500400
:10072000AC448005AC43854344AB421BBBFF027B1A
:10073000028B4222754200AC43854344D280C28181
:10074000C282C283D284D200227543001208BAE565
:1007500047B543030207761208BA05437401B5434F
:10076000EE1207341208B11207341208B11207341E
:100770001208B102074F22C0E0C330B307D208C24B
:100780000902079B20081406D20C1208E07559FFD5
:10079000755AFFD208300B03060606E5559650023F
:1007A000A656D0E022C0E0C330B207D209C2080288
:1007B00007C920091416D20C1208E07559FF755AA2
:1007C000FFD209300B03161616E695565002A655B1
:1007D000E555965002A655D0E022C0E0C0D0C0F04A
:1007E000E7308617B40004740C8010B40C04D29562
:1007F000800B940C4004D2958003E7C29575F00AF3
:1008000084F54885F04985483E85493FD0F0D0D0F1
:10081000D0E022AA4C755601BA010675551F020890
:100820008BBA020675551D020881BA030675551F5D
:1008300002088BBA040675551E020881BA050675B2
:10084000551F02088BBA060675551E020881BA07A5
:100850000675551F02088BBA080675551F02088BCE
:10086000BA090675551E020881BA0A0675551F0297
:10087000088BBA0B0675551E02088175551F0208B4
:100880008BE555C3954D500385554D227556007522
:100890005563AA4CBA0219AA4DBA1D14D20B75554C
:1008A00060E54E75F00484E5F06005154E1480F99E
:1008B00022C00078FFD8FED00022C000C001780816
:1008C00079FFD9FE79FFD8FAD001D00022C000C04C
:1008D0000178FF79FFD9FE79FFD8FAD001D0002244
:1008E000C0E0C0F0E54775F03C243B8485F07AD049
:0408F000F0D0E02242
:00000001FF
