:070000000201001212F532AB
:04000B001208BE32E7
:0400130012132A3268
:04001B001209A932EB
:060023001209E7C2983249
:06002B00C2CF120E843268
:1001000075817F7D0C7F90757B0175783B757F01D4
:10011000757D01757C01D2B7756C06756A04D219BC
:10012000C290D222C21AD21BC292D293C220C22142
:1001300075770175760275750375710875700E75A2
:100140006F20756D00756E01308507757E01D29642
:100150008005757E02C2961212897533FF753400D0
:1001600075350175360A75370375380175390A75A5
:100170003A02753B091210FC753E00753F00754050
:1001800000754100120EFC754300854344755F0104
:10019000C201C202C203C204C208C209C20AC20B1F
:1001A000C20CC210C211D2B2D2B3D2B6754500751C
:1001B0004600754700754C01754D1F754E1485003E
:1001C00057850F587559FF755AFFC218755B007532
:1001D0005C05755E01E55E255EF562856261C3D2F0
:1001E000AFD2A9C2A8D288C2AAD28AD2AD75C80499
:1001F00075CBFF75CA00758916758AC4758CC47570
:100200008B00758D00D28CC2ABC28E75B8227598EA
:1002100000120CA48000E57FB4010512026880265C
:10022000B402051202FD801EB4030512033B8016C2
:10023000B40405120372800EB406051203A98006E9
:10024000B40503120390E57EB401051208828016FE
:10025000B402051208A7800EB403051208AE80068A
:10026000B404031208B580AEE54C75F00A84F54F6E
:1002700085F050E54D75F00A84F55185F052E54E54
:1002800075F00A84F55385F0547945121366E546F6
:1002900075F00A84F54A85F04B7533FF854F348538
:1002A000503585513785523885533A85543B854AB8
:1002B00040854B41302023E57EB40302801CB4040A
:1002C000028017E56DB54512E56EB5460D7402B5B1
:1002D0004708302205120CA48022120B5B30100656
:1002E000120C460202FC757B01120B12E57BB40373
:1002F00005120B908006B40203120BB722E57DB401
:10030000010512042C801EB402051204478016B4A5
:100310000305120462800EB4040512047D8006B445
:1003200005031204877945121366E57AB4000B12AF
:10033000139F121418C20B120B7D22795B121366E5
:10034000E55C75F00A84F54A85F04B854A40854B9B
:1003500041757B03120B12E57BB40105120C1E8064
:1003600010B40405120BE38008E57AB40003120C04
:100370001E22E57CB401051204A28006B402031219
:1003800004ACE57AB40003120C0D795B12136622FB
:10039000E577B401051207AD800EB402051207E53A
:1003A0008006B4030312082A22E56CB40505120482
:1003B000C78056B4060512050E804EB4020512051C
:1003C000558046B40105120597803EB40805120514
:1003D000DC8036B4070512061D802EB40405120613
:1003E000738026B403051206BB801EB40B051207EA
:1003F000008016B40C05120758800EB40D051207C4
:100400006D8006B40E0312078DE57AB4001D757970
:1004100001E56CB40B0612149B020428B40C09E528
:100420005E255EF562856261120C2D22E54C75F049
:100430000A84F54F85F050854F34855035120AF007
:10044000301003120D3022E54D75F00A84F5518508
:10045000F052855137855238120AF0301003120DD0
:100460003F22E54E75F00A84F55385F05485533AE2
:1004700085543B120AF0301003120D4E22120AF07E
:10048000301003120D6222E54675F00A84F54A85A4
:10049000F04B854A40854B41120AF0301003120B95
:1004A0007D22120AF0301003120D7422E55C75F003
:1004B0000A84F54A85F04B854A40854B41120AF083
:1004C000301003120C0D227533FF7534FF75350F94
:1004D00075361875370A75381575391A753A1175E4
:1004E0003B147945121366E54675F00A84F54A8592
:1004F000F04B854A40854B41120AF0301006120C31
:10050000A402050D120B5B301003120C2D22753363
:100510000B7534127535137536147537FF7538162B
:10052000753917753A11753B187945121366E5460A
:1005300075F00A84F54A85F04B854A40854B411297
:100540000AF0301006120DF1020554120B5B301048
:1005500003120C2D2275330B7534FF7535FF75367C
:1005600015753711753817753917753A16753B18A3
:10057000E55E75F00A84F54085F041753E0A753FE9
:100580000A120AF0301006120E1D020596120B5BBD
:10059000301003120C2D227533FF7534FF75351999
:1005A00075360E7537137538187539FF753A177526
:1005B0003B112019067541000205BE754101753ECB
:1005C0000A753F0A75400A120AF0301005B2190286
:1005D00005DB120B5B301003120C2D2275330B75EB
:1005E00034FF75351575361A753711753814753928
:1005F000FF753A0E753B13E56E75F00A84F540857C
:10060000F041796D121366120AF0301006120E4C8A
:1006100002061C120B5B301003120C2D227533FFE7
:1006200075340C75351B7536137537177538157598
:10063000391A753A11753B142022067541000206DD
:1006400044754101753E0A753F0A75400A120AF069
:10065000301016B222202208756A07856A5580126A
:10066000756A08856A55020672120B5B3010031218
:100670000C2D227533FF7534017535027536FF7503
:10068000371775380F7539FF753A02753B04201A14
:10069000097540027541040206A0754001754102CA
:1006A000753E0A753F0A120AF0301005B21A0206AA
:1006B000BA120B5B301003120C2D227533FF753408
:1006C000FF75351E75361875371875381F7539FF63
:1006D000753A17753B11201B067541000206E2753D
:1006E0004101753E0A753F0A75400A120AF0301042
:1006F00005B21B0206FF120B5B301003120C2D22F9
:10070000E54675F00A84F54A85F04BE570C3940E12
:10071000500A75390AC3740E957080037539FF75D8
:10072000F00A84F53A85F03B854A40854B41E570F7
:100730002545C3940E500424188007C39418500212
:100740002418F56B796B121366120AF0301008D278
:100750002112149B120E0C22E55E75F00A84F540FE
:1007600085F041120AF0301003120E3222E56E7548
:10077000F00A84F54085F041E56D75F00A84F53E98
:1007800085F03F120AF0301003120E6122E56E75FB
:10079000F00A84F54085F041E56D75F00A84F53E78
:1007A00085F03F120AF0301003120E7322E54675F1
:1007B000F00A84F54A85F04B854A40854B4130204C
:1007C00013120AF030100D302105120C7F80151223
:1007D0000DAA8010E57AB4000B302105120C7F8041
:1007E00003120DAA22E54675F00A84F54A85F04BFE
:1007F000854A40854B41120AF030100D3021051218
:100800000C7F8025120DAA802030970D2021051223
:100810000DAA8015120C7F8010E57AB4000B3021F0
:1008200005120C7F8003120DAA22E54675F00A849A
:10083000F54A85F04BE570C3940E500A75390AC32A
:10084000740E957080037539FF75F00A84F53A854A
:10085000F03B854A40854B41E5702545C3940E50D9
:100860000424188007C3941850022418F56B796B80
:10087000121366120AF0301008D22112149B120CC7
:100880007F2230851EE55BB5451CE55CB5461774D7
:1008900000B54712E57FB40505120C7FC202120CA9
:1008A000F88003120CF222308503120CEC22208512
:1008B00003120D0122208505120D18800022C0E0D0
:1008C000C0D0C006E579B4073D20040DE547B54327
:1008D0002B121289C2020208FCE56AB408059016C0
:1008E00007800BB407059015FF80039015F9E56CA0
:1008F0001493B543071212ACC202C2040543E54388
:10090000B43C03754300E579B4022C30021F200388
:100910000DE547B54317121289C20202092D741E54
:10092000B5430A1212C3C202C20302092D0543E5F0
:1009300043B43C03754300E579B4050CD5610985E2
:100940006261D54303120D21E579B4040CE542B48C
:10095000020575420080020542D55F4685605FE56D
:100960007FB40102800CB40507E577B4030280026E
:10097000157AE57EB40302B2910547AE47BE3C222C
:10098000754700E57FB402030209A20546AE46BEE4
:100990003C107546000545AE45BE1806754500126B
:1009A00014D2D006D0D0D0E022C0E0C0D0758B00E9
:1009B000758D00D291E57FB40524E577B4011F3031
:1009C000930E757214D56F1AC220120C7F0209E2C1
:1009D000D220756F20D5720A120D860209E2C28EEE
:1009E000C2ABD0D0D0E022C0E0C0D0C001C003E58F
:1009F00099AB76BB010D7E006273D5740385757665
:100A0000020AE7BB0209B42403757603020AE7BBB6
:100A1000030EB44708F573757604020AE7020AE18B
:100A2000BB040EB450086273757605020AE7020A29
:100A3000E1BB050EB452086273757606020AE7023E
:100A40000AE1BB060EB44D086273757607020AE729
:100A5000020AE1BB0714B4430E6273757401757525
:100A600008757601020AE7020AE1BB081962730EF3
:100A7000540FA971F70571BE0609757405757509DE
:100A8000757601020AE7BB0914B4410E62737574EE
:100A90002675750C757601020AE7020AE1BB0C198E
:100AA00062730E540FA971F70571BE063A7574048E
:100AB00075750D757601020AE7BB0D09B42A22751A
:100AC000760E020AE7BB0E190E12143DBE0106C4D3
:100AD000F514020AE74514F514B57305D2971214FC
:100AE00053757602757108D003D001D0D0D0E022C2
:100AF000C21030B602C20A200A1720B6147A0A7B46
:100B0000FF20B60DDBFB7BFFDAF7D20AD2101215FD
:100B1000BA2230B602C20A200A4020B63D7AB07B23
:100B2000FF20B636DBFB7BFFBAA61FE57EB40306CB
:100B3000120D0B020B58E57FB401091215BA757B33
:100B400003020B4A1215BA757B01DAD5B40106759A
:100B50007B02020B58757B04D20A22C21030B70206
:100B6000C21120111720B7147A0A7BFF20B70DDBC2
:100B7000FB7BFFDAF7D211D2101215BA22C2A8C23B
:100B8000AA754700201902D290121289757F01229E
:100B900075780A85787A7533FF7534FF7535FF757A
:100BA000360C75370D75380E75390F753A11753B62
:100BB00011C290757F032275783C85787AC20CC289
:100BC00097C28BC289D2A8D2AA757D017557FC75D0
:100BD00058FF75550C755601784CC2901212D67597
:100BE0007F022275780A85787AC28BC289D2A8D210
:100BF000AA757C01C20CC20B7557FF7558CF75558D
:100C000017755600785B1212D6757F042275780A24
:100C100085787AC2A8C2AA1212E0757F03227536BF
:100C20000A75390A201902D290757F01227533FFA7
:100C300075360A75390AC2A8C2AA1212E020190232
:100C4000D290757F012275783C85787AC28BC289F3
:100C5000D2A8D2AA202005756A05800B202205752E
:100C60006A078003756A08756C01C20C856A557540
:100C70005601786CC290D2041212E0757F0622C22F
:100C800092C2A8C2AA758916201B02C28ED2AB7569
:100C9000980075360A75390AC21875B8221212E022
:100CA000757F01227578FF85787AC2A8C2AAD2180A
:100CB0007599003099FDC2997599FF3099FDC299D7
:100CC0007599023099FDC299D2B5C2B51212B0D24F
:100CD000AB758916D28E757214756F20C297D29239
:100CE000201902D290757701757F0522D296757E04
:100CF0000122C296757E0222C291121299757E035C
:100D000022D291C296D202757E0222D29185626170
:100D1000D202D203757E0422C2961212E0757E02C0
:100D200022C291121299757E0322D296757E0122FB
:100D30007557E77558FF12139F784D757D02227520
:100D4000573F7558FF121418784E757D032275575A
:100D5000FF7558CFC20B7555177556007845757DD0
:100D600004227557FF75583F75553B7556007846F8
:100D7000757D05227557FF75583F75553B755600B3
:100D8000785C757C022275787885787A75B810C29F
:100D90008EC2AB758926758DFDD28E759850D2ACFA
:100DA00075710875760275770222C292C2AC759889
:100DB00000758916201B02C28ED2AB75571F75585D
:100DC000FF7533FF7534127535137536147537FF9B
:100DD0007538FF75551C7556037870C21875B822A2
:100DE000C28BC289D2A8D2AAC20C1212D6757703BE
:100DF0002275571F7558FF7538FF75551C755603BA
:100E000078701214C21212D6756C0B22756C06D251
:100E1000041212E0755508755601786C227557FF5B
:100E200075583F75555A755601785E1212D6756C15
:100E30000C22E55E255EF562856261756C02D20466
:100E40001212E0755508755601786C227557FF75BA
:100E500058CF755517755600786D1212D6756C0DF2
:100E6000227557FF75583F75553B755600786E755E
:100E70006C0E22756C08D2041212E0755508755676
:100E800001786C22C0D012118C201803120F03DDE0
:100E900008120ED5120E9C7D0CD0D022C0E0E57950
:100EA000B40606120EB4020EB17559FF755AFFC290
:100EB0000CD0E022DF1E7F90B28475431E20840C8C
:100EC000200C0985575985585A020ED47559FF755B
:100ED0005AFFC20C22C001C0E0C0D0C3A93D053DED
:100EE000E53C47555A75A000F5A0E53C33F53C506C
:100EF00004C3120EFCD0D0D0E0D00122753C107596
:100F00003D3E22C001C0E0C0D0A9320532853099F3
:100F10003099FDC299E5315559F5993099FDC2993D
:100F2000B7000B7599FC3099FDC2990210E0B7012A
:100F30000B7599603099FDC2990210E0B7020B75EC
:100F400099DA3099FDC2990210E0B7030B7599F256
:100F50003099FDC2990210E0B7040B75996630997B
:100F6000FDC2990210E0B7050B7599B63099FDC224
:100F7000990210E0B7060B7599BE3099FDC299022F
:100F800010E0B7070B7599E03099FDC2990210E0A7
:100F9000B7080B7599FE3099FDC2990210E0B709A8
:100FA0000B7599E63099FDC2990210E0B70A0B75EE
:100FB00099023099FDC2990210E0B70B0B759901A7
:100FC0003099FDC2990210E0B7FF0B759900309976
:100FD000FDC2990210E0B70C0B7599EE3099FDC275
:100FE000990210E0B70D0B75991C3099FDC299025A
:100FF00010E0B70E0B7599FA3099FDC2990210E016
:10100000B70F0B75990A3099FDC2990210E0B7111C
:101010000B75992A3099FDC2990210E0B7120B7531
:10102000997C3099FDC2990210E0B7130B75991E97
:101030003099FDC2990210E0B7140B75991A3099D6
:10104000FDC2990210E0B7150B7599B63099FDC233
:10105000990210E0B7160B7599DA3099FDC2990222
:1010600010E0B7170B75993A3099FDC2990210E05C
:10107000B7180B7599DE3099FDC2990210E0B719C7
:101080000B75997A3099FDC2990210E0B71A0B7569
:1010900099763099FDC2990210E0B71B0B7599380B
:1010A0003099FDC2990210E0B71C0B75996E30990A
:1010B000FDC2990210E0B71D0B7599EC3099FDC285
:1010C000990210E0B71E0B75993E3099FDC2990246
:1010D00010E0B71F0B7599CE3099FDC2990210E050
:1010E000D2B5C2B5C3E53033F530E53133F531B9AA
:1010F0003C031210FCD0D0D0E0D0012275308075B6
:10110000310075323322C003C0E0C0D0AB42E543AA
:10111000B40016E579B402028012E543C284C280AD
:10112000C281C282C283021185B4010612120A0270
:101130001185DC051211D3804CBB0016200009D2AA
:1011400081C282754202803DD281C283C280054243
:101150008033BB011520000AD282C283C2801542AF
:101160008023D282C2810542801BBB021820000A64
:10117000D283D280C2811542800BD283D280C282B8
:101180007542008000D0D0D0E0D00322C0E0C0D0B3
:10119000E579B401061212220211CEB4020612122F
:1011A000290211CEB4030612122D0211CEB4040688
:1011B00012124C0211CEB4050612127D0211CEB4E9
:1011C00006061212810211CEB40703121285D0D086
:1011D000D0E022B200C3741E95432000175007C30D
:1011E000743C9543F544AC44AB420BBB03027B001B
:1011F0008B4280155004AC448005AC43854344AB1E
:10120000421BBBFF027B028B4222754200754301E9
:10121000AC43854344D280C281C282C283D284D28D
:1012200000228547431211062212110622E56AB4F4
:101230000805901607800BB407059015FF800390F2
:1012400015F9E56C1493F54312110622C0E0E5424E
:10125000B4000BD280D283C281C28202127AB4015E
:101260000BD281C280C283C28202127AB4020BD234
:1012700082C281C280C28302127AD0E02212110699
:10128000221211062212110622758AC4758CC475A9
:101290005F0175600175790122758AFF758CFF7594
:1012A0005F3C75603C7579027543002275790322B5
:1012B000758AFF758CFF755F3C75603C757904120B
:1012C000120A22758AC4758CC4755F017560017538
:1012D000790575431E22308503120D2A7579062281
:1012E000D202758AFE758CFE755F1E75601E75795B
:1012F0000775430022C0E0C0D0C330B307D208C294
:101300000902131E2008171215BA06D20C85787A26
:101310007559FF755AFFD208300B03060606E555CE
:10132000965002A656D0D0D0E022C0E0C0D0C33044
:10133000B207D209C2080213532009171215BA16B0
:10134000D20C85787A7559FF755AFFD209300B0394
:10135000161616E695565002A655E555965002A665
:1013600055D0D0D0E022C0E0C0D0C0F0E7301A178E
:10137000B40004740C8010B40C04D295800B940C4F
:101380004004D2958003E7C29575F00A84F548853C
:10139000F04985483E85493FD0F0D0D0D0E022AA20
:1013A0004C755601BA010675551F021417BA02068C
:1013B00075551D02140DBA030675551F021417BA90
:1013C000040675551E02140DBA050675551F021444
:1013D00017BA060675551E02140DBA070675551F75
:1013E000021417BA080675551F021417BA090675B4
:1013F000551E02140DBA0A0675551F021417BA0BB2
:101400000675551E02140D75551F021417E555C3B8
:10141000954D500385554D22755600755563AA4C60
:10142000BA0219AA4DBA1D14D20B755560E54E7556
:10143000F00484E5F06005154E1480F922C000C068
:10144000D0F8C394395006E8540F02144EE8D0D0B7
:10145000D00022C0F0C0D075F00AE50CA4250DF52F
:101460004775F00AE50AA4250BF54675F00AE5086C
:10147000A42509F54575F00AE50EA4250FF54D756F
:10148000F00AE510A42511F54C75F00AE512A42523
:1014900013F54E12149BD0D0D0F022C0E0C0D0E59E
:1014A000702545C3940E50072418121552800CC3A2
:1014B00094185004241880031214D2F545D0D0D0CB
:1014C000E022741C9570F57012149B741C9570F5D5
:1014D0007022C0E0C0F0C0D0054DE54DB41D16E54A
:1014E0004CB40267E54E75F00484E5F0605D054C90
:1014F000754D018056B41E0CE54CB4024E054C757A
:101500004D018047B41F2AE54CB40407054C754DC6
:10151000018038B40607054C754D01802EB40907CB
:10152000054C754D018024B40B21054C754D01808F
:101530001AB42017054C754D01E54CB40D0D054E40
:10154000754C01E54EB46403754E00D0D0D0F0D098
:10155000E022C0E0C0F0C0D0D54D58D54C19E54EC2
:10156000600A154E754C0C754D1F8047754E63759E
:101570004C0C754D1F803CE54CB40214E54E75F0E3
:101580000484E5F06005754D1C8028754D1D802391
:10159000B40405754D1E801BB40605754D1E8013E1
:1015A000B40905754D1E800BB40B05754D1E8003E7
:1015B000754D1FD0D0D0F0D0E022301B0C758B00C1
:1015C000758DE0D2ABD28EC29122C00078FFD8FEDA
:1015D000D00022C000C001780879FFD9FE79FFD879
:1015E000FAD001D00022C000C00178FF79FFD9FEF7
:1015F00079FFD8FAD001D00022060C12181E22055D
:10160000090D12161A1E2204080B0F13171A1E2298
:00000001FF
