:07000000020100121164323D
:04000B0012084F3256
:0400130012119632FE
:04001B0012090D3287
:0600230012092EC2983202
:06002B00C2CF120D8A3263
:1001000075817F7D0C7F90757B0175783B757F01D4
:10011000757D01757C01D2B7756C02D219C290D27F
:1001200022C21AC292D293C220C22175770175767B
:100130000275750375710875700E756F20756D0009
:10014000756E01308507757E01D2968005757E0239
:10015000C2961210F87533FF753400753501753687
:100160000A75370375380175390A753A02753B0906
:10017000120F8C753E00753F0075400075410012EE
:100180000E02754300854344755F01C201C202C27D
:1001900003C208C209C20AC20BC20CC210C211D2E9
:1001A000B2D2B3D2B6754500754600754700754C9E
:1001B00001754D1F754E14850057850F587559FFF1
:1001C000755AFFC218755B00755C05755E01E55ECA
:1001D000255EF562856261C3D2AFD2A9C2A8D2887A
:1001E000C2AAD28AD2AD75C80475CBFF75CA007594
:1001F0008906758AC4758CC4D28C75B8227598002E
:10020000120BB78000E57FB401051202578026B4B7
:1002100002051202EC801EB4030512032A8016B4F4
:100220000405120361800EB406051203988006B41B
:10023000050312037FE57EB401051208138016B48E
:100240000205120838800EB4030512083F8006B478
:10025000040312084680AEE54C75F00A84F54F851C
:10026000F050E54D75F00A84F55185F052E54E7574
:10027000F00A84F55385F05479451211CFE546759F
:10028000F00A84F54A85F04B7533FF854F3485506D
:100290003585513785523885533A85543B854A40D8
:1002A000854B41302023E57EB40302801CB4040258
:1002B0008017E56DB54512E56EB5460D7402B5477C
:1002C00008302205120BB78022120A99301006124C
:1002D0000B7B0202EB757B01120A56E57BB403052A
:1002E000120ACB8006B40203120AF222E57DB401A1
:1002F00005120413801EB4020512042E8016B403E6
:1003000005120449800EB404051204648006B40585
:100310000312046E79451211CFE57AB4000B121264
:1003200008121281C20B120AB822795B1211CFE5B2
:100330005C75F00A84F54A85F04B854A40854B414F
:10034000757B03120A56E57BB40105120B59801028
:10035000B40405120B1E8008E57AB40003120B5991
:1003600022E57CB401051204898006B4020312045C
:1003700093E57AB40003120B48795B1211CF22E5A2
:1003800077B4010512073E800EB40205120776808D
:1003900006B403031207BB22E56CB401051204AED8
:1003A000804EB402051204F58046B4030512053CE4
:1003B000803EB4040512057E8036B405051205C3DF
:1003C000802EB406051206048026B40705120649DD
:1003D000801EB40B051206918016B40C051206E9B6
:1003E000800EB40D051206FE8006B40E0312071E21
:1003F000E57AB4001D757901E56CB40B061213049F
:1004000002040FB40C09E55E255EF5628562611297
:100410000B6822E54C75F00A84F54F85F050854F46
:1004200034855035120A37301003120C4222E54D44
:1004300075F00A84F55185F052855137855238128E
:100440000A37301003120C5122E54E75F00A84F57C
:100450005385F05485533A85543B120A37301003C4
:10046000120C6022120A37301003120C7422E54677
:1004700075F00A84F54A85F04B854A40854B411258
:100480000A37301003120AB822120A37301003124A
:100490000C8622E55C75F00A84F54A85F04B854AA6
:1004A00040854B41120A37301003120B4822753336
:1004B000FF7534FF75350F75361875370A753815A1
:1004C00075391A753A11753B1479451211CFE54605
:1004D00075F00A84F54A85F04B854A40854B4112F8
:1004E0000A37301006120BB70204F4120A993010C2
:1004F00003120B68227533FF753412753513753688
:10050000147537FF753816753917753A11753B181C
:1005100079451211CFE54675F00A84F54A85F04B0E
:10052000854A40854B41120A37301006120CFD02F5
:10053000053B120A99301003120B68227533FF75C0
:1005400034FF7535FF7536157537117538177539E0
:1005500017753A16753B18E55E75F00A84F5408507
:10056000F041753E0A753F0A120A37301006120D27
:100570002702057D120A99301003120B6822753389
:10058000FF7534FF75351975360E753713753818C4
:100590007539FF753A17753B112019067541000230
:1005A00005A5754101753E0A753F0A75400A120A94
:1005B00037301005B2190205C2120A993010031221
:1005C0000B68227533FF7534FF75351575361A754E
:1005D00037117538147539FF753A0E753B13E56E92
:1005E00075F00A84F54085F041796D1211CF120A39
:1005F00037301006120D54020603120A9930100308
:10060000120B68227533FF75340C75351B75361364
:1006100075371775381575391A753A11753B1420E9
:10062000220675410002062B754101753E0A753F91
:100630000A75400A120A37301005B2220206481223
:100640000A99301003120B68227533FF7534017557
:1006500035027536FF75371775380F7539FF753ADE
:1006600002753B04201A09754002754104020676A2
:10067000754001754102753E0A753F0A120A37300E
:100680001005B21A020690120A99301003120B6874
:1006900022E54675F00A84F54A85F04BE570C3946F
:1006A0000E500A75390AC3740E957080037539FFB0
:1006B00075F00A84F53A85F03B854A40854B41E563
:1006C000702545C3940E500424188007C394185015
:1006D000022418F56B796B1211CF120A373010080B
:1006E000D221121304120D1822E55E75F00A84F56A
:1006F0004085F041120A37301003120D3C22E56E9E
:1007000075F00A84F54085F041E56D75F00A84F5D1
:100710003E85F03F120A37301003120D6922E56E54
:1007200075F00A84F54085F041E56D75F00A84F5B1
:100730003E85F03F120A37301003120D7B22E5464A
:1007400075F00A84F54A85F04B854A40854B411285
:100750000A3730101030200D302105120B9C801507
:10076000120CBC8010E57AB4000B302105120B9CF2
:100770008003120CBC22E54675F00A84F54A85F028
:100780004B854A40854B41120A3730100D30210508
:10079000120B9C8025120CBC802030970D20210567
:1007A000120CBC8015120B9C8010E57AB4000B3043
:1007B0002105120B9C8003120CBC22E54675F00A41
:1007C00084F54A85F04BE570C3940E500A75390ADA
:1007D000C3740E957080037539FF75F00A84F53A7D
:1007E00085F03B854A40854B41E5702545C3940E15
:1007F000500424188007C3941850022418F56B790C
:100800006B1211CF120A37301008D22112130412C2
:100810000B9C2230851EE55BB5451CE55CB5461793
:100820007400B54712E57FB40505120B9CC2021295
:100830000C0A8003120C0422308503120BFE2220C6
:100840008503120C1322208505120C2A800022C079
:10085000E0C0D0C006E579B407140543E543B43CD5
:1008600003754300E547B543051210F8C202E57968
:10087000B402280543E543B43C0375430030021B32
:1008800020030CE547B543131210F8C202800C7424
:100890001EB54307121132C202C203E579B4050C3A
:1008A000D56109856261D54303120C33E579B4043F
:1008B0000CE542B4020575420080020542D55F4650
:1008C00085605FE57FB40102800CB40507E577B46D
:1008D00003028002157AE57EB40302B2910547AEA9
:1008E00047BE3C22754700E57FB4020302090605B6
:1008F00046AE46BE3C107546000545AE45BE1806E0
:1009000075450012133BD006D0D0D0E022758B0085
:10091000758D0030930C757214D56F11120B9C02FB
:10092000092DD220756F20D57203120C9822C0E0D9
:10093000C0D0C001C003E599AB76BB010D7E00625B
:1009400073D57403857576020A2EBB0209B424039D
:10095000757603020A2EBB030EB44708F57375764D
:1009600004020A2E020A28BB040EB45008627375F2
:100970007605020A2E020A28BB050EB452086273DD
:10098000757606020A2E020A28BB060EB44D0862CE
:1009900073757607020A2E020A28BB0714B4430EA9
:1009A0006273757401757508757601020A2E020A64
:1009B00028BB081962730E540FA971F70571BE06A2
:1009C00009757405757509757601020A2EBB09143F
:1009D000B4410E627375742675750C757601020A42
:1009E0002E020A28BB0C1962730E540FA971F70569
:1009F00071BE063A75740475750D757601020A2E7E
:100A0000BB0D09B42A2275760E020A2EBB0E190EF2
:100A10001212A6BE0106C4F514020A2E4514F514DE
:100A2000B57305D2971212BC757602757108D003A2
:100A3000D001D0D0D0E022C21030B602C20A200AC3
:100A40001420B6117A147BFF20B60ADBFB7BFFDA99
:100A5000F7D20AD2102230B602C20A200A3A20B6D1
:100A6000377AFF7BFF20B630DBFB7BFFBAE119E56D
:100A70007EB40306120C1D020A96E57FB4010675CA
:100A80007B03020A88757B01DADBB40106757B0201
:100A9000020A96757B04D20A22C21030B702C21134
:100AA00020111420B7117A147BFF20B70ADBFB7BDF
:100AB000FFDAF7D211D21022C2A8C2AA75470020CD
:100AC0001902D2901210F8757F012275780A857884
:100AD0007A7533FF7534FF7535FF75360C75370D34
:100AE00075380E75390F753A11753B11C290757FC7
:100AF000032275783C85787AC20CC297C28BC28972
:100B0000D2A8D2AA757D017557FC7558FF75550C92
:100B1000755601784CC290121145757F0222757886
:100B20000A85787AC28BC289D2A8D2AA757C01C202
:100B30000CC20B7557FF7558CF7555177556007851
:100B40005B121145757F042275780A85787AC2A8F0
:100B5000C2AA12114F757F032275360A75390A2011
:100B60001902D290757F012275360A75390AC2A81A
:100B7000C2AA201902D290757F012275783C85782F
:100B80007AC28BC289D2A8D2AA756C01C20C7555E3
:100B900007755601786CC290757F0622C292C28E8C
:100BA000C2AB75980075360A75390AC21875B82235
:100BB00012114F757F01227578FF85787AD21875EA
:100BC00099003099FDC2997599FF3099FDC29975C8
:100BD00099023099FDC299D2B5C2B512111FD2AB9C
:100BE000758916758B00758D00D28E757214C2973B
:100BF000D292201902D290757701757F0522D29684
:100C0000757E0122C296757E0222C291121108756C
:100C10007E0322D291C296D202757E0222D29185A3
:100C20006261D202D203757E0422C29612114F7500
:100C30007E0222C291121108757E0322D296757E21
:100C400001227557E77558FF121208784D757D021D
:100C50002275573F7558FF121281784E757D032219
:100C60007557FF7558CFC20B7555177556007845E7
:100C7000757D04227557FF75583F75553B755600B5
:100C80007846757D05227557FF75583F75553B753C
:100C90005600785C757C022275787885787A75B80C
:100CA00010C28EC2AB758926758DFDD28E75985097
:100CB000D2AC75710875760275770222C292C28E27
:100CC000C2ABC2AC75980075571F7558FF7533FFDE
:100CD0007534127535137536147537FF7538FF7511
:100CE000551C7556037870C21875B822C28BC2891C
:100CF000D2A8D2AAC20C1211457577032275571FCC
:100D00007558FF7538FF75551C75560378701213AA
:100D10002B121145756C0B22756C021210F875556B
:100D200007755601786C227557FF75583F75555AEF
:100D3000755601785E121145756C0C22E55E255ED4
:100D4000F562856261756C031210F875550775566A
:100D500001786C227557FF7558CF75551775560079
:100D6000786D121145756C0D227557FF75583F75DA
:100D7000553B755600786E756C0E22756C05121019
:100D8000F8755507755601786C22C0D012101C20DA
:100D90001803120E09DD08120DDB120DA27D0CD016
:100DA000D022C0E0E579B40606120DBA020DB7757F
:100DB00059FF755AFFC20CD0E022DF1E7F90B2842B
:100DC00075431E20840C200C0985575985585A02FA
:100DD0000DDA7559FF755AFFC20C22C001C0E0C080
:100DE000D0C3A93D053DE53C47555A75A000F5A087
:100DF000E53C33F53C5004C3120E02D0D0D0E0D015
:100E00000122753C10753D3E22C001C0E0C0D0A952
:100E10003205328530993099FDC299E5315559F541
:100E2000993099FDC299B700087599FC3099FDC2B7
:100E300099B701087599603099FDC299B702087594
:100E400099DA3099FDC299B703087599F23099FD86
:100E5000C299B704087599663099FDC299B705081B
:100E60007599B63099FDC299B706087599BE309943
:100E7000FDC299B707087599E03099FDC299B70886
:100E8000087599FE3099FDC299B709087599E63041
:100E900099FDC299B70A087599023099FDC299B7B0
:100EA0000B087599013099FDC299B7FF0875990033
:100EB0003099FDC299B70C087599EE3099FDC29929
:100EC000B70D0875991C3099FDC299B70E08759930
:100ED000FA3099FDC299B70F0875990A3099FDC289
:100EE00099B7110875992A3099FDC299B7120875FA
:100EF000997C3099FDC299B7130875991E3099FDF8
:100F0000C299B7140875991A3099FDC299B7150896
:100F10007599B63099FDC299B716087599DA309966
:100F2000FDC299B7170875993A3099FDC299B7185B
:100F3000087599DE3099FDC299B7190875997A300C
:100F400099FDC299B71A087599763099FDC299B77B
:100F50001B087599383099FDC299B71C0875996EB0
:100F60003099FDC299B71D087599EC3099FDC29969
:100F7000D2B5C2B5E53033F530E53133F531C3B91B
:100F80003C03120F8CD0D0D0E0D001227530807598
:100F9000310075323322C003C0E0C0D0AB42E5431C
:100FA000B40016E579B402028012E543C284C2801F
:100FB000C281C282C283021015B4010612109A02C5
:100FC0001015DC05121063804CBB0016200009D2FE
:100FD00081C282754202803DD281C283C2800542B5
:100FE0008033BB011520000AD282C283C280154221
:100FF0008023D282C2810542801BBB021820000AD6
:10100000D283D280C2811542800BD283D280C28229
:101010007542008000D0D0D0E0D00322C0E0C0D024
:10102000E579B401061210AF02105EB40206121088
:10103000B602105EB403061210BA02105EB40406C3
:101040001210BB02105EB405061210EC02105EB462
:1010500006061210F002105EB407031210F4D0D08E
:10106000D0E022B200C3741E95432000175007C37E
:10107000743C9543F544AC44AB420BBB03027B008C
:101080008B4280155004AC448005AC43854344AB8F
:10109000421BBBFF027B028B4222754200AC4385A0
:1010A0004344D280C281C282C283D284D2002285CC
:1010B0004743120F9622120F962222C0E0E542B457
:1010C000000BD280D283C281C2820210E9B4010B2C
:1010D000D281C280C283C2820210E9B4020BD282E2
:1010E000C281C280C2830210E9D0E022120F962290
:1010F000120F9622120F9622758AC4758CC4755FE2
:101100000175600175790122754300758AFF758C40
:10111000FF755F3C75603C75790222757903227515
:101120008AFF758CFF755F3C75603C12109A75796B
:101130000422758AC4758CC4755F0175600175439E
:101140001E75790522308503120C3C7579062275CF
:101150004300D202758AFE758CFE755F1E75601E97
:1011600075790722C0E0C0D0C330B307D208C209E6
:1011700002118A20081406D20C85787A7559FF75F9
:101180005AFFD208300B03060606E555965002A614
:1011900056D0D0D0E022C0E0C0D0C330B207D209D0
:1011A000C2080211BC20091416D20C85787A755930
:1011B000FF755AFFD209300B03161616E6955650E6
:1011C00002A655E555965002A655D0D0D0E022C0D3
:1011D000E0C0D0C0F0E7301A17B40004740C8010DF
:1011E000B40C04D295800B940C4004D2958003E794
:1011F000C29575F00A84F54885F04985483E8549D1
:101200003FD0F0D0D0D0E022AA4C755601BA0106EA
:1012100075551F021280BA020675551D021276BA64
:10122000030675551F021280BA040675551E021278
:1012300076BA050675551F021280BA060675551E48
:10124000021276BA070675551F021280BA08067593
:10125000551F021280BA090675551E021276BA0A87
:101260000675551F021280BA0B0675551E021276BE
:1012700075551F021280E555C3954D500385554D98
:1012800022755600755563AA4CBA0219AA4DBA1DAB
:1012900014D20B755560E54E75F00484E5F06005D9
:1012A000154E1480F922C000C0D0F8C394395006FE
:1012B000E8540F0212B7E8D0D0D00022C0F0C0D05E
:1012C00075F00AE50CA4250DF54775F00AE50AA4AA
:1012D000250BF54675F00AE508A42509F54575F0D6
:1012E0000AE50EA4250FF54D75F00AE510A42511A9
:1012F000F54C75F00AE512A42513F54E121304D02F
:10130000D0D0F022C0E0C0D0E5702545C3940E5087
:101310000724181213BB800CC3941850042418809F
:101320000312133BF545D0D0D0E022741C9570F524
:1013300070121304741C9570F57022C0E0C0F0C0E8
:10134000D0054DE54DB41D16E54CB40267E54E756C
:10135000F00484E5F0605D054C754D018056B41EC7
:101360000CE54CB4024E054C754D018047B41F2A64
:10137000E54CB40407054C754D018038B4060705EB
:101380004C754D01802EB40907054C754D01802424
:10139000B40B21054C754D01801AB42017054C750E
:1013A0004D01E54CB40D0D054E754C01E54EB46490
:1013B00003754E00D0D0D0F0D0E022C0E0C0F0C025
:1013C000D0D54D58D54C19E54E600A154E754C0CCC
:1013D000754D1F8047754E63754C0C754D1F803CD5
:1013E000E54CB40214E54E75F00484E5F060057533
:1013F0004D1C8028754D1D8023B40405754D1E803D
:101400001BB40605754D1E8013B40905754D1E806D
:101410000BB40B05754D1E8003754D1FD0D0D0F059
:10142000D0E022C00078FFD8FED00022C000C0016A
:10143000780879FFD9FE79FFD8FAD001D00022C010
:1014400000C00178FF79FFD9FE79FFD8FAD001D02A
:02145000002278
:00000001FF
