:07000000020100120F7A3229
:04000B001206C732E0
:04001300120FAC32EA
:04001B001207853211
:060023001207A6C298328C
:06002B00C2CF120BCC3223
:1001000075817F7D0C7F90757B0175783B757F01D4
:10011000757D01757C01756C01D2B7D219C290C290
:1001200092D293C220C2217577017576027575034C
:1001300075710875700E756F20756D00756E0130E4
:100140008507757E01D2968005757E02C296120FD4
:100150000E7533FF75340075350175360A75370332
:1001600075380175390A753A02753B09120DA27589
:100170003E00753F00754000754100120C44754308
:1001800000854344755F01C201C202C203C208C2B6
:1001900009C20AC20BC20CC210C211D2B2D2B3D26F
:1001A000B6754500754600754700754C01754D1FC5
:1001B000754E14850057850F587559FF755AFFC243
:1001C00018755B00755C05755E01E55E255EF56280
:1001D000856261C3D2AFD2A9C2A8D288C2AAD28A8C
:1001E000D2AD75C80475CBFF75CA00758906758ACE
:1001F000C4758CC4D28C75B822759800120A2F80F1
:1002000000E57FB401051202538026B402051202F4
:10021000E5801EB403051203238016B404051203FF
:100220005A800EB406051203918006B4050312032A
:1002300078E57EB4010512068B8016B4020512061D
:10024000B0800EB403051206B78006B4040312068C
:10025000BE80AEE54C75F00A84F54F85F050E54D53
:1002600075F00A84F55185F052E54E75F00A84F573
:100270005385F0547945120FE5E54675F00A84F58B
:100280004A85F04B7533FF854F348550358551379E
:1002900085523885533A85543B854A40854B4130D9
:1002A0002020E57EB403028019B404028014E56DB9
:1002B000B5450FE56EB5460A7402B54705120A2F1B
:1002C00080221209113010061209F30202E4757B34
:1002D000011208CEE57BB403051209438006B4027F
:1002E0000312096A22E57DB401051203DC801EB405
:1002F00002051203F78016B40305120412800EB42F
:10030000040512042D8006B4050312043779451242
:100310000FE5E57AB4000B12101E121097C20B12F3
:10032000093022795B120FE5E55C75F00A84F54A25
:1003300085F04B854A40854B41757B031208CEE51D
:100340007BB401051209D18010B40405120996800E
:1003500008E57AB400031209D122E57CB401051244
:1003600004528006B4020312045CE57AB40003125E
:1003700009C0795B120FE522E577B401051205B4D7
:10038000800EB402051205EC8006B4030312063198
:1003900022E56CB40105120477801EB40205120434
:1003A000BE8016B40305120500800EB40B051205BD
:1003B000458006B40C0312059FE57AB4001D7579DB
:1003C00001E56CB40B0612111A0203D8B40C09E54E
:1003D0005E255EF5628562611209E022E54C75F0EA
:1003E0000A84F54F85F050854F348550351208AF9B
:1003F000301003120ABA22E54D75F00A84F55185D2
:10040000F0528551378552381208AF301003120A66
:10041000C922E54E75F00A84F55385F05485533AA8
:1004200085543B1208AF301003120AD8221208AFCD
:10043000301003120AEC22E54675F00A84F54A856D
:10044000F04B854A40854B411208AF30100312092A
:1004500030221208AF301003120AFE22E55C75F05C
:100460000A84F54A85F04B854A40854B411208AF16
:100470003010031209C0227533FF7534127535131D
:100480007536147537FF753816753917753A117545
:100490003B187945120FE5E54675F00A84F54A8563
:1004A000F04B854A40854B411208AF301006120BC5
:1004B000750204BD1209113010031209E0227533D0
:1004C000FF7534FF7535FF7536157537117538179B
:1004D000753917753A16753B18E55E75F00A84F59F
:1004E0004085F041753E0A753F0A1208AF3010068C
:1004F000120B9F0204FF1209113010031209E022AF
:100500007533FF7534FF75351975360E75371375EC
:1005100038187539FF753A17753B11201906754162
:1005200000020527754101753E0A753F0A75400AAC
:100530001208AF301005B21902054412091130102B
:10054000031209E022E54675F00A84F54A85F04B6E
:10055000E570C3940E500A75390AC3740E95708005
:10056000037539FF75F00A84F53A85F03B854A40FA
:10057000854B41E5702545C3940E5004241880072F
:10058000C394185002241875F00A84F53E85F03F94
:100590001208AF301008D22112111A120B9022E566
:1005A0005E75F00A84F54085F0411208AF30100303
:1005B000120BB422E54675F00A84F54A85F04B85A6
:1005C0004A40854B411208AF30101030200D3021C9
:1005D00005120A148015120B348010E57AB4000B52
:1005E000302105120A148003120B3422E54675F0FF
:1005F0000A84F54A85F04B854A40854B411208AF85
:1006000030100D302105120A148025120B34802081
:1006100030970D202105120B348015120A1480101A
:10062000E57AB4000B302105120A148003120B3452
:1006300022E54675F00A84F54A85F04BE570C394CF
:100640000E500A75390AC3740E957080037539FF10
:1006500075F00A84F53A85F03B854A40854B41E5C3
:10066000702545C3940E500424188007C394185075
:1006700002241875F00A84F53E85F03F1208AF3069
:100680001008D22112111A120A142230851EE55BBD
:10069000B5451CE55CB546177400B54712E57FB457
:1006A0000505120A14C202120A828003120A7C2271
:1006B000308503120A7622208503120A8B222085B8
:1006C00005120AA2800022C0E0C0D0C006E579B4BD
:1006D00007140543E543B43C03754300E547B543C0
:1006E00005120F0EC202E579B402280543E543B4B2
:1006F0003C0375430030021B20030CE547B5431350
:10070000120F0EC202800C741EB54307120F48C2AE
:1007100002C203E579B4050CD56109856261D54350
:1007200003120AABE579B4040CE542B40205754244
:100730000080020542D55F4685605FE57FB4010217
:10074000800CB40507E577B403028002157AE57ED4
:10075000B40302B2910547AE47BE3C22754700E59F
:100760007FB4020302077E0546AE46BE3C107546C6
:10077000000545AE45BE1806754500121151D0065C
:10078000D0D0D0E022758B00758D0030930C75723F
:1007900014D56F11120A140207A5D220756F20D547
:1007A0007203120B1022C0E0C0D0C001C003E59953
:1007B000AB76BB010D7E006273D57403857576023E
:1007C00008A6BB0209B424037576030208A6BB037E
:1007D0000EB44708F5737576040208A60208A0BB9C
:1007E000040EB4500862737576050208A60208A0CC
:1007F000BB050EB4520862737576060208A602089D
:10080000A0BB060EB44D0862737576070208A602F7
:1008100008A0BB0714B4430E6273757401757508A4
:100820007576010208A60208A0BB081962730E546F
:100830000FA971F70571BE060975740575750975FF
:1008400076010208A6BB0914B4410E6273757426C2
:1008500075750C7576010208A60208A0BB0C19621A
:10086000730E540FA971F70571BE063A75740475BD
:10087000750D7576010208A6BB0D09B42A2275769E
:100880000E0208A6BB0E190E1210BCBE0106C4F55E
:10089000140208A64514F514B57305D2971210D2A8
:1008A000757602757108D003D001D0D0D0E022C295
:1008B0001030B602C20A200A1420B6117A147BFF47
:1008C00020B60ADBFB7BFFDAF7D20AD2102230B661
:1008D00002C20A200A3A20B6377AFF7BFF20B630E0
:1008E000DBFB7BFFBAE119E57EB40306120A950231
:1008F000090EE57FB40106757B03020900757B01D3
:10090000DADBB40106757B0202090E757B04D20A9C
:1009100022C21030B702C21120111420B7117A146C
:100920007BFF20B70ADBFB7BFFDAF7D211D2102264
:10093000C2A8C2AA754700201902D290120F0E75E4
:100940007F012275780A85787A7533FF7534FF75D3
:1009500035FF75360C75370D75380E75390F753ACC
:1009600011753B11C290757F032275783C85787AAA
:10097000C20CC297C28BC289D2A8D2AA757D01755A
:1009800057FC7558FF75550C755601784CC290127E
:100990000F5B757F022275780A85787AC28BC289CF
:1009A000D2A8D2AA757C01C20CC20B7557FF75582C
:1009B000CF755517755600785B120F5B757F042253
:1009C00075780A85787AC2A8C2AA120F65757F0366
:1009D0002275360A75390A201902D290757F0122D4
:1009E00075360A75390AC2A8C2AA201902D29075B2
:1009F0007F012275783C85787AC28BC289D2A8D2D1
:100A0000AA756C01C20C755503755601786CC290BD
:100A1000757F0622C292C28EC2AB75980075360AE7
:100A200075390AC21875B822120F65757F012275D3
:100A300078FF85787AD2187599003099FDC299753A
:100A400099FF3099FDC2997599023099FDC299D2EA
:100A5000B5C2B5120F35D2AB758916758B00758D81
:100A600000D28E757214C297D292201902D290755C
:100A70007701757F0522D296757E0122C296757E1A
:100A80000222C291120F1E757E0322D291C296D20B
:100A900002757E0222D291856261D202D203757EF6
:100AA0000422C296120F65757E0222C291120F1E99
:100AB000757E0322D296757E01227557E77558FF21
:100AC00012101E784D757D022275573F7558FF1222
:100AD0001097784E757D03227557FF7558CFC20B5E
:100AE0007555177556007845757D04227557FF7545
:100AF000583F75553B7556007846757D05227557EC
:100B0000FF75583F75553B755600785C757C022221
:100B100075787885787A75B810C28EC2AB758926DB
:100B2000758DFDD28E759850D2AC757108757602B0
:100B300075770222C292C28EC2ABC2AC75980075A4
:100B4000571F7558FF7533FF753412753513753699
:100B5000147537FF7538FF75551C7556037870C2CC
:100B60001875B822C28BC289D2A8D2AAC20C120FA1
:100B70005B7577032275571F7558FF7538FF7555DC
:100B80001C7556037870121141120F5B756C0B22A5
:100B9000756C01120F0E755503755601786C227530
:100BA00057FF75583F75555A755601785E120F5BA1
:100BB000756C0C22E55E255EF562856261756C02DE
:100BC000120F0E755503755601786C22C0D0120EA7
:100BD00032201803120C4BDD08120C1D120BE47DA1
:100BE0000CD0D022C0E0E579B40606120BFC020B53
:100BF000F97559FF755AFFC20CD0E022DF1E7F90B5
:100C0000B28475431E20840C200C098557598558E1
:100C10005A020C1C7559FF755AFFC20C22C001C044
:100C2000E0C0D0C3A93D053DE53C47555A75A0003D
:100C3000F5A0E53C33F53C5004C3120C44D0D0D0B1
:100C4000E0D00122753C10753D3E22C001C0E0C0DD
:100C5000D0A93205328530993099FDC299E53155D8
:100C600059F5993099FDC299B700087599FC3099EA
:100C7000FDC299B701087599603099FDC299B70214
:100C8000087599DA3099FDC299B703087599F23061
:100C900099FDC299B704087599663099FDC299B754
:100CA00005087599B63099FDC299B706087599BEC1
:100CB0003099FDC299B707087599E03099FDC2993E
:100CC000B708087599FE3099FDC299B7090875995A
:100CD000E63099FDC299B70A087599023099FDC2AC
:100CE00099B70B087599013099FDC299B7FF08753E
:100CF00099003099FDC299B70C087599EE3099FDAD
:100D0000C299B70D0875991C3099FDC299B70E08A4
:100D10007599FA3099FDC299B70F0875990A3099FB
:100D2000FDC299B7110875992A3099FDC299B71279
:100D30000875997C3099FDC299B7130875991E30D2
:100D400099FDC299B7140875991A3099FDC299B7DF
:100D500015087599B63099FDC299B716087599DAD4
:100D60003099FDC299B7170875993A3099FDC29923
:100D7000B718087599DE3099FDC299B719087599A9
:100D80007A3099FDC299D2B5C2B5E53033F530E578
:100D90003133F531C3B93C03120DA2D0D0D0E0D02D
:100DA000012275308075310075323322C003C0E0F6
:100DB000C0D0AB42E543B40016E579B4020280121C
:100DC000E543C284C280C281C282C283020E2BB4B8
:100DD0000106120EB0020E2BDC05120E79804CBB00
:100DE0000016200009D281C282754202803DD28164
:100DF000C283C28005428033BB011520000AD28223
:100E0000C283C28015428023D282C2810542801BE8
:100E1000BB021820000AD283D280C2811542800B07
:100E2000D283D280C2827542008000D0D0D0E0D080
:100E30000322C0E0C0D0E579B40106120EC5020E4F
:100E400074B40206120ECC020E74B40306120ED055
:100E5000020E74B40406120ED1020E74B40506120A
:100E60000F02020E74B40606120F06020E74B407C7
:100E700003120F0AD0D0D0E022B200C3741E9543F3
:100E80002000175007C3743C9543F544AC44AB4273
:100E90000BBB03027B008B4280155004AC448005E1
:100EA000AC43854344AB421BBBFF027B028B422217
:100EB000754200AC43854344D280C281C282C28362
:100EC000D284D20022854743120DAC22120DAC22EF
:100ED00022C0E0E542B4000BD280D283C281C2823C
:100EE000020EFFB4010BD281C280C283C282020E05
:100EF000FFB4020BD282C281C280C283020EFFD035
:100F0000E022120DAC22120DAC22120DAC22758A19
:100F1000C4758CC4755F01756001757901227543D4
:100F200000758AFF758CFF755F3C75603C757902B2
:100F30002275790322758AFF758CFF755F3C756099
:100F40003C120EB075790422758AC4758CC4755F25
:100F50000175600175431E75790522308503120AFB
:100F6000B475790622754300D202758AFE758CFE2F
:100F7000755F1E75601E75790722C0E0C0D0C33052
:100F8000B307D208C209020FA020081406D20C85AC
:100F9000787A7559FF755AFFD208300B030606069A
:100FA000E555965002A656D0D0D0E022C0E0C0D081
:100FB000C330B207D209C208020FD220091416D2D8
:100FC0000C85787A7559FF755AFFD209300B0316D4
:100FD0001616E695565002A655E555965002A655AA
:100FE000D0D0D0E022C0E0C0D0C0F0E7308617B447
:100FF0000004740C8010B40C04D295800B940C4047
:1010000004D2958003E7C29575F00A84F54885F00F
:101010004985483E85493FD0F0D0D0D0E022AA4C47
:10102000755601BA010675551F021096BA0206756B
:10103000551D02108CBA030675551F021096BA048E
:101040000675551E02108CBA050675551F021096BE
:10105000BA060675551E02108CBA070675551F0292
:101060001096BA080675551F021096BA09067555EE
:101070001E02108CBA0A0675551F021096BA0B068E
:1010800075551E02108C75551F021096E555C395B7
:101090004D500385554D22755600755563AA4CBABF
:1010A0000219AA4DBA1D14D20B755560E54E75F0A4
:1010B0000484E5F06005154E1480F922C000C0D00C
:1010C000F8C394395006E8540F0210CDE8D0D0D0C0
:1010D0000022C0F0C0D075F00AE50CA4250DF5473C
:1010E00075F00AE50AA4250BF54675F00AE508A493
:1010F0002509F54575F00AE50EA4250FF54D75F0A7
:101100000AE510A42511F54C75F00AE512A4251383
:10111000F54E12111AD0D0D0F022C0E0C0D0E57048
:101120002545C3940E500724181211D1800CC39486
:1011300018500424188003121151F545D0D0D0E086
:1011400022741C9570F57012111A741C9570F5704C
:1011500022C0E0C0F0C0D0054DE54DB41D16E54CF1
:10116000B40267E54E75F00484E5F0605D054C75EA
:101170004D018056B41E0CE54CB4024E054C754D25
:10118000018047B41F2AE54CB40407054C754D0196
:101190008038B40607054C754D01802EB40907054B
:1011A0004C754D018024B40B21054C754D01801AFE
:1011B000B42017054C754D01E54CB40D0D054E7569
:1011C0004C01E54EB46403754E00D0D0D0F0D0E0B1
:1011D00022C0E0C0F0C0D0D54D58D54C19E54E60C6
:1011E0000A154E754C0C754D1F8047754E63754C36
:1011F0000C754D1F803CE54CB40214E54E75F004AF
:1012000084E5F06005754D1C8028754D1D8023B464
:101210000405754D1E801BB40605754D1E8013B464
:101220000905754D1E800BB40B05754D1E800375A9
:101230004D1FD0D0D0F0D0E022C00078FFD8FED033
:101240000022C000C001780879FFD9FE79FFD8FAE2
:10125000D001D00022C000C00178FF79FFD9FE790B
:08126000FFD8FAD001D00022F2
:00000001FF
