:070000000201001206A83204
:04000B001203783232
:040013001206D332CC
:06002B00C2CF12043F32B7
:100100007D0C7F90757E01757D02757C0375790489
:10011000857E7B857E7F7533FF753400753501756F
:10012000360A75370375380175390A753A01753B1A
:10013000091205A7753E00753F0075400075410026
:100140001204A1754300854344C201C208C209C21A
:100150000AC20BC20CC210D2B2D2B3D2B6754500DD
:10016000754600754700754C01754D1F754E13851A
:100170000057850F587559FF755AFF755B00755C00
:1001800005C3D2AFD2A9C2A8D288C2AAD28AD2ADA0
:1001900075C80475CBFF75CA00758906758AC47564
:1001A0008CC4D28C75B8227598008000E57FB57E2E
:1001B000030201C8B57D03020231B57C0302033797
:1001C000B5790302037580E4E54C75F00A84F54FB8
:1001D00085F050E54D75F00A84F55185F052E54EF5
:1001E00075F00A84F55385F0547945120705E54604
:1001F00075F00A84F54A85F04B7533FF854F3485D9
:10020000503585513785523885533A85543B854A58
:1002100040854B41854743857E7B1203BCE57BB51A
:100220007C031203F4B57D0312041B857B7F02015E
:10023000ACC20CC2107557FC7558FF75550C75563D
:1002400001784CE547B57A0B12073E1207B7C20B8F
:1002500002032512039F301003020274E54C75F06F
:100260000A84F54F85F050854F3485503579451215
:10027000070580CFC2107557E77558FF12073E7803
:100280004D12039F3010030202A3E54D75F00A845E
:10029000F55185F052855137855238794512070559
:1002A000020281C21075573F7558FF1207B7784E8A
:1002B00012039F3010030202D2E54E75F00A84F556
:1002C0005385F05485533A85543B7945120705020E
:1002D00002B0C2107557FF7558CFC20B7555177510
:1002E0005600784512039F3010030202F47945123C
:1002F000070580F0C2107557FF75583F75553B755F
:100300005600784612039F301003020325E5467518
:10031000F00A84F54A85F04B854A40854B41794582
:1003200012070580DFC210754700C2A8C2AA857EE9
:100330007F12067A0201AC795B120705E55C75F065
:100340000A84F54A85F04B854A40854B41854743F1
:10035000857C7B1203BCE57BB57E03120438B5793E
:100360000312042FE547B57A06120438857E7B8593
:100370007B7F0201AC0201ACC0E0C0D00547AE47B4
:10038000BE3C177547000546AE46BE3C0D7546009F
:100390000545AE45BE1803754500D0D0D0E02230EB
:1003A000B602C20A200A1420B6117A287BFF20B6B2
:1003B0000ADBFB7BFFDAF7D20AD2102230B602C288
:1003C0000AE57F200A2D20B62A7AFF7BFF20B6237C
:1003D000DBFB7BFFBAE10CB57E06857C7B0203E389
:1003E000857E7BDAE8B57E06857D7B0203F1857923
:1003F0007BD20A22E54775F03C240A8485F07A75A1
:1004000033FF7534FF7535FF75360C75370D75384C
:100410000E75390F753A11753B1122E54775F03CA1
:10042000243B8485F07AC28BC289D2A8D2AA22C288
:100430008BC289D2A8D2AA2275360A75390A22122D
:1004400005B11204A8DD0812047A1204507D0C22B2
:10045000C0E0E57FB57D18DF1E7F90B28475431E36
:1004600020840C200C0985575985585A0204777549
:1004700059FF755AFFC20CD0E022C001C0E0C0D0C5
:10048000C3A93D053DE53C47555A75A000F5A0E5DB
:100490003C33F53C5004C31204A1D0D0D0E0D001CD
:1004A00022753C10753D3E22C001C0E0C0D0A9328B
:1004B00005328530993099FDC299E5315559F59944
:1004C0003099FDC299B700087599FC3099FDC29921
:1004D000B701087599603099FDC299B702087599FE
:1004E000DA3099FDC299B703087599F23099FDC2C7
:1004F00099B704087599663099FDC299B7050875D2
:1005000099B63099FDC299B706087599BE3099FD24
:10051000C299B707087599E03099FDC299B70808E4
:100520007599FE3099FDC299B709087599E6309919
:10053000FDC299B70A087599023099FDC299B70BA7
:10054000087599013099FDC299B7FF087599003077
:1005500099FDC299B70C087599EE3099FDC299B70B
:100560000D0875991C3099FDC299B70E087599FA56
:100570003099FDC299B70F0875990A3099FDC29953
:10058000B7110875992A3099FDC299D2B5C2B5E55F
:100590003033F530E53133F531C3B93C031205A7EB
:1005A000D0D0D0E0D0012275308075310075323363
:1005B00022C003C0E0C0D0AB42E543B4000DC2840A
:1005C000C280C281C282C283020627B4010612061B
:1005D00065020627DC0512062E804CBB00162000A3
:1005E00009D281C282754202803DD281C283C2801B
:1005F00005428033BB011520000AD282C283C2802B
:1006000015428023D282C2810542801BBB02182082
:10061000000AD283D280C2811542800BD283D2805D
:10062000C2827542008000D0D0D0E0D00322B20058
:10063000C3741E95432000175007C3743C9543F5BF
:1006400044AC44AB420BBB03027B008B4280155091
:1006500004AC448005AC43854344AB421BBBFF0262
:100660007B028B4222754200AC43854344D280C258
:1006700081C282C283D284D200227543001207E570
:10068000E547B543030206A71207E505437401B524
:1006900043EE1206651207DC1206651207DC12062D
:1006A000651207DC02068022C0E0C330B307D2081F
:1006B000C2090206C920081106D20C7559FF755AE5
:1006C000FFD208300B03060606E555965002A656E3
:1006D000D0E022C0E0C330B207D209C2080206F45B
:1006E00020091116D20C7559FF755AFFD209300B2B
:1006F00003161616E695565002A655E55596500275
:10070000A655D0E022C0E0C0D0C0F0E7308617B4D4
:100710000004740C8010B40C04D295800B940C402F
:1007200004D2958003E7C29575F00A84F54885F0F8
:100730004985483E85493FD0F0D0D0D0E022AA4C30
:10074000755601BA010675551F0207B6BA0206753D
:10075000551D0207ACBA030675551F0207B6BA0449
:100760000675551E0207ACBA050675551F0207B679
:10077000BA060675551E0207ACBA070675551F0264
:1007800007B6BA080675551F0207B6BA09067555A9
:100790001E0207ACBA0A0675551F0207B6BA0B0649
:1007A00075551E0207AC75551F0207B6E555C39572
:1007B0004D500385554D22755600755563AA4CBAA8
:1007C0000219AA4DBA1D14D20B755560E54E75F08D
:1007D0000484E5F06005154E1480F922C00078FF0E
:1007E000D8FED00022C000C001780879FFD9FE7978
:1007F000FFD8FAD001D00022C000C00178FF79FFF5
:0B080000D9FE79FFD8FAD001D0002209
:00000001FF
